{
	"data": {
		"bytecode": {
			"linkReferences": {},
			"object": "6080604052348015600e575f5ffd5b506111dc8061001c5f395ff3fe608060405234801561000f575f5ffd5b5060043610610086575f3560e01c80637d7e5e3d116100595780637d7e5e3d146100fc578063b9cce72c14610118578063deff71b814610148578063f5933f661461016457610086565b806331a561101461008a57806352efea6e146100a65780636d236703146100b05780637bc5bbbf146100e0575b5f5ffd5b6100a4600480360381019061009f91906109c3565b610180565b005b6100ae6102db565b005b6100ca60048036038101906100c59190610a3d565b610364565b6040516100d79190610ac8565b60405180910390f35b6100fa60048036038101906100f59190610bac565b6104ae565b005b61011660048036038101906101119190610c28565b6104db565b005b610132600480360381019061012d9190610d26565b610581565b60405161013f9190610d60565b60405180910390f35b610162600480360381019061015d9190610e39565b6105c7565b005b61017e60048036038101906101799190610a3d565b6105e3565b005b80621000039081610191919061107d565b505f5f90505b600781101561020f57621000036001818054806101b390610ead565b80601f81036101d057835f5260205f2060ff1984168155603f9350505b506002820183556001810192505050038154600116156101fd57905f5260205f2090602091828204019190065b90549050508080600101915050610197565b50600860f81b621000036003815461022690610ead565b81106102355761023461114c565b5b81546001161561025257905f5260205f2090602091828204019190065b601f036101000a81548160ff021916907f010000000000000000000000000000000000000000000000000000000000000084040217905550621000036002815461029b90610ead565b81106102aa576102a961114c565b5b8154600116156102c757905f5260205f2090602091828204019190065b601f036101000a81549060ff021916905550565b621000005f6102ea9190610681565b5f5f6102f6919061069f565b5f67ffffffffffffffff8111156103105761030f61089f565b5b60405190808252806020026020018201604052801561034957816020015b6103366106b4565b81526020019060019003908161032e5790505b506210000090805190602001906103619291906106d6565b50565b60605f8267ffffffffffffffff8111156103815761038061089f565b5b6040519080825280602002602001820160405280156103ba57816020015b6103a761072f565b81526020019060019003908161039f5790505b5090506040518060400160405280600181526020016002815250815f815181106103e7576103e661114c565b5b60200260200101819052505f60c867ffffffffffffffff81111561040e5761040d61089f565b5b6040519080825280601f01601f1916602001820160405280156104405781602001600182028036833780820191505090505b5090505f5f90505b81518110156104a3578060f81b8282815181106104685761046761114c565b5b60200101907effffffffffffffffffffffffffffffffffffffffffffffffffffffffffffff191690815f1a9053508080600101915050610448565b508092505050919050565b5f6210000190506002816001018190555081815f0190805190602001906104d6929190610751565b505050565b816210000084815481106104f2576104f161114c565b5b905f5260205f20015f6002811061050c5761050b61114c565b5b602091828204019190066101000a81548160ff021916908315150217905550806210000084815481106105425761054161114c565b5b905f5260205f200160016002811061055d5761055c61114c565b5b602091828204019190066101000a81548160ff021916908315150217905550505050565b5f6210000082908060018154018082558091505060019003905f5260205f20015f909190919091509060026105b792919061079c565b5062100000805490509050919050565b806210000090805190602001906105df9291906106d6565b5050565b621000008054905081101561063b575b8062100000805490501115610636576210000080548061061657610615611179565b5b600190038181905f5260205f20015f61062f9190610832565b90556105f3565b61067e565b621000008054905081111561067d575b806210000080549050101561067c576210000060018160018154018082558091505003905f5260205f20505061064b565b5b5b50565b5080545f8255905f5260205f209081019061069c9190610838565b50565b50806210000001906106b1919061085b565b50565b6040518060400160405280600290602082028036833780820191505090505090565b828054828255905f5260205f2090810192821561071e579160200282015b8281111561071d5782518290600261070d92919061079c565b50916020019190600101906106f4565b5b50905061072b9190610838565b5090565b6040518060400160405280600290602082028036833780820191505090505090565b828054828255905f5260205f2090810192821561078b579160200282015b8281111561078a57825182559160200191906001019061076f565b5b509050610798919061085b565b5090565b826002601f01602090048101928215610821579160200282015f5b838211156107f357835183826101000a81548160ff02191690831515021790555092602001926001016020815f010492830192600103026107b7565b801561081f5782816101000a81549060ff02191690556001016020815f010492830192600103026107f3565b505b50905061082e919061085b565b5090565b505f9055565b5b80821115610857575f818161084e9190610832565b50600101610839565b5090565b5b80821115610872575f815f90555060010161085c565b5090565b5f604051905090565b5f5ffd5b5f5ffd5b5f5ffd5b5f5ffd5b5f601f19601f8301169050919050565b7f4e487b71000000000000000000000000000000000000000000000000000000005f52604160045260245ffd5b6108d58261088f565b810181811067ffffffffffffffff821117156108f4576108f361089f565b5b80604052505050565b5f610906610876565b905061091282826108cc565b919050565b5f67ffffffffffffffff8211156109315761093061089f565b5b61093a8261088f565b9050602081019050919050565b828183375f83830152505050565b5f61096761096284610917565b6108fd565b9050828152602081018484840111156109835761098261088b565b5b61098e848285610947565b509392505050565b5f82601f8301126109aa576109a9610887565b5b81356109ba848260208601610955565b91505092915050565b5f602082840312156109d8576109d761087f565b5b5f82013567ffffffffffffffff8111156109f5576109f4610883565b5b610a0184828501610996565b91505092915050565b5f819050919050565b610a1c81610a0a565b8114610a26575f5ffd5b50565b5f81359050610a3781610a13565b92915050565b5f60208284031215610a5257610a5161087f565b5b5f610a5f84828501610a29565b91505092915050565b5f81519050919050565b5f82825260208201905092915050565b8281835e5f83830152505050565b5f610a9a82610a68565b610aa48185610a72565b9350610ab4818560208601610a82565b610abd8161088f565b840191505092915050565b5f6020820190508181035f830152610ae08184610a90565b905092915050565b5f67ffffffffffffffff821115610b0257610b0161089f565b5b602082029050602081019050919050565b5f5ffd5b5f610b29610b2484610ae8565b6108fd565b90508083825260208201905060208402830185811115610b4c57610b4b610b13565b5b835b81811015610b755780610b618882610a29565b845260208401935050602081019050610b4e565b5050509392505050565b5f82601f830112610b9357610b92610887565b5b8135610ba3848260208601610b17565b91505092915050565b5f60208284031215610bc157610bc061087f565b5b5f82013567ffffffffffffffff811115610bde57610bdd610883565b5b610bea84828501610b7f565b91505092915050565b5f8115159050919050565b610c0781610bf3565b8114610c11575f5ffd5b50565b5f81359050610c2281610bfe565b92915050565b5f5f5f60608486031215610c3f57610c3e61087f565b5b5f610c4c86828701610a29565b9350506020610c5d86828701610c14565b9250506040610c6e86828701610c14565b9150509250925092565b5f67ffffffffffffffff821115610c9257610c9161089f565b5b602082029050919050565b5f610caf610caa84610c78565b6108fd565b90508060208402830185811115610cc957610cc8610b13565b5b835b81811015610cf25780610cde8882610c14565b845260208401935050602081019050610ccb565b5050509392505050565b5f82601f830112610d1057610d0f610887565b5b6002610d1d848285610c9d565b91505092915050565b5f60408284031215610d3b57610d3a61087f565b5b5f610d4884828501610cfc565b91505092915050565b610d5a81610a0a565b82525050565b5f602082019050610d735f830184610d51565b92915050565b5f67ffffffffffffffff821115610d9357610d9261089f565b5b602082029050602081019050919050565b5f610db6610db184610d79565b6108fd565b90508083825260208201905060408402830185811115610dd957610dd8610b13565b5b835b81811015610e025780610dee8882610cfc565b845260208401935050604081019050610ddb565b5050509392505050565b5f82601f830112610e2057610e1f610887565b5b8135610e30848260208601610da4565b91505092915050565b5f60208284031215610e4e57610e4d61087f565b5b5f82013567ffffffffffffffff811115610e6b57610e6a610883565b5b610e7784828501610e0c565b91505092915050565b7f4e487b71000000000000000000000000000000000000000000000000000000005f52602260045260245ffd5b5f6002820490506001821680610ec457607f821691505b602082108103610ed757610ed6610e80565b5b50919050565b5f819050815f5260205f209050919050565b5f6020601f8301049050919050565b5f82821b905092915050565b5f60088302610f397fffffffffffffffffffffffffffffffffffffffffffffffffffffffffffffffff82610efe565b610f438683610efe565b95508019841693508086168417925050509392505050565b5f819050919050565b5f610f7e610f79610f7484610a0a565b610f5b565b610a0a565b9050919050565b5f819050919050565b610f9783610f64565b610fab610fa382610f85565b848454610f0a565b825550505050565b5f5f905090565b610fc2610fb3565b610fcd818484610f8e565b505050565b5b81811015610ff057610fe55f82610fba565b600181019050610fd3565b5050565b601f8211156110355761100681610edd565b61100f84610eef565b8101602085101561101e578190505b61103261102a85610eef565b830182610fd2565b50505b505050565b5f82821c905092915050565b5f6110555f198460080261103a565b1980831691505092915050565b5f61106d8383611046565b9150826002028217905092915050565b61108682610a68565b67ffffffffffffffff81111561109f5761109e61089f565b5b6110a98254610ead565b6110b4828285610ff4565b5f60209050601f8311600181146110e5575f84156110d3578287015190505b6110dd8582611062565b865550611144565b601f1984166110f386610edd565b5f5b8281101561111a578489015182556001820191506020850194506020810190506110f5565b868310156111375784890151611133601f891682611046565b8355505b6001600288020188555050505b505050505050565b7f4e487b71000000000000000000000000000000000000000000000000000000005f52603260045260245ffd5b7f4e487b71000000000000000000000000000000000000000000000000000000005f52603160045260245ffdfea264697066735822122073d3cabed790196762a780f383fbf85c42acce40aa5729571434eb94ef9d212664736f6c634300081c0033",
			"opcodes": "PUSH1 0x80 PUSH1 0x40 MSTORE CALLVALUE DUP1 ISZERO PUSH1 0xE JUMPI PUSH0 PUSH0 REVERT JUMPDEST POP PUSH2 0x11DC DUP1 PUSH2 0x1C PUSH0 CODECOPY PUSH0 RETURN INVALID PUSH1 0x80 PUSH1 0x40 MSTORE CALLVALUE DUP1 ISZERO PUSH2 0xF JUMPI PUSH0 PUSH0 REVERT JUMPDEST POP PUSH1 0x4 CALLDATASIZE LT PUSH2 0x86 JUMPI PUSH0 CALLDATALOAD PUSH1 0xE0 SHR DUP1 PUSH4 0x7D7E5E3D GT PUSH2 0x59 JUMPI DUP1 PUSH4 0x7D7E5E3D EQ PUSH2 0xFC JUMPI DUP1 PUSH4 0xB9CCE72C EQ PUSH2 0x118 JUMPI DUP1 PUSH4 0xDEFF71B8 EQ PUSH2 0x148 JUMPI DUP1 PUSH4 0xF5933F66 EQ PUSH2 0x164 JUMPI PUSH2 0x86 JUMP JUMPDEST DUP1 PUSH4 0x31A56110 EQ PUSH2 0x8A JUMPI DUP1 PUSH4 0x52EFEA6E EQ PUSH2 0xA6 JUMPI DUP1 PUSH4 0x6D236703 EQ PUSH2 0xB0 JUMPI DUP1 PUSH4 0x7BC5BBBF EQ PUSH2 0xE0 JUMPI JUMPDEST PUSH0 PUSH0 REVERT JUMPDEST PUSH2 0xA4 PUSH1 0x4 DUP1 CALLDATASIZE SUB DUP2 ADD SWAP1 PUSH2 0x9F SWAP2 SWAP1 PUSH2 0x9C3 JUMP JUMPDEST PUSH2 0x180 JUMP JUMPDEST STOP JUMPDEST PUSH2 0xAE PUSH2 0x2DB JUMP JUMPDEST STOP JUMPDEST PUSH2 0xCA PUSH1 0x4 DUP1 CALLDATASIZE SUB DUP2 ADD SWAP1 PUSH2 0xC5 SWAP2 SWAP1 PUSH2 0xA3D JUMP JUMPDEST PUSH2 0x364 JUMP JUMPDEST PUSH1 0x40 MLOAD PUSH2 0xD7 SWAP2 SWAP1 PUSH2 0xAC8 JUMP JUMPDEST PUSH1 0x40 MLOAD DUP1 SWAP2 SUB SWAP1 RETURN JUMPDEST PUSH2 0xFA PUSH1 0x4 DUP1 CALLDATASIZE SUB DUP2 ADD SWAP1 PUSH2 0xF5 SWAP2 SWAP1 PUSH2 0xBAC JUMP JUMPDEST PUSH2 0x4AE JUMP JUMPDEST STOP JUMPDEST PUSH2 0x116 PUSH1 0x4 DUP1 CALLDATASIZE SUB DUP2 ADD SWAP1 PUSH2 0x111 SWAP2 SWAP1 PUSH2 0xC28 JUMP JUMPDEST PUSH2 0x4DB JUMP JUMPDEST STOP JUMPDEST PUSH2 0x132 PUSH1 0x4 DUP1 CALLDATASIZE SUB DUP2 ADD SWAP1 PUSH2 0x12D SWAP2 SWAP1 PUSH2 0xD26 JUMP JUMPDEST PUSH2 0x581 JUMP JUMPDEST PUSH1 0x40 MLOAD PUSH2 0x13F SWAP2 SWAP1 PUSH2 0xD60 JUMP JUMPDEST PUSH1 0x40 MLOAD DUP1 SWAP2 SUB SWAP1 RETURN JUMPDEST PUSH2 0x162 PUSH1 0x4 DUP1 CALLDATASIZE SUB DUP2 ADD SWAP1 PUSH2 0x15D SWAP2 SWAP1 PUSH2 0xE39 JUMP JUMPDEST PUSH2 0x5C7 JUMP JUMPDEST STOP JUMPDEST PUSH2 0x17E PUSH1 0x4 DUP1 CALLDATASIZE SUB DUP2 ADD SWAP1 PUSH2 0x179 SWAP2 SWAP1 PUSH2 0xA3D JUMP JUMPDEST PUSH2 0x5E3 JUMP JUMPDEST STOP JUMPDEST DUP1 PUSH3 0x100003 SWAP1 DUP2 PUSH2 0x191 SWAP2 SWAP1 PUSH2 0x107D JUMP JUMPDEST POP PUSH0 PUSH0 SWAP1 POP JUMPDEST PUSH1 0x7 DUP2 LT ISZERO PUSH2 0x20F JUMPI PUSH3 0x100003 PUSH1 0x1 DUP2 DUP1 SLOAD DUP1 PUSH2 0x1B3 SWAP1 PUSH2 0xEAD JUMP JUMPDEST DUP1 PUSH1 0x1F DUP2 SUB PUSH2 0x1D0 JUMPI DUP4 PUSH0 MSTORE PUSH1 0x20 PUSH0 KECCAK256 PUSH1 0xFF NOT DUP5 AND DUP2 SSTORE PUSH1 0x3F SWAP4 POP POP JUMPDEST POP PUSH1 0x2 DUP3 ADD DUP4 SSTORE PUSH1 0x1 DUP2 ADD SWAP3 POP POP POP SUB DUP2 SLOAD PUSH1 0x1 AND ISZERO PUSH2 0x1FD JUMPI SWAP1 PUSH0 MSTORE PUSH1 0x20 PUSH0 KECCAK256 SWAP1 PUSH1 0x20 SWAP2 DUP3 DUP3 DIV ADD SWAP2 SWAP1 MOD JUMPDEST SWAP1 SLOAD SWAP1 POP POP DUP1 DUP1 PUSH1 0x1 ADD SWAP2 POP POP PUSH2 0x197 JUMP JUMPDEST POP PUSH1 0x8 PUSH1 0xF8 SHL PUSH3 0x100003 PUSH1 0x3 DUP2 SLOAD PUSH2 0x226 SWAP1 PUSH2 0xEAD JUMP JUMPDEST DUP2 LT PUSH2 0x235 JUMPI PUSH2 0x234 PUSH2 0x114C JUMP JUMPDEST JUMPDEST DUP2 SLOAD PUSH1 0x1 AND ISZERO PUSH2 0x252 JUMPI SWAP1 PUSH0 MSTORE PUSH1 0x20 PUSH0 KECCAK256 SWAP1 PUSH1 0x20 SWAP2 DUP3 DUP3 DIV ADD SWAP2 SWAP1 MOD JUMPDEST PUSH1 0x1F SUB PUSH2 0x100 EXP DUP2 SLOAD DUP2 PUSH1 0xFF MUL NOT AND SWAP1 PUSH32 0x100000000000000000000000000000000000000000000000000000000000000 DUP5 DIV MUL OR SWAP1 SSTORE POP PUSH3 0x100003 PUSH1 0x2 DUP2 SLOAD PUSH2 0x29B SWAP1 PUSH2 0xEAD JUMP JUMPDEST DUP2 LT PUSH2 0x2AA JUMPI PUSH2 0x2A9 PUSH2 0x114C JUMP JUMPDEST JUMPDEST DUP2 SLOAD PUSH1 0x1 AND ISZERO PUSH2 0x2C7 JUMPI SWAP1 PUSH0 MSTORE PUSH1 0x20 PUSH0 KECCAK256 SWAP1 PUSH1 0x20 SWAP2 DUP3 DUP3 DIV ADD SWAP2 SWAP1 MOD JUMPDEST PUSH1 0x1F SUB PUSH2 0x100 EXP DUP2 SLOAD SWAP1 PUSH1 0xFF MUL NOT AND SWAP1 SSTORE POP JUMP JUMPDEST PUSH3 0x100000 PUSH0 PUSH2 0x2EA SWAP2 SWAP1 PUSH2 0x681 JUMP JUMPDEST PUSH0 PUSH0 PUSH2 0x2F6 SWAP2 SWAP1 PUSH2 0x69F JUMP JUMPDEST PUSH0 PUSH8 0xFFFFFFFFFFFFFFFF DUP2 GT ISZERO PUSH2 0x310 JUMPI PUSH2 0x30F PUSH2 0x89F JUMP JUMPDEST JUMPDEST PUSH1 0x40 MLOAD SWAP1 DUP1 DUP3 MSTORE DUP1 PUSH1 0x20 MUL PUSH1 0x20 ADD DUP3 ADD PUSH1 0x40 MSTORE DUP1 ISZERO PUSH2 0x349 JUMPI DUP2 PUSH1 0x20 ADD JUMPDEST PUSH2 0x336 PUSH2 0x6B4 JUMP JUMPDEST DUP2 MSTORE PUSH1 0x20 ADD SWAP1 PUSH1 0x1 SWAP1 SUB SWAP1 DUP2 PUSH2 0x32E JUMPI SWAP1 POP JUMPDEST POP PUSH3 0x100000 SWAP1 DUP1 MLOAD SWAP1 PUSH1 0x20 ADD SWAP1 PUSH2 0x361 SWAP3 SWAP2 SWAP1 PUSH2 0x6D6 JUMP JUMPDEST POP JUMP JUMPDEST PUSH1 0x60 PUSH0 DUP3 PUSH8 0xFFFFFFFFFFFFFFFF DUP2 GT ISZERO PUSH2 0x381 JUMPI PUSH2 0x380 PUSH2 0x89F JUMP JUMPDEST JUMPDEST PUSH1 0x40 MLOAD SWAP1 DUP1 DUP3 MSTORE DUP1 PUSH1 0x20 MUL PUSH1 0x20 ADD DUP3 ADD PUSH1 0x40 MSTORE DUP1 ISZERO PUSH2 0x3BA JUMPI DUP2 PUSH1 0x20 ADD JUMPDEST PUSH2 0x3A7 PUSH2 0x72F JUMP JUMPDEST DUP2 MSTORE PUSH1 0x20 ADD SWAP1 PUSH1 0x1 SWAP1 SUB SWAP1 DUP2 PUSH2 0x39F JUMPI SWAP1 POP JUMPDEST POP SWAP1 POP PUSH1 0x40 MLOAD DUP1 PUSH1 0x40 ADD PUSH1 0x40 MSTORE DUP1 PUSH1 0x1 DUP2 MSTORE PUSH1 0x20 ADD PUSH1 0x2 DUP2 MSTORE POP DUP2 PUSH0 DUP2 MLOAD DUP2 LT PUSH2 0x3E7 JUMPI PUSH2 0x3E6 PUSH2 0x114C JUMP JUMPDEST JUMPDEST PUSH1 0x20 MUL PUSH1 0x20 ADD ADD DUP2 SWAP1 MSTORE POP PUSH0 PUSH1 0xC8 PUSH8 0xFFFFFFFFFFFFFFFF DUP2 GT ISZERO PUSH2 0x40E JUMPI PUSH2 0x40D PUSH2 0x89F JUMP JUMPDEST JUMPDEST PUSH1 0x40 MLOAD SWAP1 DUP1 DUP3 MSTORE DUP1 PUSH1 0x1F ADD PUSH1 0x1F NOT AND PUSH1 0x20 ADD DUP3 ADD PUSH1 0x40 MSTORE DUP1 ISZERO PUSH2 0x440 JUMPI DUP2 PUSH1 0x20 ADD PUSH1 0x1 DUP3 MUL DUP1 CALLDATASIZE DUP4 CALLDATACOPY DUP1 DUP3 ADD SWAP2 POP POP SWAP1 POP JUMPDEST POP SWAP1 POP PUSH0 PUSH0 SWAP1 POP JUMPDEST DUP2 MLOAD DUP2 LT ISZERO PUSH2 0x4A3 JUMPI DUP1 PUSH1 0xF8 SHL DUP3 DUP3 DUP2 MLOAD DUP2 LT PUSH2 0x468 JUMPI PUSH2 0x467 PUSH2 0x114C JUMP JUMPDEST JUMPDEST PUSH1 0x20 ADD ADD SWAP1 PUSH31 0xFFFFFFFFFFFFFFFFFFFFFFFFFFFFFFFFFFFFFFFFFFFFFFFFFFFFFFFFFFFFFF NOT AND SWAP1 DUP2 PUSH0 BYTE SWAP1 MSTORE8 POP DUP1 DUP1 PUSH1 0x1 ADD SWAP2 POP POP PUSH2 0x448 JUMP JUMPDEST POP DUP1 SWAP3 POP POP POP SWAP2 SWAP1 POP JUMP JUMPDEST PUSH0 PUSH3 0x100001 SWAP1 POP PUSH1 0x2 DUP2 PUSH1 0x1 ADD DUP2 SWAP1 SSTORE POP DUP2 DUP2 PUSH0 ADD SWAP1 DUP1 MLOAD SWAP1 PUSH1 0x20 ADD SWAP1 PUSH2 0x4D6 SWAP3 SWAP2 SWAP1 PUSH2 0x751 JUMP JUMPDEST POP POP POP JUMP JUMPDEST DUP2 PUSH3 0x100000 DUP5 DUP2 SLOAD DUP2 LT PUSH2 0x4F2 JUMPI PUSH2 0x4F1 PUSH2 0x114C JUMP JUMPDEST JUMPDEST SWAP1 PUSH0 MSTORE PUSH1 0x20 PUSH0 KECCAK256 ADD PUSH0 PUSH1 0x2 DUP2 LT PUSH2 0x50C JUMPI PUSH2 0x50B PUSH2 0x114C JUMP JUMPDEST JUMPDEST PUSH1 0x20 SWAP2 DUP3 DUP3 DIV ADD SWAP2 SWAP1 MOD PUSH2 0x100 EXP DUP2 SLOAD DUP2 PUSH1 0xFF MUL NOT AND SWAP1 DUP4 ISZERO ISZERO MUL OR SWAP1 SSTORE POP DUP1 PUSH3 0x100000 DUP5 DUP2 SLOAD DUP2 LT PUSH2 0x542 JUMPI PUSH2 0x541 PUSH2 0x114C JUMP JUMPDEST JUMPDEST SWAP1 PUSH0 MSTORE PUSH1 0x20 PUSH0 KECCAK256 ADD PUSH1 0x1 PUSH1 0x2 DUP2 LT PUSH2 0x55D JUMPI PUSH2 0x55C PUSH2 0x114C JUMP JUMPDEST JUMPDEST PUSH1 0x20 SWAP2 DUP3 DUP3 DIV ADD SWAP2 SWAP1 MOD PUSH2 0x100 EXP DUP2 SLOAD DUP2 PUSH1 0xFF MUL NOT AND SWAP1 DUP4 ISZERO ISZERO MUL OR SWAP1 SSTORE POP POP POP POP JUMP JUMPDEST PUSH0 PUSH3 0x100000 DUP3 SWAP1 DUP1 PUSH1 0x1 DUP2 SLOAD ADD DUP1 DUP3 SSTORE DUP1 SWAP2 POP POP PUSH1 0x1 SWAP1 SUB SWAP1 PUSH0 MSTORE PUSH1 0x20 PUSH0 KECCAK256 ADD PUSH0 SWAP1 SWAP2 SWAP1 SWAP2 SWAP1 SWAP2 POP SWAP1 PUSH1 0x2 PUSH2 0x5B7 SWAP3 SWAP2 SWAP1 PUSH2 0x79C JUMP JUMPDEST POP PUSH3 0x100000 DUP1 SLOAD SWAP1 POP SWAP1 POP SWAP2 SWAP1 POP JUMP JUMPDEST DUP1 PUSH3 0x100000 SWAP1 DUP1 MLOAD SWAP1 PUSH1 0x20 ADD SWAP1 PUSH2 0x5DF SWAP3 SWAP2 SWAP1 PUSH2 0x6D6 JUMP JUMPDEST POP POP JUMP JUMPDEST PUSH3 0x100000 DUP1 SLOAD SWAP1 POP DUP2 LT ISZERO PUSH2 0x63B JUMPI JUMPDEST DUP1 PUSH3 0x100000 DUP1 SLOAD SWAP1 POP GT ISZERO PUSH2 0x636 JUMPI PUSH3 0x100000 DUP1 SLOAD DUP1 PUSH2 0x616 JUMPI PUSH2 0x615 PUSH2 0x1179 JUMP JUMPDEST JUMPDEST PUSH1 0x1 SWAP1 SUB DUP2 DUP2 SWAP1 PUSH0 MSTORE PUSH1 0x20 PUSH0 KECCAK256 ADD PUSH0 PUSH2 0x62F SWAP2 SWAP1 PUSH2 0x832 JUMP JUMPDEST SWAP1 SSTORE PUSH2 0x5F3 JUMP JUMPDEST PUSH2 0x67E JUMP JUMPDEST PUSH3 0x100000 DUP1 SLOAD SWAP1 POP DUP2 GT ISZERO PUSH2 0x67D JUMPI JUMPDEST DUP1 PUSH3 0x100000 DUP1 SLOAD SWAP1 POP LT ISZERO PUSH2 0x67C JUMPI PUSH3 0x100000 PUSH1 0x1 DUP2 PUSH1 0x1 DUP2 SLOAD ADD DUP1 DUP3 SSTORE DUP1 SWAP2 POP POP SUB SWAP1 PUSH0 MSTORE PUSH1 0x20 PUSH0 KECCAK256 POP POP PUSH2 0x64B JUMP JUMPDEST JUMPDEST JUMPDEST POP JUMP JUMPDEST POP DUP1 SLOAD PUSH0 DUP3 SSTORE SWAP1 PUSH0 MSTORE PUSH1 0x20 PUSH0 KECCAK256 SWAP1 DUP2 ADD SWAP1 PUSH2 0x69C SWAP2 SWAP1 PUSH2 0x838 JUMP JUMPDEST POP JUMP JUMPDEST POP DUP1 PUSH3 0x100000 ADD SWAP1 PUSH2 0x6B1 SWAP2 SWAP1 PUSH2 0x85B JUMP JUMPDEST POP JUMP JUMPDEST PUSH1 0x40 MLOAD DUP1 PUSH1 0x40 ADD PUSH1 0x40 MSTORE DUP1 PUSH1 0x2 SWAP1 PUSH1 0x20 DUP3 MUL DUP1 CALLDATASIZE DUP4 CALLDATACOPY DUP1 DUP3 ADD SWAP2 POP POP SWAP1 POP POP SWAP1 JUMP JUMPDEST DUP3 DUP1 SLOAD DUP3 DUP3 SSTORE SWAP1 PUSH0 MSTORE PUSH1 0x20 PUSH0 KECCAK256 SWAP1 DUP2 ADD SWAP3 DUP3 ISZERO PUSH2 0x71E JUMPI SWAP2 PUSH1 0x20 MUL DUP3 ADD JUMPDEST DUP3 DUP2 GT ISZERO PUSH2 0x71D JUMPI DUP3 MLOAD DUP3 SWAP1 PUSH1 0x2 PUSH2 0x70D SWAP3 SWAP2 SWAP1 PUSH2 0x79C JUMP JUMPDEST POP SWAP2 PUSH1 0x20 ADD SWAP2 SWAP1 PUSH1 0x1 ADD SWAP1 PUSH2 0x6F4 JUMP JUMPDEST JUMPDEST POP SWAP1 POP PUSH2 0x72B SWAP2 SWAP1 PUSH2 0x838 JUMP JUMPDEST POP SWAP1 JUMP JUMPDEST PUSH1 0x40 MLOAD DUP1 PUSH1 0x40 ADD PUSH1 0x40 MSTORE DUP1 PUSH1 0x2 SWAP1 PUSH1 0x20 DUP3 MUL DUP1 CALLDATASIZE DUP4 CALLDATACOPY DUP1 DUP3 ADD SWAP2 POP POP SWAP1 POP POP SWAP1 JUMP JUMPDEST DUP3 DUP1 SLOAD DUP3 DUP3 SSTORE SWAP1 PUSH0 MSTORE PUSH1 0x20 PUSH0 KECCAK256 SWAP1 DUP2 ADD SWAP3 DUP3 ISZERO PUSH2 0x78B JUMPI SWAP2 PUSH1 0x20 MUL DUP3 ADD JUMPDEST DUP3 DUP2 GT ISZERO PUSH2 0x78A JUMPI DUP3 MLOAD DUP3 SSTORE SWAP2 PUSH1 0x20 ADD SWAP2 SWAP1 PUSH1 0x1 ADD SWAP1 PUSH2 0x76F JUMP JUMPDEST JUMPDEST POP SWAP1 POP PUSH2 0x798 SWAP2 SWAP1 PUSH2 0x85B JUMP JUMPDEST POP SWAP1 JUMP JUMPDEST DUP3 PUSH1 0x2 PUSH1 0x1F ADD PUSH1 0x20 SWAP1 DIV DUP2 ADD SWAP3 DUP3 ISZERO PUSH2 0x821 JUMPI SWAP2 PUSH1 0x20 MUL DUP3 ADD PUSH0 JUMPDEST DUP4 DUP3 GT ISZERO PUSH2 0x7F3 JUMPI DUP4 MLOAD DUP4 DUP3 PUSH2 0x100 EXP DUP2 SLOAD DUP2 PUSH1 0xFF MUL NOT AND SWAP1 DUP4 ISZERO ISZERO MUL OR SWAP1 SSTORE POP SWAP3 PUSH1 0x20 ADD SWAP3 PUSH1 0x1 ADD PUSH1 0x20 DUP2 PUSH0 ADD DIV SWAP3 DUP4 ADD SWAP3 PUSH1 0x1 SUB MUL PUSH2 0x7B7 JUMP JUMPDEST DUP1 ISZERO PUSH2 0x81F JUMPI DUP3 DUP2 PUSH2 0x100 EXP DUP2 SLOAD SWAP1 PUSH1 0xFF MUL NOT AND SWAP1 SSTORE PUSH1 0x1 ADD PUSH1 0x20 DUP2 PUSH0 ADD DIV SWAP3 DUP4 ADD SWAP3 PUSH1 0x1 SUB MUL PUSH2 0x7F3 JUMP JUMPDEST POP JUMPDEST POP SWAP1 POP PUSH2 0x82E SWAP2 SWAP1 PUSH2 0x85B JUMP JUMPDEST POP SWAP1 JUMP JUMPDEST POP PUSH0 SWAP1 SSTORE JUMP JUMPDEST JUMPDEST DUP1 DUP3 GT ISZERO PUSH2 0x857 JUMPI PUSH0 DUP2 DUP2 PUSH2 0x84E SWAP2 SWAP1 PUSH2 0x832 JUMP JUMPDEST POP PUSH1 0x1 ADD PUSH2 0x839 JUMP JUMPDEST POP SWAP1 JUMP JUMPDEST JUMPDEST DUP1 DUP3 GT ISZERO PUSH2 0x872 JUMPI PUSH0 DUP2 PUSH0 SWAP1 SSTORE POP PUSH1 0x1 ADD PUSH2 0x85C JUMP JUMPDEST POP SWAP1 JUMP JUMPDEST PUSH0 PUSH1 0x40 MLOAD SWAP1 POP SWAP1 JUMP JUMPDEST PUSH0 PUSH0 REVERT JUMPDEST PUSH0 PUSH0 REVERT JUMPDEST PUSH0 PUSH0 REVERT JUMPDEST PUSH0 PUSH0 REVERT JUMPDEST PUSH0 PUSH1 0x1F NOT PUSH1 0x1F DUP4 ADD AND SWAP1 POP SWAP2 SWAP1 POP JUMP JUMPDEST PUSH32 0x4E487B7100000000000000000000000000000000000000000000000000000000 PUSH0 MSTORE PUSH1 0x41 PUSH1 0x4 MSTORE PUSH1 0x24 PUSH0 REVERT JUMPDEST PUSH2 0x8D5 DUP3 PUSH2 0x88F JUMP JUMPDEST DUP2 ADD DUP2 DUP2 LT PUSH8 0xFFFFFFFFFFFFFFFF DUP3 GT OR ISZERO PUSH2 0x8F4 JUMPI PUSH2 0x8F3 PUSH2 0x89F JUMP JUMPDEST JUMPDEST DUP1 PUSH1 0x40 MSTORE POP POP POP JUMP JUMPDEST PUSH0 PUSH2 0x906 PUSH2 0x876 JUMP JUMPDEST SWAP1 POP PUSH2 0x912 DUP3 DUP3 PUSH2 0x8CC JUMP JUMPDEST SWAP2 SWAP1 POP JUMP JUMPDEST PUSH0 PUSH8 0xFFFFFFFFFFFFFFFF DUP3 GT ISZERO PUSH2 0x931 JUMPI PUSH2 0x930 PUSH2 0x89F JUMP JUMPDEST JUMPDEST PUSH2 0x93A DUP3 PUSH2 0x88F JUMP JUMPDEST SWAP1 POP PUSH1 0x20 DUP2 ADD SWAP1 POP SWAP2 SWAP1 POP JUMP JUMPDEST DUP3 DUP2 DUP4 CALLDATACOPY PUSH0 DUP4 DUP4 ADD MSTORE POP POP POP JUMP JUMPDEST PUSH0 PUSH2 0x967 PUSH2 0x962 DUP5 PUSH2 0x917 JUMP JUMPDEST PUSH2 0x8FD JUMP JUMPDEST SWAP1 POP DUP3 DUP2 MSTORE PUSH1 0x20 DUP2 ADD DUP5 DUP5 DUP5 ADD GT ISZERO PUSH2 0x983 JUMPI PUSH2 0x982 PUSH2 0x88B JUMP JUMPDEST JUMPDEST PUSH2 0x98E DUP5 DUP3 DUP6 PUSH2 0x947 JUMP JUMPDEST POP SWAP4 SWAP3 POP POP POP JUMP JUMPDEST PUSH0 DUP3 PUSH1 0x1F DUP4 ADD SLT PUSH2 0x9AA JUMPI PUSH2 0x9A9 PUSH2 0x887 JUMP JUMPDEST JUMPDEST DUP2 CALLDATALOAD PUSH2 0x9BA DUP5 DUP3 PUSH1 0x20 DUP7 ADD PUSH2 0x955 JUMP JUMPDEST SWAP2 POP POP SWAP3 SWAP2 POP POP JUMP JUMPDEST PUSH0 PUSH1 0x20 DUP3 DUP5 SUB SLT ISZERO PUSH2 0x9D8 JUMPI PUSH2 0x9D7 PUSH2 0x87F JUMP JUMPDEST JUMPDEST PUSH0 DUP3 ADD CALLDATALOAD PUSH8 0xFFFFFFFFFFFFFFFF DUP2 GT ISZERO PUSH2 0x9F5 JUMPI PUSH2 0x9F4 PUSH2 0x883 JUMP JUMPDEST JUMPDEST PUSH2 0xA01 DUP5 DUP3 DUP6 ADD PUSH2 0x996 JUMP JUMPDEST SWAP2 POP POP SWAP3 SWAP2 POP POP JUMP JUMPDEST PUSH0 DUP2 SWAP1 POP SWAP2 SWAP1 POP JUMP JUMPDEST PUSH2 0xA1C DUP2 PUSH2 0xA0A JUMP JUMPDEST DUP2 EQ PUSH2 0xA26 JUMPI PUSH0 PUSH0 REVERT JUMPDEST POP JUMP JUMPDEST PUSH0 DUP2 CALLDATALOAD SWAP1 POP PUSH2 0xA37 DUP2 PUSH2 0xA13 JUMP JUMPDEST SWAP3 SWAP2 POP POP JUMP JUMPDEST PUSH0 PUSH1 0x20 DUP3 DUP5 SUB SLT ISZERO PUSH2 0xA52 JUMPI PUSH2 0xA51 PUSH2 0x87F JUMP JUMPDEST JUMPDEST PUSH0 PUSH2 0xA5F DUP5 DUP3 DUP6 ADD PUSH2 0xA29 JUMP JUMPDEST SWAP2 POP POP SWAP3 SWAP2 POP POP JUMP JUMPDEST PUSH0 DUP2 MLOAD SWAP1 POP SWAP2 SWAP1 POP JUMP JUMPDEST PUSH0 DUP3 DUP3 MSTORE PUSH1 0x20 DUP3 ADD SWAP1 POP SWAP3 SWAP2 POP POP JUMP JUMPDEST DUP3 DUP2 DUP4 MCOPY PUSH0 DUP4 DUP4 ADD MSTORE POP POP POP JUMP JUMPDEST PUSH0 PUSH2 0xA9A DUP3 PUSH2 0xA68 JUMP JUMPDEST PUSH2 0xAA4 DUP2 DUP6 PUSH2 0xA72 JUMP JUMPDEST SWAP4 POP PUSH2 0xAB4 DUP2 DUP6 PUSH1 0x20 DUP7 ADD PUSH2 0xA82 JUMP JUMPDEST PUSH2 0xABD DUP2 PUSH2 0x88F JUMP JUMPDEST DUP5 ADD SWAP2 POP POP SWAP3 SWAP2 POP POP JUMP JUMPDEST PUSH0 PUSH1 0x20 DUP3 ADD SWAP1 POP DUP2 DUP2 SUB PUSH0 DUP4 ADD MSTORE PUSH2 0xAE0 DUP2 DUP5 PUSH2 0xA90 JUMP JUMPDEST SWAP1 POP SWAP3 SWAP2 POP POP JUMP JUMPDEST PUSH0 PUSH8 0xFFFFFFFFFFFFFFFF DUP3 GT ISZERO PUSH2 0xB02 JUMPI PUSH2 0xB01 PUSH2 0x89F JUMP JUMPDEST JUMPDEST PUSH1 0x20 DUP3 MUL SWAP1 POP PUSH1 0x20 DUP2 ADD SWAP1 POP SWAP2 SWAP1 POP JUMP JUMPDEST PUSH0 PUSH0 REVERT JUMPDEST PUSH0 PUSH2 0xB29 PUSH2 0xB24 DUP5 PUSH2 0xAE8 JUMP JUMPDEST PUSH2 0x8FD JUMP JUMPDEST SWAP1 POP DUP1 DUP4 DUP3 MSTORE PUSH1 0x20 DUP3 ADD SWAP1 POP PUSH1 0x20 DUP5 MUL DUP4 ADD DUP6 DUP2 GT ISZERO PUSH2 0xB4C JUMPI PUSH2 0xB4B PUSH2 0xB13 JUMP JUMPDEST JUMPDEST DUP4 JUMPDEST DUP2 DUP2 LT ISZERO PUSH2 0xB75 JUMPI DUP1 PUSH2 0xB61 DUP9 DUP3 PUSH2 0xA29 JUMP JUMPDEST DUP5 MSTORE PUSH1 0x20 DUP5 ADD SWAP4 POP POP PUSH1 0x20 DUP2 ADD SWAP1 POP PUSH2 0xB4E JUMP JUMPDEST POP POP POP SWAP4 SWAP3 POP POP POP JUMP JUMPDEST PUSH0 DUP3 PUSH1 0x1F DUP4 ADD SLT PUSH2 0xB93 JUMPI PUSH2 0xB92 PUSH2 0x887 JUMP JUMPDEST JUMPDEST DUP2 CALLDATALOAD PUSH2 0xBA3 DUP5 DUP3 PUSH1 0x20 DUP7 ADD PUSH2 0xB17 JUMP JUMPDEST SWAP2 POP POP SWAP3 SWAP2 POP POP JUMP JUMPDEST PUSH0 PUSH1 0x20 DUP3 DUP5 SUB SLT ISZERO PUSH2 0xBC1 JUMPI PUSH2 0xBC0 PUSH2 0x87F JUMP JUMPDEST JUMPDEST PUSH0 DUP3 ADD CALLDATALOAD PUSH8 0xFFFFFFFFFFFFFFFF DUP2 GT ISZERO PUSH2 0xBDE JUMPI PUSH2 0xBDD PUSH2 0x883 JUMP JUMPDEST JUMPDEST PUSH2 0xBEA DUP5 DUP3 DUP6 ADD PUSH2 0xB7F JUMP JUMPDEST SWAP2 POP POP SWAP3 SWAP2 POP POP JUMP JUMPDEST PUSH0 DUP2 ISZERO ISZERO SWAP1 POP SWAP2 SWAP1 POP JUMP JUMPDEST PUSH2 0xC07 DUP2 PUSH2 0xBF3 JUMP JUMPDEST DUP2 EQ PUSH2 0xC11 JUMPI PUSH0 PUSH0 REVERT JUMPDEST POP JUMP JUMPDEST PUSH0 DUP2 CALLDATALOAD SWAP1 POP PUSH2 0xC22 DUP2 PUSH2 0xBFE JUMP JUMPDEST SWAP3 SWAP2 POP POP JUMP JUMPDEST PUSH0 PUSH0 PUSH0 PUSH1 0x60 DUP5 DUP7 SUB SLT ISZERO PUSH2 0xC3F JUMPI PUSH2 0xC3E PUSH2 0x87F JUMP JUMPDEST JUMPDEST PUSH0 PUSH2 0xC4C DUP7 DUP3 DUP8 ADD PUSH2 0xA29 JUMP JUMPDEST SWAP4 POP POP PUSH1 0x20 PUSH2 0xC5D DUP7 DUP3 DUP8 ADD PUSH2 0xC14 JUMP JUMPDEST SWAP3 POP POP PUSH1 0x40 PUSH2 0xC6E DUP7 DUP3 DUP8 ADD PUSH2 0xC14 JUMP JUMPDEST SWAP2 POP POP SWAP3 POP SWAP3 POP SWAP3 JUMP JUMPDEST PUSH0 PUSH8 0xFFFFFFFFFFFFFFFF DUP3 GT ISZERO PUSH2 0xC92 JUMPI PUSH2 0xC91 PUSH2 0x89F JUMP JUMPDEST JUMPDEST PUSH1 0x20 DUP3 MUL SWAP1 POP SWAP2 SWAP1 POP JUMP JUMPDEST PUSH0 PUSH2 0xCAF PUSH2 0xCAA DUP5 PUSH2 0xC78 JUMP JUMPDEST PUSH2 0x8FD JUMP JUMPDEST SWAP1 POP DUP1 PUSH1 0x20 DUP5 MUL DUP4 ADD DUP6 DUP2 GT ISZERO PUSH2 0xCC9 JUMPI PUSH2 0xCC8 PUSH2 0xB13 JUMP JUMPDEST JUMPDEST DUP4 JUMPDEST DUP2 DUP2 LT ISZERO PUSH2 0xCF2 JUMPI DUP1 PUSH2 0xCDE DUP9 DUP3 PUSH2 0xC14 JUMP JUMPDEST DUP5 MSTORE PUSH1 0x20 DUP5 ADD SWAP4 POP POP PUSH1 0x20 DUP2 ADD SWAP1 POP PUSH2 0xCCB JUMP JUMPDEST POP POP POP SWAP4 SWAP3 POP POP POP JUMP JUMPDEST PUSH0 DUP3 PUSH1 0x1F DUP4 ADD SLT PUSH2 0xD10 JUMPI PUSH2 0xD0F PUSH2 0x887 JUMP JUMPDEST JUMPDEST PUSH1 0x2 PUSH2 0xD1D DUP5 DUP3 DUP6 PUSH2 0xC9D JUMP JUMPDEST SWAP2 POP POP SWAP3 SWAP2 POP POP JUMP JUMPDEST PUSH0 PUSH1 0x40 DUP3 DUP5 SUB SLT ISZERO PUSH2 0xD3B JUMPI PUSH2 0xD3A PUSH2 0x87F JUMP JUMPDEST JUMPDEST PUSH0 PUSH2 0xD48 DUP5 DUP3 DUP6 ADD PUSH2 0xCFC JUMP JUMPDEST SWAP2 POP POP SWAP3 SWAP2 POP POP JUMP JUMPDEST PUSH2 0xD5A DUP2 PUSH2 0xA0A JUMP JUMPDEST DUP3 MSTORE POP POP JUMP JUMPDEST PUSH0 PUSH1 0x20 DUP3 ADD SWAP1 POP PUSH2 0xD73 PUSH0 DUP4 ADD DUP5 PUSH2 0xD51 JUMP JUMPDEST SWAP3 SWAP2 POP POP JUMP JUMPDEST PUSH0 PUSH8 0xFFFFFFFFFFFFFFFF DUP3 GT ISZERO PUSH2 0xD93 JUMPI PUSH2 0xD92 PUSH2 0x89F JUMP JUMPDEST JUMPDEST PUSH1 0x20 DUP3 MUL SWAP1 POP PUSH1 0x20 DUP2 ADD SWAP1 POP SWAP2 SWAP1 POP JUMP JUMPDEST PUSH0 PUSH2 0xDB6 PUSH2 0xDB1 DUP5 PUSH2 0xD79 JUMP JUMPDEST PUSH2 0x8FD JUMP JUMPDEST SWAP1 POP DUP1 DUP4 DUP3 MSTORE PUSH1 0x20 DUP3 ADD SWAP1 POP PUSH1 0x40 DUP5 MUL DUP4 ADD DUP6 DUP2 GT ISZERO PUSH2 0xDD9 JUMPI PUSH2 0xDD8 PUSH2 0xB13 JUMP JUMPDEST JUMPDEST DUP4 JUMPDEST DUP2 DUP2 LT ISZERO PUSH2 0xE02 JUMPI DUP1 PUSH2 0xDEE DUP9 DUP3 PUSH2 0xCFC JUMP JUMPDEST DUP5 MSTORE PUSH1 0x20 DUP5 ADD SWAP4 POP POP PUSH1 0x40 DUP2 ADD SWAP1 POP PUSH2 0xDDB JUMP JUMPDEST POP POP POP SWAP4 SWAP3 POP POP POP JUMP JUMPDEST PUSH0 DUP3 PUSH1 0x1F DUP4 ADD SLT PUSH2 0xE20 JUMPI PUSH2 0xE1F PUSH2 0x887 JUMP JUMPDEST JUMPDEST DUP2 CALLDATALOAD PUSH2 0xE30 DUP5 DUP3 PUSH1 0x20 DUP7 ADD PUSH2 0xDA4 JUMP JUMPDEST SWAP2 POP POP SWAP3 SWAP2 POP POP JUMP JUMPDEST PUSH0 PUSH1 0x20 DUP3 DUP5 SUB SLT ISZERO PUSH2 0xE4E JUMPI PUSH2 0xE4D PUSH2 0x87F JUMP JUMPDEST JUMPDEST PUSH0 DUP3 ADD CALLDATALOAD PUSH8 0xFFFFFFFFFFFFFFFF DUP2 GT ISZERO PUSH2 0xE6B JUMPI PUSH2 0xE6A PUSH2 0x883 JUMP JUMPDEST JUMPDEST PUSH2 0xE77 DUP5 DUP3 DUP6 ADD PUSH2 0xE0C JUMP JUMPDEST SWAP2 POP POP SWAP3 SWAP2 POP POP JUMP JUMPDEST PUSH32 0x4E487B7100000000000000000000000000000000000000000000000000000000 PUSH0 MSTORE PUSH1 0x22 PUSH1 0x4 MSTORE PUSH1 0x24 PUSH0 REVERT JUMPDEST PUSH0 PUSH1 0x2 DUP3 DIV SWAP1 POP PUSH1 0x1 DUP3 AND DUP1 PUSH2 0xEC4 JUMPI PUSH1 0x7F DUP3 AND SWAP2 POP JUMPDEST PUSH1 0x20 DUP3 LT DUP2 SUB PUSH2 0xED7 JUMPI PUSH2 0xED6 PUSH2 0xE80 JUMP JUMPDEST JUMPDEST POP SWAP2 SWAP1 POP JUMP JUMPDEST PUSH0 DUP2 SWAP1 POP DUP2 PUSH0 MSTORE PUSH1 0x20 PUSH0 KECCAK256 SWAP1 POP SWAP2 SWAP1 POP JUMP JUMPDEST PUSH0 PUSH1 0x20 PUSH1 0x1F DUP4 ADD DIV SWAP1 POP SWAP2 SWAP1 POP JUMP JUMPDEST PUSH0 DUP3 DUP3 SHL SWAP1 POP SWAP3 SWAP2 POP POP JUMP JUMPDEST PUSH0 PUSH1 0x8 DUP4 MUL PUSH2 0xF39 PUSH32 0xFFFFFFFFFFFFFFFFFFFFFFFFFFFFFFFFFFFFFFFFFFFFFFFFFFFFFFFFFFFFFFFF DUP3 PUSH2 0xEFE JUMP JUMPDEST PUSH2 0xF43 DUP7 DUP4 PUSH2 0xEFE JUMP JUMPDEST SWAP6 POP DUP1 NOT DUP5 AND SWAP4 POP DUP1 DUP7 AND DUP5 OR SWAP3 POP POP POP SWAP4 SWAP3 POP POP POP JUMP JUMPDEST PUSH0 DUP2 SWAP1 POP SWAP2 SWAP1 POP JUMP JUMPDEST PUSH0 PUSH2 0xF7E PUSH2 0xF79 PUSH2 0xF74 DUP5 PUSH2 0xA0A JUMP JUMPDEST PUSH2 0xF5B JUMP JUMPDEST PUSH2 0xA0A JUMP JUMPDEST SWAP1 POP SWAP2 SWAP1 POP JUMP JUMPDEST PUSH0 DUP2 SWAP1 POP SWAP2 SWAP1 POP JUMP JUMPDEST PUSH2 0xF97 DUP4 PUSH2 0xF64 JUMP JUMPDEST PUSH2 0xFAB PUSH2 0xFA3 DUP3 PUSH2 0xF85 JUMP JUMPDEST DUP5 DUP5 SLOAD PUSH2 0xF0A JUMP JUMPDEST DUP3 SSTORE POP POP POP POP JUMP JUMPDEST PUSH0 PUSH0 SWAP1 POP SWAP1 JUMP JUMPDEST PUSH2 0xFC2 PUSH2 0xFB3 JUMP JUMPDEST PUSH2 0xFCD DUP2 DUP5 DUP5 PUSH2 0xF8E JUMP JUMPDEST POP POP POP JUMP JUMPDEST JUMPDEST DUP2 DUP2 LT ISZERO PUSH2 0xFF0 JUMPI PUSH2 0xFE5 PUSH0 DUP3 PUSH2 0xFBA JUMP JUMPDEST PUSH1 0x1 DUP2 ADD SWAP1 POP PUSH2 0xFD3 JUMP JUMPDEST POP POP JUMP JUMPDEST PUSH1 0x1F DUP3 GT ISZERO PUSH2 0x1035 JUMPI PUSH2 0x1006 DUP2 PUSH2 0xEDD JUMP JUMPDEST PUSH2 0x100F DUP5 PUSH2 0xEEF JUMP JUMPDEST DUP2 ADD PUSH1 0x20 DUP6 LT ISZERO PUSH2 0x101E JUMPI DUP2 SWAP1 POP JUMPDEST PUSH2 0x1032 PUSH2 0x102A DUP6 PUSH2 0xEEF JUMP JUMPDEST DUP4 ADD DUP3 PUSH2 0xFD2 JUMP JUMPDEST POP POP JUMPDEST POP POP POP JUMP JUMPDEST PUSH0 DUP3 DUP3 SHR SWAP1 POP SWAP3 SWAP2 POP POP JUMP JUMPDEST PUSH0 PUSH2 0x1055 PUSH0 NOT DUP5 PUSH1 0x8 MUL PUSH2 0x103A JUMP JUMPDEST NOT DUP1 DUP4 AND SWAP2 POP POP SWAP3 SWAP2 POP POP JUMP JUMPDEST PUSH0 PUSH2 0x106D DUP4 DUP4 PUSH2 0x1046 JUMP JUMPDEST SWAP2 POP DUP3 PUSH1 0x2 MUL DUP3 OR SWAP1 POP SWAP3 SWAP2 POP POP JUMP JUMPDEST PUSH2 0x1086 DUP3 PUSH2 0xA68 JUMP JUMPDEST PUSH8 0xFFFFFFFFFFFFFFFF DUP2 GT ISZERO PUSH2 0x109F JUMPI PUSH2 0x109E PUSH2 0x89F JUMP JUMPDEST JUMPDEST PUSH2 0x10A9 DUP3 SLOAD PUSH2 0xEAD JUMP JUMPDEST PUSH2 0x10B4 DUP3 DUP3 DUP6 PUSH2 0xFF4 JUMP JUMPDEST PUSH0 PUSH1 0x20 SWAP1 POP PUSH1 0x1F DUP4 GT PUSH1 0x1 DUP2 EQ PUSH2 0x10E5 JUMPI PUSH0 DUP5 ISZERO PUSH2 0x10D3 JUMPI DUP3 DUP8 ADD MLOAD SWAP1 POP JUMPDEST PUSH2 0x10DD DUP6 DUP3 PUSH2 0x1062 JUMP JUMPDEST DUP7 SSTORE POP PUSH2 0x1144 JUMP JUMPDEST PUSH1 0x1F NOT DUP5 AND PUSH2 0x10F3 DUP7 PUSH2 0xEDD JUMP JUMPDEST PUSH0 JUMPDEST DUP3 DUP2 LT ISZERO PUSH2 0x111A JUMPI DUP5 DUP10 ADD MLOAD DUP3 SSTORE PUSH1 0x1 DUP3 ADD SWAP2 POP PUSH1 0x20 DUP6 ADD SWAP5 POP PUSH1 0x20 DUP2 ADD SWAP1 POP PUSH2 0x10F5 JUMP JUMPDEST DUP7 DUP4 LT ISZERO PUSH2 0x1137 JUMPI DUP5 DUP10 ADD MLOAD PUSH2 0x1133 PUSH1 0x1F DUP10 AND DUP3 PUSH2 0x1046 JUMP JUMPDEST DUP4 SSTORE POP JUMPDEST PUSH1 0x1 PUSH1 0x2 DUP9 MUL ADD DUP9 SSTORE POP POP POP JUMPDEST POP POP POP POP POP POP JUMP JUMPDEST PUSH32 0x4E487B7100000000000000000000000000000000000000000000000000000000 PUSH0 MSTORE PUSH1 0x32 PUSH1 0x4 MSTORE PUSH1 0x24 PUSH0 REVERT JUMPDEST PUSH32 0x4E487B7100000000000000000000000000000000000000000000000000000000 PUSH0 MSTORE PUSH1 0x31 PUSH1 0x4 MSTORE PUSH1 0x24 PUSH0 REVERT INVALID LOG2 PUSH5 0x6970667358 0x22 SLT KECCAK256 PUSH20 0xD3CABED790196762A780F383FBF85C42ACCE40AA JUMPI 0x29 JUMPI EQ CALLVALUE 0xEB SWAP5 0xEF SWAP14 0x21 0x26 PUSH5 0x736F6C6343 STOP ADDMOD SHR STOP CALLER "
		},
		"gasEstimates": {
			"creation": {
				"codeDepositCost": "914400",
				"executionCost": "946",
				"totalCost": "915346"
			},
			"external": {
				"addFlag(bool[2])": "infinite",
				"byteArrays(bytes)": "infinite",
				"changeFlagArraySize(uint256)": "infinite",
				"clear()": "infinite",
				"createMemoryArray(uint256)": "infinite",
				"f(uint256[])": "infinite",
				"setAllFlagPairs(bool[2][])": "infinite",
				"setFlagPair(uint256,bool,bool)": "infinite"
			}
		},
		"methodIdentifiers": {
			"addFlag(bool[2])": "b9cce72c",
			"byteArrays(bytes)": "31a56110",
			"changeFlagArraySize(uint256)": "f5933f66",
			"clear()": "52efea6e",
			"createMemoryArray(uint256)": "6d236703",
			"f(uint256[])": "7bc5bbbf",
			"setAllFlagPairs(bool[2][])": "deff71b8",
			"setFlagPair(uint256,bool,bool)": "7d7e5e3d"
		}
	},
	"abi": [
		{
			"inputs": [
				{
					"internalType": "bool[2]",
					"name": "flag",
					"type": "bool[2]"
				}
			],
			"name": "addFlag",
			"outputs": [
				{
					"internalType": "uint256",
					"name": "",
					"type": "uint256"
				}
			],
			"stateMutability": "nonpayable",
			"type": "function"
		},
		{
			"inputs": [
				{
					"internalType": "bytes",
					"name": "data",
					"type": "bytes"
				}
			],
			"name": "byteArrays",
			"outputs": [],
			"stateMutability": "nonpayable",
			"type": "function"
		},
		{
			"inputs": [
				{
					"internalType": "uint256",
					"name": "newSize",
					"type": "uint256"
				}
			],
			"name": "changeFlagArraySize",
			"outputs": [],
			"stateMutability": "nonpayable",
			"type": "function"
		},
		{
			"inputs": [],
			"name": "clear",
			"outputs": [],
			"stateMutability": "nonpayable",
			"type": "function"
		},
		{
			"inputs": [
				{
					"internalType": "uint256",
					"name": "size",
					"type": "uint256"
				}
			],
			"name": "createMemoryArray",
			"outputs": [
				{
					"internalType": "bytes",
					"name": "",
					"type": "bytes"
				}
			],
			"stateMutability": "pure",
			"type": "function"
		},
		{
			"inputs": [
				{
					"internalType": "uint256[]",
					"name": "c",
					"type": "uint256[]"
				}
			],
			"name": "f",
			"outputs": [],
			"stateMutability": "nonpayable",
			"type": "function"
		},
		{
			"inputs": [
				{
					"internalType": "bool[2][]",
					"name": "newPairs",
					"type": "bool[2][]"
				}
			],
			"name": "setAllFlagPairs",
			"outputs": [],
			"stateMutability": "nonpayable",
			"type": "function"
		},
		{
			"inputs": [
				{
					"internalType": "uint256",
					"name": "index",
					"type": "uint256"
				},
				{
					"internalType": "bool",
					"name": "flagA",
					"type": "bool"
				},
				{
					"internalType": "bool",
					"name": "flagB",
					"type": "bool"
				}
			],
			"name": "setFlagPair",
			"outputs": [],
			"stateMutability": "nonpayable",
			"type": "function"
		}
	]
}