{
	"data": {
		"bytecode": {
			"linkReferences": {},
			"object": "6080604052348015600e575f5ffd5b506104c38061001c5f395ff3fe608060405234801561000f575f5ffd5b5060043610610029575f3560e01c806326121ff01461002d575b5f5ffd5b610035610037565b005b5f61004260076100ae565b90505f61006e7fffffffffffffffffffffffffffffffffffffffffffffffffffffffffffffffff6100ae565b90505f610084828461012f90919063ffffffff16565b90505f61009b60018361033990919063ffffffff16565b116100a9576100a861039d565b5b505050565b6100b661038a565b600167ffffffffffffffff8111156100d1576100d06103ca565b5b6040519080825280602002602001820160405280156100ff5781602001602082028036833780820191505090505b50815f018190525081815f01515f8151811061011e5761011d6103f7565b5b602002602001018181525050919050565b61013761038a565b610149835f015151835f015151610372565b67ffffffffffffffff811115610162576101616103ca565b5b6040519080825280602002602001820160405280156101905781602001602082028036833780820191505090505b50815f01819052505f5f90505f5f90505b825f015151811015610249575f6101b88683610339565b90505f6101c58684610339565b90508381830101855f015184815181106101e2576101e16103f7565b5b60200260200101818152505081818301108061022a57507fffffffffffffffffffffffffffffffffffffffffffffffffffffffffffffffff81830114801561022957505f84115b5b15610238576001935061023c565b5f93505b50508060010190506101a1565b505f811115610332575f6001835f015151610264919061045a565b67ffffffffffffffff81111561027d5761027c6103ca565b5b6040519080825280602002602001820160405280156102ab5781602001602082028036833780820191505090505b5090505f5f90505b835f01515181101561030757835f015181815181106102d5576102d46103f7565b5b60200260200101518282815181106102f0576102ef6103f7565b5b6020026020010181815250508060010190506102b3565b8282828151811061031b5761031a6103f7565b5b60200260200101818152505081845f018190525050505b5092915050565b5f825f015151821061034b575f61036a565b825f01518281518110610361576103606103f7565b5b60200260200101515b905092915050565b5f8183116103805781610382565b825b905092915050565b6040518060200160405280606081525090565b7f4e487b71000000000000000000000000000000000000000000000000000000005f52600160045260245ffd5b7f4e487b71000000000000000000000000000000000000000000000000000000005f52604160045260245ffd5b7f4e487b71000000000000000000000000000000000000000000000000000000005f52603260045260245ffd5b5f819050919050565b7f4e487b71000000000000000000000000000000000000000000000000000000005f52601160045260245ffd5b5f61046482610424565b915061046f83610424565b92508282019050808211156104875761048661042d565b5b9291505056fea26469706673582212206fbc3958f6d6afec99827d33fbc71e22374372837ed43daf27952b48315c3afa64736f6c634300081c0033",
			"opcodes": "PUSH1 0x80 PUSH1 0x40 MSTORE CALLVALUE DUP1 ISZERO PUSH1 0xE JUMPI PUSH0 PUSH0 REVERT JUMPDEST POP PUSH2 0x4C3 DUP1 PUSH2 0x1C PUSH0 CODECOPY PUSH0 RETURN INVALID PUSH1 0x80 PUSH1 0x40 MSTORE CALLVALUE DUP1 ISZERO PUSH2 0xF JUMPI PUSH0 PUSH0 REVERT JUMPDEST POP PUSH1 0x4 CALLDATASIZE LT PUSH2 0x29 JUMPI PUSH0 CALLDATALOAD PUSH1 0xE0 SHR DUP1 PUSH4 0x26121FF0 EQ PUSH2 0x2D JUMPI JUMPDEST PUSH0 PUSH0 REVERT JUMPDEST PUSH2 0x35 PUSH2 0x37 JUMP JUMPDEST STOP JUMPDEST PUSH0 PUSH2 0x42 PUSH1 0x7 PUSH2 0xAE JUMP JUMPDEST SWAP1 POP PUSH0 PUSH2 0x6E PUSH32 0xFFFFFFFFFFFFFFFFFFFFFFFFFFFFFFFFFFFFFFFFFFFFFFFFFFFFFFFFFFFFFFFF PUSH2 0xAE JUMP JUMPDEST SWAP1 POP PUSH0 PUSH2 0x84 DUP3 DUP5 PUSH2 0x12F SWAP1 SWAP2 SWAP1 PUSH4 0xFFFFFFFF AND JUMP JUMPDEST SWAP1 POP PUSH0 PUSH2 0x9B PUSH1 0x1 DUP4 PUSH2 0x339 SWAP1 SWAP2 SWAP1 PUSH4 0xFFFFFFFF AND JUMP JUMPDEST GT PUSH2 0xA9 JUMPI PUSH2 0xA8 PUSH2 0x39D JUMP JUMPDEST JUMPDEST POP POP POP JUMP JUMPDEST PUSH2 0xB6 PUSH2 0x38A JUMP JUMPDEST PUSH1 0x1 PUSH8 0xFFFFFFFFFFFFFFFF DUP2 GT ISZERO PUSH2 0xD1 JUMPI PUSH2 0xD0 PUSH2 0x3CA JUMP JUMPDEST JUMPDEST PUSH1 0x40 MLOAD SWAP1 DUP1 DUP3 MSTORE DUP1 PUSH1 0x20 MUL PUSH1 0x20 ADD DUP3 ADD PUSH1 0x40 MSTORE DUP1 ISZERO PUSH2 0xFF JUMPI DUP2 PUSH1 0x20 ADD PUSH1 0x20 DUP3 MUL DUP1 CALLDATASIZE DUP4 CALLDATACOPY DUP1 DUP3 ADD SWAP2 POP POP SWAP1 POP JUMPDEST POP DUP2 PUSH0 ADD DUP2 SWAP1 MSTORE POP DUP2 DUP2 PUSH0 ADD MLOAD PUSH0 DUP2 MLOAD DUP2 LT PUSH2 0x11E JUMPI PUSH2 0x11D PUSH2 0x3F7 JUMP JUMPDEST JUMPDEST PUSH1 0x20 MUL PUSH1 0x20 ADD ADD DUP2 DUP2 MSTORE POP POP SWAP2 SWAP1 POP JUMP JUMPDEST PUSH2 0x137 PUSH2 0x38A JUMP JUMPDEST PUSH2 0x149 DUP4 PUSH0 ADD MLOAD MLOAD DUP4 PUSH0 ADD MLOAD MLOAD PUSH2 0x372 JUMP JUMPDEST PUSH8 0xFFFFFFFFFFFFFFFF DUP2 GT ISZERO PUSH2 0x162 JUMPI PUSH2 0x161 PUSH2 0x3CA JUMP JUMPDEST JUMPDEST PUSH1 0x40 MLOAD SWAP1 DUP1 DUP3 MSTORE DUP1 PUSH1 0x20 MUL PUSH1 0x20 ADD DUP3 ADD PUSH1 0x40 MSTORE DUP1 ISZERO PUSH2 0x190 JUMPI DUP2 PUSH1 0x20 ADD PUSH1 0x20 DUP3 MUL DUP1 CALLDATASIZE DUP4 CALLDATACOPY DUP1 DUP3 ADD SWAP2 POP POP SWAP1 POP JUMPDEST POP DUP2 PUSH0 ADD DUP2 SWAP1 MSTORE POP PUSH0 PUSH0 SWAP1 POP PUSH0 PUSH0 SWAP1 POP JUMPDEST DUP3 PUSH0 ADD MLOAD MLOAD DUP2 LT ISZERO PUSH2 0x249 JUMPI PUSH0 PUSH2 0x1B8 DUP7 DUP4 PUSH2 0x339 JUMP JUMPDEST SWAP1 POP PUSH0 PUSH2 0x1C5 DUP7 DUP5 PUSH2 0x339 JUMP JUMPDEST SWAP1 POP DUP4 DUP2 DUP4 ADD ADD DUP6 PUSH0 ADD MLOAD DUP5 DUP2 MLOAD DUP2 LT PUSH2 0x1E2 JUMPI PUSH2 0x1E1 PUSH2 0x3F7 JUMP JUMPDEST JUMPDEST PUSH1 0x20 MUL PUSH1 0x20 ADD ADD DUP2 DUP2 MSTORE POP POP DUP2 DUP2 DUP4 ADD LT DUP1 PUSH2 0x22A JUMPI POP PUSH32 0xFFFFFFFFFFFFFFFFFFFFFFFFFFFFFFFFFFFFFFFFFFFFFFFFFFFFFFFFFFFFFFFF DUP2 DUP4 ADD EQ DUP1 ISZERO PUSH2 0x229 JUMPI POP PUSH0 DUP5 GT JUMPDEST JUMPDEST ISZERO PUSH2 0x238 JUMPI PUSH1 0x1 SWAP4 POP PUSH2 0x23C JUMP JUMPDEST PUSH0 SWAP4 POP JUMPDEST POP POP DUP1 PUSH1 0x1 ADD SWAP1 POP PUSH2 0x1A1 JUMP JUMPDEST POP PUSH0 DUP2 GT ISZERO PUSH2 0x332 JUMPI PUSH0 PUSH1 0x1 DUP4 PUSH0 ADD MLOAD MLOAD PUSH2 0x264 SWAP2 SWAP1 PUSH2 0x45A JUMP JUMPDEST PUSH8 0xFFFFFFFFFFFFFFFF DUP2 GT ISZERO PUSH2 0x27D JUMPI PUSH2 0x27C PUSH2 0x3CA JUMP JUMPDEST JUMPDEST PUSH1 0x40 MLOAD SWAP1 DUP1 DUP3 MSTORE DUP1 PUSH1 0x20 MUL PUSH1 0x20 ADD DUP3 ADD PUSH1 0x40 MSTORE DUP1 ISZERO PUSH2 0x2AB JUMPI DUP2 PUSH1 0x20 ADD PUSH1 0x20 DUP3 MUL DUP1 CALLDATASIZE DUP4 CALLDATACOPY DUP1 DUP3 ADD SWAP2 POP POP SWAP1 POP JUMPDEST POP SWAP1 POP PUSH0 PUSH0 SWAP1 POP JUMPDEST DUP4 PUSH0 ADD MLOAD MLOAD DUP2 LT ISZERO PUSH2 0x307 JUMPI DUP4 PUSH0 ADD MLOAD DUP2 DUP2 MLOAD DUP2 LT PUSH2 0x2D5 JUMPI PUSH2 0x2D4 PUSH2 0x3F7 JUMP JUMPDEST JUMPDEST PUSH1 0x20 MUL PUSH1 0x20 ADD ADD MLOAD DUP3 DUP3 DUP2 MLOAD DUP2 LT PUSH2 0x2F0 JUMPI PUSH2 0x2EF PUSH2 0x3F7 JUMP JUMPDEST JUMPDEST PUSH1 0x20 MUL PUSH1 0x20 ADD ADD DUP2 DUP2 MSTORE POP POP DUP1 PUSH1 0x1 ADD SWAP1 POP PUSH2 0x2B3 JUMP JUMPDEST DUP3 DUP3 DUP3 DUP2 MLOAD DUP2 LT PUSH2 0x31B JUMPI PUSH2 0x31A PUSH2 0x3F7 JUMP JUMPDEST JUMPDEST PUSH1 0x20 MUL PUSH1 0x20 ADD ADD DUP2 DUP2 MSTORE POP POP DUP2 DUP5 PUSH0 ADD DUP2 SWAP1 MSTORE POP POP POP JUMPDEST POP SWAP3 SWAP2 POP POP JUMP JUMPDEST PUSH0 DUP3 PUSH0 ADD MLOAD MLOAD DUP3 LT PUSH2 0x34B JUMPI PUSH0 PUSH2 0x36A JUMP JUMPDEST DUP3 PUSH0 ADD MLOAD DUP3 DUP2 MLOAD DUP2 LT PUSH2 0x361 JUMPI PUSH2 0x360 PUSH2 0x3F7 JUMP JUMPDEST JUMPDEST PUSH1 0x20 MUL PUSH1 0x20 ADD ADD MLOAD JUMPDEST SWAP1 POP SWAP3 SWAP2 POP POP JUMP JUMPDEST PUSH0 DUP2 DUP4 GT PUSH2 0x380 JUMPI DUP2 PUSH2 0x382 JUMP JUMPDEST DUP3 JUMPDEST SWAP1 POP SWAP3 SWAP2 POP POP JUMP JUMPDEST PUSH1 0x40 MLOAD DUP1 PUSH1 0x20 ADD PUSH1 0x40 MSTORE DUP1 PUSH1 0x60 DUP2 MSTORE POP SWAP1 JUMP JUMPDEST PUSH32 0x4E487B7100000000000000000000000000000000000000000000000000000000 PUSH0 MSTORE PUSH1 0x1 PUSH1 0x4 MSTORE PUSH1 0x24 PUSH0 REVERT JUMPDEST PUSH32 0x4E487B7100000000000000000000000000000000000000000000000000000000 PUSH0 MSTORE PUSH1 0x41 PUSH1 0x4 MSTORE PUSH1 0x24 PUSH0 REVERT JUMPDEST PUSH32 0x4E487B7100000000000000000000000000000000000000000000000000000000 PUSH0 MSTORE PUSH1 0x32 PUSH1 0x4 MSTORE PUSH1 0x24 PUSH0 REVERT JUMPDEST PUSH0 DUP2 SWAP1 POP SWAP2 SWAP1 POP JUMP JUMPDEST PUSH32 0x4E487B7100000000000000000000000000000000000000000000000000000000 PUSH0 MSTORE PUSH1 0x11 PUSH1 0x4 MSTORE PUSH1 0x24 PUSH0 REVERT JUMPDEST PUSH0 PUSH2 0x464 DUP3 PUSH2 0x424 JUMP JUMPDEST SWAP2 POP PUSH2 0x46F DUP4 PUSH2 0x424 JUMP JUMPDEST SWAP3 POP DUP3 DUP3 ADD SWAP1 POP DUP1 DUP3 GT ISZERO PUSH2 0x487 JUMPI PUSH2 0x486 PUSH2 0x42D JUMP JUMPDEST JUMPDEST SWAP3 SWAP2 POP POP JUMP INVALID LOG2 PUSH5 0x6970667358 0x22 SLT KECCAK256 PUSH16 0xBC3958F6D6AFEC99827D33FBC71E2237 NUMBER PUSH19 0x837ED43DAF27952B48315C3AFA64736F6C6343 STOP ADDMOD SHR STOP CALLER "
		},
		"gasEstimates": {
			"creation": {
				"codeDepositCost": "243800",
				"executionCost": "285",
				"totalCost": "244085"
			},
			"external": {
				"f()": "infinite"
			}
		},
		"methodIdentifiers": {
			"f()": "26121ff0"
		}
	},
	"abi": [
		{
			"inputs": [],
			"name": "f",
			"outputs": [],
			"stateMutability": "pure",
			"type": "function"
		}
	]
}