{
	"data": {
		"bytecode": {
			"linkReferences": {},
			"object": "6080604052348015600e575f5ffd5b506102468061001c5f395ff3fe608060405260043610610028575f3560e01c806326121ff01461002c578063e2179b8e1461004a575b5f5ffd5b610034610060565b6040516100419190610171565b60405180910390f35b348015610055575f5ffd5b5061005e6100c0565b005b5f3073ffffffffffffffffffffffffffffffffffffffff163073ffffffffffffffffffffffffffffffffffffffff1673ffffffffffffffffffffffffffffffffffffffff16146100b3576100b261018a565b5b6326121ff060e01b905090565b3073ffffffffffffffffffffffffffffffffffffffff166326121ff0600a60646040518363ffffffff1660e01b8152600401602060405180830381858988f115801561010e573d5f5f3e3d5ffd5b5050505050506040513d601f19601f8201168201806040525081019061013491906101e5565b50565b5f7fffffffff0000000000000000000000000000000000000000000000000000000082169050919050565b61016b81610137565b82525050565b5f6020820190506101845f830184610162565b92915050565b7f4e487b71000000000000000000000000000000000000000000000000000000005f52600160045260245ffd5b5f5ffd5b6101c481610137565b81146101ce575f5ffd5b50565b5f815190506101df816101bb565b92915050565b5f602082840312156101fa576101f96101b7565b5b5f610207848285016101d1565b9150509291505056fea2646970667358221220e5dd5240aa2bc04955be00d9e6e832b5410b991d5991a7477303b012e1a9535b64736f6c634300081c0033",
			"opcodes": "PUSH1 0x80 PUSH1 0x40 MSTORE CALLVALUE DUP1 ISZERO PUSH1 0xE JUMPI PUSH0 PUSH0 REVERT JUMPDEST POP PUSH2 0x246 DUP1 PUSH2 0x1C PUSH0 CODECOPY PUSH0 RETURN INVALID PUSH1 0x80 PUSH1 0x40 MSTORE PUSH1 0x4 CALLDATASIZE LT PUSH2 0x28 JUMPI PUSH0 CALLDATALOAD PUSH1 0xE0 SHR DUP1 PUSH4 0x26121FF0 EQ PUSH2 0x2C JUMPI DUP1 PUSH4 0xE2179B8E EQ PUSH2 0x4A JUMPI JUMPDEST PUSH0 PUSH0 REVERT JUMPDEST PUSH2 0x34 PUSH2 0x60 JUMP JUMPDEST PUSH1 0x40 MLOAD PUSH2 0x41 SWAP2 SWAP1 PUSH2 0x171 JUMP JUMPDEST PUSH1 0x40 MLOAD DUP1 SWAP2 SUB SWAP1 RETURN JUMPDEST CALLVALUE DUP1 ISZERO PUSH2 0x55 JUMPI PUSH0 PUSH0 REVERT JUMPDEST POP PUSH2 0x5E PUSH2 0xC0 JUMP JUMPDEST STOP JUMPDEST PUSH0 ADDRESS PUSH20 0xFFFFFFFFFFFFFFFFFFFFFFFFFFFFFFFFFFFFFFFF AND ADDRESS PUSH20 0xFFFFFFFFFFFFFFFFFFFFFFFFFFFFFFFFFFFFFFFF AND PUSH20 0xFFFFFFFFFFFFFFFFFFFFFFFFFFFFFFFFFFFFFFFF AND EQ PUSH2 0xB3 JUMPI PUSH2 0xB2 PUSH2 0x18A JUMP JUMPDEST JUMPDEST PUSH4 0x26121FF0 PUSH1 0xE0 SHL SWAP1 POP SWAP1 JUMP JUMPDEST ADDRESS PUSH20 0xFFFFFFFFFFFFFFFFFFFFFFFFFFFFFFFFFFFFFFFF AND PUSH4 0x26121FF0 PUSH1 0xA PUSH1 0x64 PUSH1 0x40 MLOAD DUP4 PUSH4 0xFFFFFFFF AND PUSH1 0xE0 SHL DUP2 MSTORE PUSH1 0x4 ADD PUSH1 0x20 PUSH1 0x40 MLOAD DUP1 DUP4 SUB DUP2 DUP6 DUP10 DUP9 CALL ISZERO DUP1 ISZERO PUSH2 0x10E JUMPI RETURNDATASIZE PUSH0 PUSH0 RETURNDATACOPY RETURNDATASIZE PUSH0 REVERT JUMPDEST POP POP POP POP POP POP PUSH1 0x40 MLOAD RETURNDATASIZE PUSH1 0x1F NOT PUSH1 0x1F DUP3 ADD AND DUP3 ADD DUP1 PUSH1 0x40 MSTORE POP DUP2 ADD SWAP1 PUSH2 0x134 SWAP2 SWAP1 PUSH2 0x1E5 JUMP JUMPDEST POP JUMP JUMPDEST PUSH0 PUSH32 0xFFFFFFFF00000000000000000000000000000000000000000000000000000000 DUP3 AND SWAP1 POP SWAP2 SWAP1 POP JUMP JUMPDEST PUSH2 0x16B DUP2 PUSH2 0x137 JUMP JUMPDEST DUP3 MSTORE POP POP JUMP JUMPDEST PUSH0 PUSH1 0x20 DUP3 ADD SWAP1 POP PUSH2 0x184 PUSH0 DUP4 ADD DUP5 PUSH2 0x162 JUMP JUMPDEST SWAP3 SWAP2 POP POP JUMP JUMPDEST PUSH32 0x4E487B7100000000000000000000000000000000000000000000000000000000 PUSH0 MSTORE PUSH1 0x1 PUSH1 0x4 MSTORE PUSH1 0x24 PUSH0 REVERT JUMPDEST PUSH0 PUSH0 REVERT JUMPDEST PUSH2 0x1C4 DUP2 PUSH2 0x137 JUMP JUMPDEST DUP2 EQ PUSH2 0x1CE JUMPI PUSH0 PUSH0 REVERT JUMPDEST POP JUMP JUMPDEST PUSH0 DUP2 MLOAD SWAP1 POP PUSH2 0x1DF DUP2 PUSH2 0x1BB JUMP JUMPDEST SWAP3 SWAP2 POP POP JUMP JUMPDEST PUSH0 PUSH1 0x20 DUP3 DUP5 SUB SLT ISZERO PUSH2 0x1FA JUMPI PUSH2 0x1F9 PUSH2 0x1B7 JUMP JUMPDEST JUMPDEST PUSH0 PUSH2 0x207 DUP5 DUP3 DUP6 ADD PUSH2 0x1D1 JUMP JUMPDEST SWAP2 POP POP SWAP3 SWAP2 POP POP JUMP INVALID LOG2 PUSH5 0x6970667358 0x22 SLT KECCAK256 0xE5 0xDD MSTORE BLOCKHASH 0xAA 0x2B 0xC0 BLOBHASH SSTORE 0xBE STOP 0xD9 0xE6 0xE8 ORIGIN 0xB5 COINBASE SIGNEXTEND SWAP10 SAR MSIZE SWAP2 0xA7 SELFBALANCE PUSH20 0x3B012E1A9535B64736F6C634300081C00330000 "
		},
		"gasEstimates": {
			"creation": {
				"codeDepositCost": "116400",
				"executionCost": "163",
				"totalCost": "116563"
			},
			"external": {
				"f()": "337",
				"g()": "infinite"
			}
		},
		"methodIdentifiers": {
			"f()": "26121ff0",
			"g()": "e2179b8e"
		}
	},
	"abi": [
		{
			"inputs": [],
			"name": "f",
			"outputs": [
				{
					"internalType": "bytes4",
					"name": "",
					"type": "bytes4"
				}
			],
			"stateMutability": "payable",
			"type": "function"
		},
		{
			"inputs": [],
			"name": "g",
			"outputs": [],
			"stateMutability": "nonpayable",
			"type": "function"
		}
	]
}