{
	"data": {
		"bytecode": {
			"linkReferences": {},
			"object": "6080604052348015600e575f5ffd5b506103798061001c5f395ff3fe608060405234801561000f575f5ffd5b5060043610610034575f3560e01c8063a1dda33814610038578063b0f373f914610054575b5f5ffd5b610052600480360381019061004d91906101b0565b61005e565b005b61005c6100e5565b005b6f219ab540356cbb839cbe05303d7705fa73ffffffffffffffffffffffffffffffffffffffff163373ffffffffffffffffffffffffffffffffffffffff16146100dc576040517f08c379a00000000000000000000000000000000000000000000000000000000081526004016100d390610235565b60405180910390fd5b805f8190555050565b6f219ab540356cbb839cbe05303d7705fa73ffffffffffffffffffffffffffffffffffffffff1663d72d67703073ffffffffffffffffffffffffffffffffffffffff1663a1dda3386040518363ffffffff1660e01b815260040161014a929190610315565b5f604051808303815f87803b158015610161575f5ffd5b505af1158015610173573d5f5f3e3d5ffd5b50505050565b5f5ffd5b5f819050919050565b61018f8161017d565b8114610199575f5ffd5b50565b5f813590506101aa81610186565b92915050565b5f602082840312156101c5576101c4610179565b5b5f6101d28482850161019c565b91505092915050565b5f82825260208201905092915050565b7f4f6e6c79206f7261636c652063616e2063616c6c20746869732e0000000000005f82015250565b5f61021f601a836101db565b915061022a826101eb565b602082019050919050565b5f6020820190508181035f83015261024c81610213565b9050919050565b5f82825260208201905092915050565b7f55534400000000000000000000000000000000000000000000000000000000005f82015250565b5f610297600383610253565b91506102a282610263565b602082019050919050565b5f8160201b9050919050565b5f8160401b9050919050565b5f6102df63ffffffff84166102d9846102ad565b176102b9565b905092915050565b5f5f8291508390509250929050565b61030082826102e7565b9250905061030e82826102c5565b8352505050565b5f6040820190508181035f83015261032c8161028b565b905061033c6020830184866102f6565b939250505056fea2646970667358221220970e4e288b176f45b23fb884e66ca1ca715bdf40070aa4865f381fc0f97c27d964736f6c634300081c0033",
			"opcodes": "PUSH1 0x80 PUSH1 0x40 MSTORE CALLVALUE DUP1 ISZERO PUSH1 0xE JUMPI PUSH0 PUSH0 REVERT JUMPDEST POP PUSH2 0x379 DUP1 PUSH2 0x1C PUSH0 CODECOPY PUSH0 RETURN INVALID PUSH1 0x80 PUSH1 0x40 MSTORE CALLVALUE DUP1 ISZERO PUSH2 0xF JUMPI PUSH0 PUSH0 REVERT JUMPDEST POP PUSH1 0x4 CALLDATASIZE LT PUSH2 0x34 JUMPI PUSH0 CALLDATALOAD PUSH1 0xE0 SHR DUP1 PUSH4 0xA1DDA338 EQ PUSH2 0x38 JUMPI DUP1 PUSH4 0xB0F373F9 EQ PUSH2 0x54 JUMPI JUMPDEST PUSH0 PUSH0 REVERT JUMPDEST PUSH2 0x52 PUSH1 0x4 DUP1 CALLDATASIZE SUB DUP2 ADD SWAP1 PUSH2 0x4D SWAP2 SWAP1 PUSH2 0x1B0 JUMP JUMPDEST PUSH2 0x5E JUMP JUMPDEST STOP JUMPDEST PUSH2 0x5C PUSH2 0xE5 JUMP JUMPDEST STOP JUMPDEST PUSH16 0x219AB540356CBB839CBE05303D7705FA PUSH20 0xFFFFFFFFFFFFFFFFFFFFFFFFFFFFFFFFFFFFFFFF AND CALLER PUSH20 0xFFFFFFFFFFFFFFFFFFFFFFFFFFFFFFFFFFFFFFFF AND EQ PUSH2 0xDC JUMPI PUSH1 0x40 MLOAD PUSH32 0x8C379A000000000000000000000000000000000000000000000000000000000 DUP2 MSTORE PUSH1 0x4 ADD PUSH2 0xD3 SWAP1 PUSH2 0x235 JUMP JUMPDEST PUSH1 0x40 MLOAD DUP1 SWAP2 SUB SWAP1 REVERT JUMPDEST DUP1 PUSH0 DUP2 SWAP1 SSTORE POP POP JUMP JUMPDEST PUSH16 0x219AB540356CBB839CBE05303D7705FA PUSH20 0xFFFFFFFFFFFFFFFFFFFFFFFFFFFFFFFFFFFFFFFF AND PUSH4 0xD72D6770 ADDRESS PUSH20 0xFFFFFFFFFFFFFFFFFFFFFFFFFFFFFFFFFFFFFFFF AND PUSH4 0xA1DDA338 PUSH1 0x40 MLOAD DUP4 PUSH4 0xFFFFFFFF AND PUSH1 0xE0 SHL DUP2 MSTORE PUSH1 0x4 ADD PUSH2 0x14A SWAP3 SWAP2 SWAP1 PUSH2 0x315 JUMP JUMPDEST PUSH0 PUSH1 0x40 MLOAD DUP1 DUP4 SUB DUP2 PUSH0 DUP8 DUP1 EXTCODESIZE ISZERO DUP1 ISZERO PUSH2 0x161 JUMPI PUSH0 PUSH0 REVERT JUMPDEST POP GAS CALL ISZERO DUP1 ISZERO PUSH2 0x173 JUMPI RETURNDATASIZE PUSH0 PUSH0 RETURNDATACOPY RETURNDATASIZE PUSH0 REVERT JUMPDEST POP POP POP POP JUMP JUMPDEST PUSH0 PUSH0 REVERT JUMPDEST PUSH0 DUP2 SWAP1 POP SWAP2 SWAP1 POP JUMP JUMPDEST PUSH2 0x18F DUP2 PUSH2 0x17D JUMP JUMPDEST DUP2 EQ PUSH2 0x199 JUMPI PUSH0 PUSH0 REVERT JUMPDEST POP JUMP JUMPDEST PUSH0 DUP2 CALLDATALOAD SWAP1 POP PUSH2 0x1AA DUP2 PUSH2 0x186 JUMP JUMPDEST SWAP3 SWAP2 POP POP JUMP JUMPDEST PUSH0 PUSH1 0x20 DUP3 DUP5 SUB SLT ISZERO PUSH2 0x1C5 JUMPI PUSH2 0x1C4 PUSH2 0x179 JUMP JUMPDEST JUMPDEST PUSH0 PUSH2 0x1D2 DUP5 DUP3 DUP6 ADD PUSH2 0x19C JUMP JUMPDEST SWAP2 POP POP SWAP3 SWAP2 POP POP JUMP JUMPDEST PUSH0 DUP3 DUP3 MSTORE PUSH1 0x20 DUP3 ADD SWAP1 POP SWAP3 SWAP2 POP POP JUMP JUMPDEST PUSH32 0x4F6E6C79206F7261636C652063616E2063616C6C20746869732E000000000000 PUSH0 DUP3 ADD MSTORE POP JUMP JUMPDEST PUSH0 PUSH2 0x21F PUSH1 0x1A DUP4 PUSH2 0x1DB JUMP JUMPDEST SWAP2 POP PUSH2 0x22A DUP3 PUSH2 0x1EB JUMP JUMPDEST PUSH1 0x20 DUP3 ADD SWAP1 POP SWAP2 SWAP1 POP JUMP JUMPDEST PUSH0 PUSH1 0x20 DUP3 ADD SWAP1 POP DUP2 DUP2 SUB PUSH0 DUP4 ADD MSTORE PUSH2 0x24C DUP2 PUSH2 0x213 JUMP JUMPDEST SWAP1 POP SWAP2 SWAP1 POP JUMP JUMPDEST PUSH0 DUP3 DUP3 MSTORE PUSH1 0x20 DUP3 ADD SWAP1 POP SWAP3 SWAP2 POP POP JUMP JUMPDEST PUSH32 0x5553440000000000000000000000000000000000000000000000000000000000 PUSH0 DUP3 ADD MSTORE POP JUMP JUMPDEST PUSH0 PUSH2 0x297 PUSH1 0x3 DUP4 PUSH2 0x253 JUMP JUMPDEST SWAP2 POP PUSH2 0x2A2 DUP3 PUSH2 0x263 JUMP JUMPDEST PUSH1 0x20 DUP3 ADD SWAP1 POP SWAP2 SWAP1 POP JUMP JUMPDEST PUSH0 DUP2 PUSH1 0x20 SHL SWAP1 POP SWAP2 SWAP1 POP JUMP JUMPDEST PUSH0 DUP2 PUSH1 0x40 SHL SWAP1 POP SWAP2 SWAP1 POP JUMP JUMPDEST PUSH0 PUSH2 0x2DF PUSH4 0xFFFFFFFF DUP5 AND PUSH2 0x2D9 DUP5 PUSH2 0x2AD JUMP JUMPDEST OR PUSH2 0x2B9 JUMP JUMPDEST SWAP1 POP SWAP3 SWAP2 POP POP JUMP JUMPDEST PUSH0 PUSH0 DUP3 SWAP2 POP DUP4 SWAP1 POP SWAP3 POP SWAP3 SWAP1 POP JUMP JUMPDEST PUSH2 0x300 DUP3 DUP3 PUSH2 0x2E7 JUMP JUMPDEST SWAP3 POP SWAP1 POP PUSH2 0x30E DUP3 DUP3 PUSH2 0x2C5 JUMP JUMPDEST DUP4 MSTORE POP POP POP JUMP JUMPDEST PUSH0 PUSH1 0x40 DUP3 ADD SWAP1 POP DUP2 DUP2 SUB PUSH0 DUP4 ADD MSTORE PUSH2 0x32C DUP2 PUSH2 0x28B JUMP JUMPDEST SWAP1 POP PUSH2 0x33C PUSH1 0x20 DUP4 ADD DUP5 DUP7 PUSH2 0x2F6 JUMP JUMPDEST SWAP4 SWAP3 POP POP POP JUMP INVALID LOG2 PUSH5 0x6970667358 0x22 SLT KECCAK256 SWAP8 0xE 0x4E 0x28 DUP12 OR PUSH16 0x45B23FB884E66CA1CA715BDF40070AA4 DUP7 PUSH0 CODESIZE 0x1F 0xC0 0xF9 PUSH29 0x27D964736F6C634300081C003300000000000000000000000000000000 "
		},
		"gasEstimates": {
			"creation": {
				"codeDepositCost": "177800",
				"executionCost": "218",
				"totalCost": "178018"
			},
			"external": {
				"buySomething()": "infinite",
				"oracleResponse(uint256)": "22526"
			}
		},
		"methodIdentifiers": {
			"buySomething()": "b0f373f9",
			"oracleResponse(uint256)": "a1dda338"
		}
	},
	"abi": [
		{
			"inputs": [],
			"name": "buySomething",
			"outputs": [],
			"stateMutability": "nonpayable",
			"type": "function"
		},
		{
			"inputs": [
				{
					"internalType": "uint256",
					"name": "response",
					"type": "uint256"
				}
			],
			"name": "oracleResponse",
			"outputs": [],
			"stateMutability": "nonpayable",
			"type": "function"
		}
	]
}