{
	"data": {
		"bytecode": {
			"linkReferences": {},
			"object": "6080604052348015600e575f5ffd5b50605f80601a5f395ff3fe608060405260043610601b575f3560e01c80631998aeef14601f575b5f5ffd5b60256027565b005b56fea264697066735822122095424637e2e09c88f2f89ce324042fa27e0aeed588146d494f06a1b31fd4787764736f6c634300081c0033",
			"opcodes": "PUSH1 0x80 PUSH1 0x40 MSTORE CALLVALUE DUP1 ISZERO PUSH1 0xE JUMPI PUSH0 PUSH0 REVERT JUMPDEST POP PUSH1 0x5F DUP1 PUSH1 0x1A PUSH0 CODECOPY PUSH0 RETURN INVALID PUSH1 0x80 PUSH1 0x40 MSTORE PUSH1 0x4 CALLDATASIZE LT PUSH1 0x1B JUMPI PUSH0 CALLDATALOAD PUSH1 0xE0 SHR DUP1 PUSH4 0x1998AEEF EQ PUSH1 0x1F JUMPI JUMPDEST PUSH0 PUSH0 REVERT JUMPDEST PUSH1 0x25 PUSH1 0x27 JUMP JUMPDEST STOP JUMPDEST JUMP INVALID LOG2 PUSH5 0x6970667358 0x22 SLT KECCAK256 SWAP6 TIMESTAMP CHAINID CALLDATACOPY 0xE2 0xE0 SWAP13 DUP9 CALLCODE 0xF8 SWAP13 0xE3 0x24 DIV 0x2F LOG2 PUSH31 0xAEED588146D494F06A1B31FD4787764736F6C634300081C00330000000000 "
		},
		"deployedBytecode": {
			"immutableReferences": {},
			"linkReferences": {},
			"object": "608060405260043610601b575f3560e01c80631998aeef14601f575b5f5ffd5b60256027565b005b56fea264697066735822122095424637e2e09c88f2f89ce324042fa27e0aeed588146d494f06a1b31fd4787764736f6c634300081c0033",
			"opcodes": "PUSH1 0x80 PUSH1 0x40 MSTORE PUSH1 0x4 CALLDATASIZE LT PUSH1 0x1B JUMPI PUSH0 CALLDATALOAD PUSH1 0xE0 SHR DUP1 PUSH4 0x1998AEEF EQ PUSH1 0x1F JUMPI JUMPDEST PUSH0 PUSH0 REVERT JUMPDEST PUSH1 0x25 PUSH1 0x27 JUMP JUMPDEST STOP JUMPDEST JUMP INVALID LOG2 PUSH5 0x6970667358 0x22 SLT KECCAK256 SWAP6 TIMESTAMP CHAINID CALLDATACOPY 0xE2 0xE0 SWAP13 DUP9 CALLCODE 0xF8 SWAP13 0xE3 0x24 DIV 0x2F LOG2 PUSH31 0xAEED588146D494F06A1B31FD4787764736F6C634300081C00330000000000 "
		},
		"gasEstimates": {
			"creation": {
				"codeDepositCost": "19000",
				"executionCost": "67",
				"totalCost": "19067"
			},
			"external": {
				"bid()": "97"
			}
		},
		"methodIdentifiers": {
			"bid()": "1998aeef"
		}
	},
	"abi": [
		{
			"inputs": [],
			"name": "bid",
			"outputs": [],
			"stateMutability": "payable",
			"type": "function"
		}
	]
}