{
	"test/test.sol": {
		"User": {
			"abi": [
				{
					"inputs": [
						{
							"internalType": "uint256",
							"name": "k",
							"type": "uint256"
						},
						{
							"internalType": "uint256",
							"name": "v",
							"type": "uint256"
						}
					],
					"name": "insert",
					"outputs": [
						{
							"internalType": "uint256",
							"name": "size",
							"type": "uint256"
						}
					],
					"stateMutability": "nonpayable",
					"type": "function"
				},
				{
					"inputs": [],
					"name": "sum",
					"outputs": [
						{
							"internalType": "uint256",
							"name": "s",
							"type": "uint256"
						}
					],
					"stateMutability": "view",
					"type": "function"
				}
			],
			"devdoc": {
				"kind": "dev",
				"methods": {},
				"version": 1
			},
			"evm": {
				"assembly": "    /* \"test/test.sol\":14282:14724  contract User{... */\n  mstore(0x40, 0x80)\n  callvalue\n  dup1\n  iszero\n  tag_1\n  jumpi\n  revert(0x00, 0x00)\ntag_1:\n  pop\n  dataSize(sub_0)\n  dup1\n  dataOffset(sub_0)\n  0x00\n  codecopy\n  0x00\n  return\nstop\n\nsub_0: assembly {\n        /* \"test/test.sol\":14282:14724  contract User{... */\n      mstore(0x40, 0x80)\n      callvalue\n      dup1\n      iszero\n      tag_1\n      jumpi\n      revert(0x00, 0x00)\n    tag_1:\n      pop\n      jumpi(tag_2, lt(calldatasize, 0x04))\n      shr(0xe0, calldataload(0x00))\n      dup1\n      0x1d834a1b\n      eq\n      tag_3\n      jumpi\n      dup1\n      0x853255cc\n      eq\n      tag_4\n      jumpi\n    tag_2:\n      revert(0x00, 0x00)\n        /* \"test/test.sol\":14361:14482  function insert(uint k, uint v) public returns (uint size) {... */\n    tag_3:\n      tag_5\n      0x04\n      dup1\n      calldatasize\n      sub\n      dup2\n      add\n      swap1\n      tag_6\n      swap2\n      swap1\n      tag_7\n      jump\t// in\n    tag_6:\n      tag_8\n      jump\t// in\n    tag_5:\n      mload(0x40)\n      tag_9\n      swap2\n      swap1\n      tag_10\n      jump\t// in\n    tag_9:\n      mload(0x40)\n      dup1\n      swap2\n      sub\n      swap1\n      return\n        /* \"test/test.sol\":14490:14721  function sum() public view returns (uint s){... */\n    tag_4:\n      tag_11\n      tag_12\n      jump\t// in\n    tag_11:\n      mload(0x40)\n      tag_13\n      swap2\n      swap1\n      tag_10\n      jump\t// in\n    tag_13:\n      mload(0x40)\n      dup1\n      swap2\n      sub\n      swap1\n      return\n        /* \"test/test.sol\":14361:14482  function insert(uint k, uint v) public returns (uint size) {... */\n    tag_8:\n        /* \"test/test.sol\":14409:14418  uint size */\n      0x00\n        /* \"test/test.sol\":14431:14447  data.insert(k,v) */\n      tag_15\n        /* \"test/test.sol\":14443:14444  k */\n      dup4\n        /* \"test/test.sol\":14445:14446  v */\n      dup4\n        /* \"test/test.sol\":14431:14435  data */\n      0x00\n        /* \"test/test.sol\":14431:14442  data.insert */\n      tag_16\n      swap1\n        /* \"test/test.sol\":14431:14447  data.insert(k,v) */\n      swap3\n      swap2\n      swap1\n      0xffffffff\n      and\n      jump\t// in\n    tag_15:\n      pop\n        /* \"test/test.sol\":14465:14469  data */\n      0x00\n        /* \"test/test.sol\":14465:14474  data.size */\n      0x02\n      add\n      sload\n        /* \"test/test.sol\":14458:14474  return data.size */\n      swap1\n      pop\n        /* \"test/test.sol\":14361:14482  function insert(uint k, uint v) public returns (uint size) {... */\n      swap3\n      swap2\n      pop\n      pop\n      jump\t// out\n        /* \"test/test.sol\":14490:14721  function sum() public view returns (uint s){... */\n    tag_12:\n        /* \"test/test.sol\":14526:14532  uint s */\n      0x00\n        /* \"test/test.sol\":14549:14559  Iterator i */\n      0x00\n        /* \"test/test.sol\":14562:14581  data.iterateStart() */\n      tag_21\n        /* \"test/test.sol\":14562:14566  data */\n      0x00\n        /* \"test/test.sol\":14562:14579  data.iterateStart */\n      tag_22\n        /* \"test/test.sol\":14562:14581  data.iterateStart() */\n      jump\t// in\n    tag_21:\n        /* \"test/test.sol\":14549:14581  Iterator i = data.iterateStart() */\n      swap1\n      pop\n        /* \"test/test.sol\":14544:14714  for (Iterator i = data.iterateStart(); data.iterateValid(i); i=data.iterateNext(i)) {... */\n    tag_18:\n        /* \"test/test.sol\":14583:14603  data.iterateValid(i) */\n      tag_23\n        /* \"test/test.sol\":14601:14602  i */\n      dup2\n        /* \"test/test.sol\":14583:14587  data */\n      0x00\n        /* \"test/test.sol\":14583:14600  data.iterateValid */\n      tag_24\n      swap1\n        /* \"test/test.sol\":14583:14603  data.iterateValid(i) */\n      swap2\n      swap1\n      0xffffffff\n      and\n      jump\t// in\n    tag_23:\n        /* \"test/test.sol\":14544:14714  for (Iterator i = data.iterateStart(); data.iterateValid(i); i=data.iterateNext(i)) {... */\n      iszero\n      tag_19\n      jumpi\n        /* \"test/test.sol\":14645:14655  uint value */\n      0x00\n        /* \"test/test.sol\":14659:14677  data.iterateGet(i) */\n      tag_25\n        /* \"test/test.sol\":14675:14676  i */\n      dup3\n        /* \"test/test.sol\":14659:14663  data */\n      0x00\n        /* \"test/test.sol\":14659:14674  data.iterateGet */\n      tag_26\n      swap1\n        /* \"test/test.sol\":14659:14677  data.iterateGet(i) */\n      swap2\n      swap1\n      0xffffffff\n      and\n      jump\t// in\n    tag_25:\n        /* \"test/test.sol\":14643:14677  (,uint value) = data.iterateGet(i) */\n      swap2\n      pop\n      pop\n        /* \"test/test.sol\":14697:14702  value */\n      dup1\n        /* \"test/test.sol\":14692:14702  s += value */\n      dup4\n      tag_27\n      swap2\n      swap1\n      tag_28\n      jump\t// in\n    tag_27:\n      swap3\n      pop\n        /* \"test/test.sol\":14628:14714  {... */\n      pop\n        /* \"test/test.sol\":14607:14626  data.iterateNext(i) */\n      tag_29\n        /* \"test/test.sol\":14624:14625  i */\n      dup2\n        /* \"test/test.sol\":14607:14611  data */\n      0x00\n        /* \"test/test.sol\":14607:14623  data.iterateNext */\n      tag_30\n      swap1\n        /* \"test/test.sol\":14607:14626  data.iterateNext(i) */\n      swap2\n      swap1\n      0xffffffff\n      and\n      jump\t// in\n    tag_29:\n        /* \"test/test.sol\":14605:14626  i=data.iterateNext(i) */\n      swap1\n      pop\n        /* \"test/test.sol\":14544:14714  for (Iterator i = data.iterateStart(); data.iterateValid(i); i=data.iterateNext(i)) {... */\n      jump(tag_18)\n    tag_19:\n      pop\n        /* \"test/test.sol\":14490:14721  function sum() public view returns (uint s){... */\n      swap1\n      jump\t// out\n        /* \"test/test.sol\":12342:12827  function insert(itmap storage self, uint key, uint value) internal returns(bool replaced){... */\n    tag_16:\n        /* \"test/test.sol\":12417:12430  bool replaced */\n      0x00\n        /* \"test/test.sol\":12442:12455  uint keyIndex */\n      0x00\n        /* \"test/test.sol\":12458:12462  self */\n      dup5\n        /* \"test/test.sol\":12458:12467  self.data */\n      0x00\n      add\n        /* \"test/test.sol\":12458:12472  self.data[key] */\n      0x00\n        /* \"test/test.sol\":12468:12471  key */\n      dup6\n        /* \"test/test.sol\":12458:12472  self.data[key] */\n      dup2\n      mstore\n      0x20\n      add\n      swap1\n      dup2\n      mstore\n      0x20\n      add\n      0x00\n      keccak256\n        /* \"test/test.sol\":12458:12481  self.data[key].keyIndex */\n      0x00\n      add\n      sload\n        /* \"test/test.sol\":12442:12481  uint keyIndex = self.data[key].keyIndex */\n      swap1\n      pop\n        /* \"test/test.sol\":12515:12520  value */\n      dup3\n        /* \"test/test.sol\":12492:12496  self */\n      dup6\n        /* \"test/test.sol\":12492:12501  self.data */\n      0x00\n      add\n        /* \"test/test.sol\":12492:12506  self.data[key] */\n      0x00\n        /* \"test/test.sol\":12502:12505  key */\n      dup7\n        /* \"test/test.sol\":12492:12506  self.data[key] */\n      dup2\n      mstore\n      0x20\n      add\n      swap1\n      dup2\n      mstore\n      0x20\n      add\n      0x00\n      keccak256\n        /* \"test/test.sol\":12492:12512  self.data[key].value */\n      0x01\n      add\n        /* \"test/test.sol\":12492:12520  self.data[key].value = value */\n      dup2\n      swap1\n      sstore\n      pop\n        /* \"test/test.sol\":12545:12546  0 */\n      0x00\n        /* \"test/test.sol\":12534:12542  keyIndex */\n      dup2\n        /* \"test/test.sol\":12534:12546  keyIndex > 0 */\n      gt\n        /* \"test/test.sol\":12531:12818  if(keyIndex > 0){... */\n      iszero\n      tag_32\n      jumpi\n        /* \"test/test.sol\":12568:12572  true */\n      0x01\n        /* \"test/test.sol\":12561:12572  return true */\n      swap2\n      pop\n      pop\n      jump(tag_31)\n        /* \"test/test.sol\":12531:12818  if(keyIndex > 0){... */\n    tag_32:\n        /* \"test/test.sol\":12613:12617  self */\n      dup5\n        /* \"test/test.sol\":12613:12622  self.keys */\n      0x01\n      add\n        /* \"test/test.sol\":12613:12629  self.keys.length */\n      dup1\n      sload\n      swap1\n      pop\n        /* \"test/test.sol\":12602:12629  keyIndex = self.keys.length */\n      swap1\n      pop\n        /* \"test/test.sol\":12643:12647  self */\n      dup5\n        /* \"test/test.sol\":12643:12652  self.keys */\n      0x01\n      add\n        /* \"test/test.sol\":12643:12659  self.keys.push() */\n      0x01\n      dup2\n      0x01\n      dup2\n      sload\n      add\n      dup1\n      dup3\n      sstore\n      dup1\n      swap2\n      pop\n      pop\n      sub\n      swap1\n      0x00\n      mstore\n      keccak256(0x00, 0x20)\n      swap1\n      pop\n      pop\n        /* \"test/test.sol\":12710:12711  1 */\n      0x01\n        /* \"test/test.sol\":12699:12707  keyIndex */\n      dup2\n        /* \"test/test.sol\":12699:12711  keyIndex + 1 */\n      tag_35\n      swap2\n      swap1\n      tag_28\n      jump\t// in\n    tag_35:\n        /* \"test/test.sol\":12673:12677  self */\n      dup6\n        /* \"test/test.sol\":12673:12682  self.data */\n      0x00\n      add\n        /* \"test/test.sol\":12673:12687  self.data[key] */\n      0x00\n        /* \"test/test.sol\":12683:12686  key */\n      dup7\n        /* \"test/test.sol\":12673:12687  self.data[key] */\n      dup2\n      mstore\n      0x20\n      add\n      swap1\n      dup2\n      mstore\n      0x20\n      add\n      0x00\n      keccak256\n        /* \"test/test.sol\":12673:12696  self.data[key].keyIndex */\n      0x00\n      add\n        /* \"test/test.sol\":12673:12711  self.data[key].keyIndex = keyIndex + 1 */\n      dup2\n      swap1\n      sstore\n      pop\n        /* \"test/test.sol\":12751:12754  key */\n      dup4\n        /* \"test/test.sol\":12725:12729  self */\n      dup6\n        /* \"test/test.sol\":12725:12734  self.keys */\n      0x01\n      add\n        /* \"test/test.sol\":12735:12743  keyIndex */\n      dup3\n        /* \"test/test.sol\":12725:12744  self.keys[keyIndex] */\n      dup2\n      sload\n      dup2\n      lt\n      tag_36\n      jumpi\n      tag_37\n      tag_38\n      jump\t// in\n    tag_37:\n    tag_36:\n      swap1\n      0x00\n      mstore\n      keccak256(0x00, 0x20)\n      swap1\n      0x02\n      mul\n      add\n        /* \"test/test.sol\":12725:12748  self.keys[keyIndex].key */\n      0x00\n      add\n        /* \"test/test.sol\":12725:12754  self.keys[keyIndex].key = key */\n      dup2\n      swap1\n      sstore\n      pop\n        /* \"test/test.sol\":12768:12772  self */\n      dup5\n        /* \"test/test.sol\":12768:12777  self.size */\n      0x02\n      add\n      0x00\n        /* \"test/test.sol\":12768:12779  self.size++ */\n      dup2\n      sload\n      dup1\n      swap3\n      swap2\n      swap1\n      tag_40\n      swap1\n      tag_41\n      jump\t// in\n    tag_40:\n      swap2\n      swap1\n      pop\n      sstore\n      pop\n        /* \"test/test.sol\":12800:12805  false */\n      0x00\n        /* \"test/test.sol\":12793:12805  return false */\n      swap2\n      pop\n      pop\n        /* \"test/test.sol\":12342:12827  function insert(itmap storage self, uint key, uint value) internal returns(bool replaced){... */\n    tag_31:\n      swap4\n      swap3\n      pop\n      pop\n      pop\n      jump\t// out\n        /* \"test/test.sol\":13283:13412  function iterateStart(itmap storage self) internal view returns (Iterator){... */\n    tag_22:\n        /* \"test/test.sol\":13348:13356  Iterator */\n      0x00\n        /* \"test/test.sol\":13374:13402  iteratorSkipDeleted(self, 0) */\n      tag_43\n        /* \"test/test.sol\":13394:13398  self */\n      dup3\n        /* \"test/test.sol\":13400:13401  0 */\n      0x00\n        /* \"test/test.sol\":13374:13393  iteratorSkipDeleted */\n      tag_44\n        /* \"test/test.sol\":13374:13402  iteratorSkipDeleted(self, 0) */\n      jump\t// in\n    tag_43:\n        /* \"test/test.sol\":13367:13402  return iteratorSkipDeleted(self, 0) */\n      swap1\n      pop\n        /* \"test/test.sol\":13283:13412  function iterateStart(itmap storage self) internal view returns (Iterator){... */\n      swap2\n      swap1\n      pop\n      jump\t// out\n        /* \"test/test.sol\":13420:13579  function iterateValid(itmap storage self, Iterator iterator) internal view returns(bool) {... */\n    tag_24:\n        /* \"test/test.sol\":13503:13507  bool */\n      0x00\n        /* \"test/test.sol\":13555:13559  self */\n      dup3\n        /* \"test/test.sol\":13555:13564  self.keys */\n      0x01\n      add\n        /* \"test/test.sol\":13555:13571  self.keys.length */\n      dup1\n      sload\n      swap1\n      pop\n        /* \"test/test.sol\":13543:13551  iterator */\n      dup3\n        /* \"test/test.sol\":13527:13571  Iterator.unwrap(iterator) < self.keys.length */\n      lt\n        /* \"test/test.sol\":13520:13571  return Iterator.unwrap(iterator) < self.keys.length */\n      swap1\n      pop\n        /* \"test/test.sol\":13420:13579  function iterateValid(itmap storage self, Iterator iterator) internal view returns(bool) {... */\n      swap3\n      swap2\n      pop\n      pop\n      jump\t// out\n        /* \"test/test.sol\":13767:14009  function iterateGet(itmap storage self, Iterator iterator) internal view returns (uint key,uint value) {... */\n    tag_26:\n        /* \"test/test.sol\":13849:13857  uint key */\n      0x00\n        /* \"test/test.sol\":13858:13868  uint value */\n      0x00\n        /* \"test/test.sol\":13881:13894  uint keyIndex */\n      0x00\n        /* \"test/test.sol\":13913:13921  iterator */\n      dup4\n        /* \"test/test.sol\":13881:13922  uint keyIndex = Iterator.unwrap(iterator) */\n      swap1\n      pop\n        /* \"test/test.sol\":13939:13943  self */\n      dup5\n        /* \"test/test.sol\":13939:13948  self.keys */\n      0x01\n      add\n        /* \"test/test.sol\":13949:13957  keyIndex */\n      dup2\n        /* \"test/test.sol\":13939:13958  self.keys[keyIndex] */\n      dup2\n      sload\n      dup2\n      lt\n      tag_47\n      jumpi\n      tag_48\n      tag_38\n      jump\t// in\n    tag_48:\n    tag_47:\n      swap1\n      0x00\n      mstore\n      keccak256(0x00, 0x20)\n      swap1\n      0x02\n      mul\n      add\n        /* \"test/test.sol\":13939:13962  self.keys[keyIndex].key */\n      0x00\n      add\n      sload\n        /* \"test/test.sol\":13933:13962  key = self.keys[keyIndex].key */\n      swap3\n      pop\n        /* \"test/test.sol\":13981:13985  self */\n      dup5\n        /* \"test/test.sol\":13981:13990  self.data */\n      0x00\n      add\n        /* \"test/test.sol\":13981:13995  self.data[key] */\n      0x00\n        /* \"test/test.sol\":13991:13994  key */\n      dup5\n        /* \"test/test.sol\":13981:13995  self.data[key] */\n      dup2\n      mstore\n      0x20\n      add\n      swap1\n      dup2\n      mstore\n      0x20\n      add\n      0x00\n      keccak256\n        /* \"test/test.sol\":13981:14001  self.data[key].value */\n      0x01\n      add\n      sload\n        /* \"test/test.sol\":13973:14001  value = self.data[key].value */\n      swap2\n      pop\n        /* \"test/test.sol\":13870:14009  {... */\n      pop\n        /* \"test/test.sol\":13767:14009  function iterateGet(itmap storage self, Iterator iterator) internal view returns (uint key,uint value) {... */\n      swap3\n      pop\n      swap3\n      swap1\n      pop\n      jump\t// out\n        /* \"test/test.sol\":13587:13759  function iterateNext(itmap storage self, Iterator iterator) internal view returns (Iterator){... */\n    tag_30:\n        /* \"test/test.sol\":13670:13678  Iterator */\n      0x00\n        /* \"test/test.sol\":13697:13751  iteratorSkipDeleted(self, Iterator.unwrap(iterator)+1) */\n      tag_51\n        /* \"test/test.sol\":13717:13721  self */\n      dup4\n        /* \"test/test.sol\":13749:13750  1 */\n      0x01\n        /* \"test/test.sol\":13739:13747  iterator */\n      dup5\n        /* \"test/test.sol\":13723:13750  Iterator.unwrap(iterator)+1 */\n      tag_52\n      swap2\n      swap1\n      tag_28\n      jump\t// in\n    tag_52:\n        /* \"test/test.sol\":13697:13716  iteratorSkipDeleted */\n      tag_44\n        /* \"test/test.sol\":13697:13751  iteratorSkipDeleted(self, Iterator.unwrap(iterator)+1) */\n      jump\t// in\n    tag_51:\n        /* \"test/test.sol\":13690:13751  return iteratorSkipDeleted(self, Iterator.unwrap(iterator)+1) */\n      swap1\n      pop\n        /* \"test/test.sol\":13587:13759  function iterateNext(itmap storage self, Iterator iterator) internal view returns (Iterator){... */\n      swap3\n      swap2\n      pop\n      pop\n      jump\t// out\n        /* \"test/test.sol\":14017:14275  function iteratorSkipDeleted(itmap storage self, uint keyIndex) private view returns (Iterator){... */\n    tag_44:\n        /* \"test/test.sol\":14103:14111  Iterator */\n      0x00\n        /* \"test/test.sol\":14123:14227  while (keyIndex < self.keys.length && self.keys[keyIndex].deleted){... */\n    tag_54:\n        /* \"test/test.sol\":14141:14145  self */\n      dup3\n        /* \"test/test.sol\":14141:14150  self.keys */\n      0x01\n      add\n        /* \"test/test.sol\":14141:14157  self.keys.length */\n      dup1\n      sload\n      swap1\n      pop\n        /* \"test/test.sol\":14130:14138  keyIndex */\n      dup3\n        /* \"test/test.sol\":14130:14157  keyIndex < self.keys.length */\n      lt\n        /* \"test/test.sol\":14130:14188  keyIndex < self.keys.length && self.keys[keyIndex].deleted */\n      dup1\n      iszero\n      tag_56\n      jumpi\n      pop\n        /* \"test/test.sol\":14161:14165  self */\n      dup3\n        /* \"test/test.sol\":14161:14170  self.keys */\n      0x01\n      add\n        /* \"test/test.sol\":14171:14179  keyIndex */\n      dup3\n        /* \"test/test.sol\":14161:14180  self.keys[keyIndex] */\n      dup2\n      sload\n      dup2\n      lt\n      tag_57\n      jumpi\n      tag_58\n      tag_38\n      jump\t// in\n    tag_58:\n    tag_57:\n      swap1\n      0x00\n      mstore\n      keccak256(0x00, 0x20)\n      swap1\n      0x02\n      mul\n      add\n        /* \"test/test.sol\":14161:14188  self.keys[keyIndex].deleted */\n      0x01\n      add\n      0x00\n      swap1\n      sload\n      swap1\n      0x0100\n      exp\n      swap1\n      div\n      0xff\n      and\n        /* \"test/test.sol\":14130:14188  keyIndex < self.keys.length && self.keys[keyIndex].deleted */\n    tag_56:\n        /* \"test/test.sol\":14123:14227  while (keyIndex < self.keys.length && self.keys[keyIndex].deleted){... */\n      iszero\n      tag_55\n      jumpi\n        /* \"test/test.sol\":14204:14215  keyIndex ++ */\n      dup2\n      dup1\n      tag_60\n      swap1\n      tag_41\n      jump\t// in\n    tag_60:\n      swap3\n      pop\n      pop\n        /* \"test/test.sol\":14123:14227  while (keyIndex < self.keys.length && self.keys[keyIndex].deleted){... */\n      jump(tag_54)\n    tag_55:\n        /* \"test/test.sol\":14258:14266  keyIndex */\n      dup2\n        /* \"test/test.sol\":14237:14267  return Iterator.wrap(keyIndex) */\n      swap1\n      pop\n        /* \"test/test.sol\":14017:14275  function iteratorSkipDeleted(itmap storage self, uint keyIndex) private view returns (Iterator){... */\n      swap3\n      swap2\n      pop\n      pop\n      jump\t// out\n        /* \"#utility.yul\":88:205   */\n    tag_62:\n        /* \"#utility.yul\":197:198   */\n      0x00\n        /* \"#utility.yul\":194:195   */\n      0x00\n        /* \"#utility.yul\":187:199   */\n      revert\n        /* \"#utility.yul\":334:411   */\n    tag_64:\n        /* \"#utility.yul\":371:378   */\n      0x00\n        /* \"#utility.yul\":400:405   */\n      dup2\n        /* \"#utility.yul\":389:405   */\n      swap1\n      pop\n        /* \"#utility.yul\":334:411   */\n      swap2\n      swap1\n      pop\n      jump\t// out\n        /* \"#utility.yul\":417:539   */\n    tag_65:\n        /* \"#utility.yul\":490:514   */\n      tag_75\n        /* \"#utility.yul\":508:513   */\n      dup2\n        /* \"#utility.yul\":490:514   */\n      tag_64\n      jump\t// in\n    tag_75:\n        /* \"#utility.yul\":483:488   */\n      dup2\n        /* \"#utility.yul\":480:515   */\n      eq\n        /* \"#utility.yul\":470:533   */\n      tag_76\n      jumpi\n        /* \"#utility.yul\":529:530   */\n      0x00\n        /* \"#utility.yul\":526:527   */\n      0x00\n        /* \"#utility.yul\":519:531   */\n      revert\n        /* \"#utility.yul\":470:533   */\n    tag_76:\n        /* \"#utility.yul\":417:539   */\n      pop\n      jump\t// out\n        /* \"#utility.yul\":545:684   */\n    tag_66:\n        /* \"#utility.yul\":591:596   */\n      0x00\n        /* \"#utility.yul\":629:635   */\n      dup2\n        /* \"#utility.yul\":616:636   */\n      calldataload\n        /* \"#utility.yul\":607:636   */\n      swap1\n      pop\n        /* \"#utility.yul\":645:678   */\n      tag_78\n        /* \"#utility.yul\":672:677   */\n      dup2\n        /* \"#utility.yul\":645:678   */\n      tag_65\n      jump\t// in\n    tag_78:\n        /* \"#utility.yul\":545:684   */\n      swap3\n      swap2\n      pop\n      pop\n      jump\t// out\n        /* \"#utility.yul\":690:1164   */\n    tag_7:\n        /* \"#utility.yul\":758:764   */\n      0x00\n        /* \"#utility.yul\":766:772   */\n      0x00\n        /* \"#utility.yul\":815:817   */\n      0x40\n        /* \"#utility.yul\":803:812   */\n      dup4\n        /* \"#utility.yul\":794:801   */\n      dup6\n        /* \"#utility.yul\":790:813   */\n      sub\n        /* \"#utility.yul\":786:818   */\n      slt\n        /* \"#utility.yul\":783:902   */\n      iszero\n      tag_80\n      jumpi\n        /* \"#utility.yul\":821:900   */\n      tag_81\n      tag_62\n      jump\t// in\n    tag_81:\n        /* \"#utility.yul\":783:902   */\n    tag_80:\n        /* \"#utility.yul\":941:942   */\n      0x00\n        /* \"#utility.yul\":966:1019   */\n      tag_82\n        /* \"#utility.yul\":1011:1018   */\n      dup6\n        /* \"#utility.yul\":1002:1008   */\n      dup3\n        /* \"#utility.yul\":991:1000   */\n      dup7\n        /* \"#utility.yul\":987:1009   */\n      add\n        /* \"#utility.yul\":966:1019   */\n      tag_66\n      jump\t// in\n    tag_82:\n        /* \"#utility.yul\":956:1019   */\n      swap3\n      pop\n        /* \"#utility.yul\":912:1029   */\n      pop\n        /* \"#utility.yul\":1068:1070   */\n      0x20\n        /* \"#utility.yul\":1094:1147   */\n      tag_83\n        /* \"#utility.yul\":1139:1146   */\n      dup6\n        /* \"#utility.yul\":1130:1136   */\n      dup3\n        /* \"#utility.yul\":1119:1128   */\n      dup7\n        /* \"#utility.yul\":1115:1137   */\n      add\n        /* \"#utility.yul\":1094:1147   */\n      tag_66\n      jump\t// in\n    tag_83:\n        /* \"#utility.yul\":1084:1147   */\n      swap2\n      pop\n        /* \"#utility.yul\":1039:1157   */\n      pop\n        /* \"#utility.yul\":690:1164   */\n      swap3\n      pop\n      swap3\n      swap1\n      pop\n      jump\t// out\n        /* \"#utility.yul\":1170:1288   */\n    tag_67:\n        /* \"#utility.yul\":1257:1281   */\n      tag_85\n        /* \"#utility.yul\":1275:1280   */\n      dup2\n        /* \"#utility.yul\":1257:1281   */\n      tag_64\n      jump\t// in\n    tag_85:\n        /* \"#utility.yul\":1252:1255   */\n      dup3\n        /* \"#utility.yul\":1245:1282   */\n      mstore\n        /* \"#utility.yul\":1170:1288   */\n      pop\n      pop\n      jump\t// out\n        /* \"#utility.yul\":1294:1516   */\n    tag_10:\n        /* \"#utility.yul\":1387:1391   */\n      0x00\n        /* \"#utility.yul\":1425:1427   */\n      0x20\n        /* \"#utility.yul\":1414:1423   */\n      dup3\n        /* \"#utility.yul\":1410:1428   */\n      add\n        /* \"#utility.yul\":1402:1428   */\n      swap1\n      pop\n        /* \"#utility.yul\":1438:1509   */\n      tag_87\n        /* \"#utility.yul\":1506:1507   */\n      0x00\n        /* \"#utility.yul\":1495:1504   */\n      dup4\n        /* \"#utility.yul\":1491:1508   */\n      add\n        /* \"#utility.yul\":1482:1488   */\n      dup5\n        /* \"#utility.yul\":1438:1509   */\n      tag_67\n      jump\t// in\n    tag_87:\n        /* \"#utility.yul\":1294:1516   */\n      swap3\n      swap2\n      pop\n      pop\n      jump\t// out\n        /* \"#utility.yul\":1522:1702   */\n    tag_68:\n        /* \"#utility.yul\":1570:1647   */\n      0x4e487b7100000000000000000000000000000000000000000000000000000000\n        /* \"#utility.yul\":1567:1568   */\n      0x00\n        /* \"#utility.yul\":1560:1648   */\n      mstore\n        /* \"#utility.yul\":1667:1671   */\n      0x11\n        /* \"#utility.yul\":1664:1665   */\n      0x04\n        /* \"#utility.yul\":1657:1672   */\n      mstore\n        /* \"#utility.yul\":1691:1695   */\n      0x24\n        /* \"#utility.yul\":1688:1689   */\n      0x00\n        /* \"#utility.yul\":1681:1696   */\n      revert\n        /* \"#utility.yul\":1708:1899   */\n    tag_28:\n        /* \"#utility.yul\":1748:1751   */\n      0x00\n        /* \"#utility.yul\":1767:1787   */\n      tag_90\n        /* \"#utility.yul\":1785:1786   */\n      dup3\n        /* \"#utility.yul\":1767:1787   */\n      tag_64\n      jump\t// in\n    tag_90:\n        /* \"#utility.yul\":1762:1787   */\n      swap2\n      pop\n        /* \"#utility.yul\":1801:1821   */\n      tag_91\n        /* \"#utility.yul\":1819:1820   */\n      dup4\n        /* \"#utility.yul\":1801:1821   */\n      tag_64\n      jump\t// in\n    tag_91:\n        /* \"#utility.yul\":1796:1821   */\n      swap3\n      pop\n        /* \"#utility.yul\":1844:1845   */\n      dup3\n        /* \"#utility.yul\":1841:1842   */\n      dup3\n        /* \"#utility.yul\":1837:1846   */\n      add\n        /* \"#utility.yul\":1830:1846   */\n      swap1\n      pop\n        /* \"#utility.yul\":1865:1868   */\n      dup1\n        /* \"#utility.yul\":1862:1863   */\n      dup3\n        /* \"#utility.yul\":1859:1869   */\n      gt\n        /* \"#utility.yul\":1856:1892   */\n      iszero\n      tag_92\n      jumpi\n        /* \"#utility.yul\":1872:1890   */\n      tag_93\n      tag_68\n      jump\t// in\n    tag_93:\n        /* \"#utility.yul\":1856:1892   */\n    tag_92:\n        /* \"#utility.yul\":1708:1899   */\n      swap3\n      swap2\n      pop\n      pop\n      jump\t// out\n        /* \"#utility.yul\":1905:2085   */\n    tag_38:\n        /* \"#utility.yul\":1953:2030   */\n      0x4e487b7100000000000000000000000000000000000000000000000000000000\n        /* \"#utility.yul\":1950:1951   */\n      0x00\n        /* \"#utility.yul\":1943:2031   */\n      mstore\n        /* \"#utility.yul\":2050:2054   */\n      0x32\n        /* \"#utility.yul\":2047:2048   */\n      0x04\n        /* \"#utility.yul\":2040:2055   */\n      mstore\n        /* \"#utility.yul\":2074:2078   */\n      0x24\n        /* \"#utility.yul\":2071:2072   */\n      0x00\n        /* \"#utility.yul\":2064:2079   */\n      revert\n        /* \"#utility.yul\":2091:2324   */\n    tag_41:\n        /* \"#utility.yul\":2130:2133   */\n      0x00\n        /* \"#utility.yul\":2153:2177   */\n      tag_96\n        /* \"#utility.yul\":2171:2176   */\n      dup3\n        /* \"#utility.yul\":2153:2177   */\n      tag_64\n      jump\t// in\n    tag_96:\n        /* \"#utility.yul\":2144:2177   */\n      swap2\n      pop\n        /* \"#utility.yul\":2199:2265   */\n      0xffffffffffffffffffffffffffffffffffffffffffffffffffffffffffffffff\n        /* \"#utility.yul\":2192:2197   */\n      dup3\n        /* \"#utility.yul\":2189:2266   */\n      sub\n        /* \"#utility.yul\":2186:2289   */\n      tag_97\n      jumpi\n        /* \"#utility.yul\":2269:2287   */\n      tag_98\n      tag_68\n      jump\t// in\n    tag_98:\n        /* \"#utility.yul\":2186:2289   */\n    tag_97:\n        /* \"#utility.yul\":2316:2317   */\n      0x01\n        /* \"#utility.yul\":2309:2314   */\n      dup3\n        /* \"#utility.yul\":2305:2318   */\n      add\n        /* \"#utility.yul\":2298:2318   */\n      swap1\n      pop\n        /* \"#utility.yul\":2091:2324   */\n      swap2\n      swap1\n      pop\n      jump\t// out\n\n    auxdata: 0xa2646970667358221220df7d00fe6b3876f1f2ef9cb2c2f098a608875c355b124470a03ea92d027b9a5a64736f6c634300081c0033\n}\n",
				"bytecode": {
					"linkReferences": {},
					"object": "6080604052348015600e575f5ffd5b506104938061001c5f395ff3fe608060405234801561000f575f5ffd5b5060043610610034575f3560e01c80631d834a1b14610038578063853255cc14610068575b5f5ffd5b610052600480360381019061004d9190610323565b610086565b60405161005f9190610370565b60405180910390f35b6100706100aa565b60405161007d9190610370565b60405180910390f35b5f61009c83835f6101149092919063ffffffff16565b505f60020154905092915050565b5f5f6100b55f6101f4565b90505b6100cb815f61020690919063ffffffff16565b15610110575f6100e4825f61021990919063ffffffff16565b91505080836100f391906103b6565b925050610109815f61026690919063ffffffff16565b90506100b8565b5090565b5f5f845f015f8581526020019081526020015f205f0154905082855f015f8681526020019081526020015f20600101819055505f8111156101595760019150506101ed565b846001018054905090508460010160018160018154018082558091505003905f5260205f2090505060018161018e91906103b6565b855f015f8681526020019081526020015f205f0181905550838560010182815481106101bd576101bc6103e9565b5b905f5260205f2090600202015f0181905550846002015f8154809291906101e390610416565b91905055505f9150505b9392505050565b5f6101ff825f610285565b9050919050565b5f82600101805490508210905092915050565b5f5f5f839050846001018181548110610235576102346103e9565b5b905f5260205f2090600202015f01549250845f015f8481526020019081526020015f20600101549150509250929050565b5f61027d8360018461027891906103b6565b610285565b905092915050565b5f5b8260010180549050821080156102cb57508260010182815481106102ae576102ad6103e9565b5b905f5260205f2090600202016001015f9054906101000a900460ff165b156102e35781806102db90610416565b925050610287565b81905092915050565b5f5ffd5b5f819050919050565b610302816102f0565b811461030c575f5ffd5b50565b5f8135905061031d816102f9565b92915050565b5f5f60408385031215610339576103386102ec565b5b5f6103468582860161030f565b92505060206103578582860161030f565b9150509250929050565b61036a816102f0565b82525050565b5f6020820190506103835f830184610361565b92915050565b7f4e487b71000000000000000000000000000000000000000000000000000000005f52601160045260245ffd5b5f6103c0826102f0565b91506103cb836102f0565b92508282019050808211156103e3576103e2610389565b5b92915050565b7f4e487b71000000000000000000000000000000000000000000000000000000005f52603260045260245ffd5b5f610420826102f0565b91507fffffffffffffffffffffffffffffffffffffffffffffffffffffffffffffffff820361045257610451610389565b5b60018201905091905056fea2646970667358221220df7d00fe6b3876f1f2ef9cb2c2f098a608875c355b124470a03ea92d027b9a5a64736f6c634300081c0033",
					"opcodes": "PUSH1 0x80 PUSH1 0x40 MSTORE CALLVALUE DUP1 ISZERO PUSH1 0xE JUMPI PUSH0 PUSH0 REVERT JUMPDEST POP PUSH2 0x493 DUP1 PUSH2 0x1C PUSH0 CODECOPY PUSH0 RETURN INVALID PUSH1 0x80 PUSH1 0x40 MSTORE CALLVALUE DUP1 ISZERO PUSH2 0xF JUMPI PUSH0 PUSH0 REVERT JUMPDEST POP PUSH1 0x4 CALLDATASIZE LT PUSH2 0x34 JUMPI PUSH0 CALLDATALOAD PUSH1 0xE0 SHR DUP1 PUSH4 0x1D834A1B EQ PUSH2 0x38 JUMPI DUP1 PUSH4 0x853255CC EQ PUSH2 0x68 JUMPI JUMPDEST PUSH0 PUSH0 REVERT JUMPDEST PUSH2 0x52 PUSH1 0x4 DUP1 CALLDATASIZE SUB DUP2 ADD SWAP1 PUSH2 0x4D SWAP2 SWAP1 PUSH2 0x323 JUMP JUMPDEST PUSH2 0x86 JUMP JUMPDEST PUSH1 0x40 MLOAD PUSH2 0x5F SWAP2 SWAP1 PUSH2 0x370 JUMP JUMPDEST PUSH1 0x40 MLOAD DUP1 SWAP2 SUB SWAP1 RETURN JUMPDEST PUSH2 0x70 PUSH2 0xAA JUMP JUMPDEST PUSH1 0x40 MLOAD PUSH2 0x7D SWAP2 SWAP1 PUSH2 0x370 JUMP JUMPDEST PUSH1 0x40 MLOAD DUP1 SWAP2 SUB SWAP1 RETURN JUMPDEST PUSH0 PUSH2 0x9C DUP4 DUP4 PUSH0 PUSH2 0x114 SWAP1 SWAP3 SWAP2 SWAP1 PUSH4 0xFFFFFFFF AND JUMP JUMPDEST POP PUSH0 PUSH1 0x2 ADD SLOAD SWAP1 POP SWAP3 SWAP2 POP POP JUMP JUMPDEST PUSH0 PUSH0 PUSH2 0xB5 PUSH0 PUSH2 0x1F4 JUMP JUMPDEST SWAP1 POP JUMPDEST PUSH2 0xCB DUP2 PUSH0 PUSH2 0x206 SWAP1 SWAP2 SWAP1 PUSH4 0xFFFFFFFF AND JUMP JUMPDEST ISZERO PUSH2 0x110 JUMPI PUSH0 PUSH2 0xE4 DUP3 PUSH0 PUSH2 0x219 SWAP1 SWAP2 SWAP1 PUSH4 0xFFFFFFFF AND JUMP JUMPDEST SWAP2 POP POP DUP1 DUP4 PUSH2 0xF3 SWAP2 SWAP1 PUSH2 0x3B6 JUMP JUMPDEST SWAP3 POP POP PUSH2 0x109 DUP2 PUSH0 PUSH2 0x266 SWAP1 SWAP2 SWAP1 PUSH4 0xFFFFFFFF AND JUMP JUMPDEST SWAP1 POP PUSH2 0xB8 JUMP JUMPDEST POP SWAP1 JUMP JUMPDEST PUSH0 PUSH0 DUP5 PUSH0 ADD PUSH0 DUP6 DUP2 MSTORE PUSH1 0x20 ADD SWAP1 DUP2 MSTORE PUSH1 0x20 ADD PUSH0 KECCAK256 PUSH0 ADD SLOAD SWAP1 POP DUP3 DUP6 PUSH0 ADD PUSH0 DUP7 DUP2 MSTORE PUSH1 0x20 ADD SWAP1 DUP2 MSTORE PUSH1 0x20 ADD PUSH0 KECCAK256 PUSH1 0x1 ADD DUP2 SWAP1 SSTORE POP PUSH0 DUP2 GT ISZERO PUSH2 0x159 JUMPI PUSH1 0x1 SWAP2 POP POP PUSH2 0x1ED JUMP JUMPDEST DUP5 PUSH1 0x1 ADD DUP1 SLOAD SWAP1 POP SWAP1 POP DUP5 PUSH1 0x1 ADD PUSH1 0x1 DUP2 PUSH1 0x1 DUP2 SLOAD ADD DUP1 DUP3 SSTORE DUP1 SWAP2 POP POP SUB SWAP1 PUSH0 MSTORE PUSH1 0x20 PUSH0 KECCAK256 SWAP1 POP POP PUSH1 0x1 DUP2 PUSH2 0x18E SWAP2 SWAP1 PUSH2 0x3B6 JUMP JUMPDEST DUP6 PUSH0 ADD PUSH0 DUP7 DUP2 MSTORE PUSH1 0x20 ADD SWAP1 DUP2 MSTORE PUSH1 0x20 ADD PUSH0 KECCAK256 PUSH0 ADD DUP2 SWAP1 SSTORE POP DUP4 DUP6 PUSH1 0x1 ADD DUP3 DUP2 SLOAD DUP2 LT PUSH2 0x1BD JUMPI PUSH2 0x1BC PUSH2 0x3E9 JUMP JUMPDEST JUMPDEST SWAP1 PUSH0 MSTORE PUSH1 0x20 PUSH0 KECCAK256 SWAP1 PUSH1 0x2 MUL ADD PUSH0 ADD DUP2 SWAP1 SSTORE POP DUP5 PUSH1 0x2 ADD PUSH0 DUP2 SLOAD DUP1 SWAP3 SWAP2 SWAP1 PUSH2 0x1E3 SWAP1 PUSH2 0x416 JUMP JUMPDEST SWAP2 SWAP1 POP SSTORE POP PUSH0 SWAP2 POP POP JUMPDEST SWAP4 SWAP3 POP POP POP JUMP JUMPDEST PUSH0 PUSH2 0x1FF DUP3 PUSH0 PUSH2 0x285 JUMP JUMPDEST SWAP1 POP SWAP2 SWAP1 POP JUMP JUMPDEST PUSH0 DUP3 PUSH1 0x1 ADD DUP1 SLOAD SWAP1 POP DUP3 LT SWAP1 POP SWAP3 SWAP2 POP POP JUMP JUMPDEST PUSH0 PUSH0 PUSH0 DUP4 SWAP1 POP DUP5 PUSH1 0x1 ADD DUP2 DUP2 SLOAD DUP2 LT PUSH2 0x235 JUMPI PUSH2 0x234 PUSH2 0x3E9 JUMP JUMPDEST JUMPDEST SWAP1 PUSH0 MSTORE PUSH1 0x20 PUSH0 KECCAK256 SWAP1 PUSH1 0x2 MUL ADD PUSH0 ADD SLOAD SWAP3 POP DUP5 PUSH0 ADD PUSH0 DUP5 DUP2 MSTORE PUSH1 0x20 ADD SWAP1 DUP2 MSTORE PUSH1 0x20 ADD PUSH0 KECCAK256 PUSH1 0x1 ADD SLOAD SWAP2 POP POP SWAP3 POP SWAP3 SWAP1 POP JUMP JUMPDEST PUSH0 PUSH2 0x27D DUP4 PUSH1 0x1 DUP5 PUSH2 0x278 SWAP2 SWAP1 PUSH2 0x3B6 JUMP JUMPDEST PUSH2 0x285 JUMP JUMPDEST SWAP1 POP SWAP3 SWAP2 POP POP JUMP JUMPDEST PUSH0 JUMPDEST DUP3 PUSH1 0x1 ADD DUP1 SLOAD SWAP1 POP DUP3 LT DUP1 ISZERO PUSH2 0x2CB JUMPI POP DUP3 PUSH1 0x1 ADD DUP3 DUP2 SLOAD DUP2 LT PUSH2 0x2AE JUMPI PUSH2 0x2AD PUSH2 0x3E9 JUMP JUMPDEST JUMPDEST SWAP1 PUSH0 MSTORE PUSH1 0x20 PUSH0 KECCAK256 SWAP1 PUSH1 0x2 MUL ADD PUSH1 0x1 ADD PUSH0 SWAP1 SLOAD SWAP1 PUSH2 0x100 EXP SWAP1 DIV PUSH1 0xFF AND JUMPDEST ISZERO PUSH2 0x2E3 JUMPI DUP2 DUP1 PUSH2 0x2DB SWAP1 PUSH2 0x416 JUMP JUMPDEST SWAP3 POP POP PUSH2 0x287 JUMP JUMPDEST DUP2 SWAP1 POP SWAP3 SWAP2 POP POP JUMP JUMPDEST PUSH0 PUSH0 REVERT JUMPDEST PUSH0 DUP2 SWAP1 POP SWAP2 SWAP1 POP JUMP JUMPDEST PUSH2 0x302 DUP2 PUSH2 0x2F0 JUMP JUMPDEST DUP2 EQ PUSH2 0x30C JUMPI PUSH0 PUSH0 REVERT JUMPDEST POP JUMP JUMPDEST PUSH0 DUP2 CALLDATALOAD SWAP1 POP PUSH2 0x31D DUP2 PUSH2 0x2F9 JUMP JUMPDEST SWAP3 SWAP2 POP POP JUMP JUMPDEST PUSH0 PUSH0 PUSH1 0x40 DUP4 DUP6 SUB SLT ISZERO PUSH2 0x339 JUMPI PUSH2 0x338 PUSH2 0x2EC JUMP JUMPDEST JUMPDEST PUSH0 PUSH2 0x346 DUP6 DUP3 DUP7 ADD PUSH2 0x30F JUMP JUMPDEST SWAP3 POP POP PUSH1 0x20 PUSH2 0x357 DUP6 DUP3 DUP7 ADD PUSH2 0x30F JUMP JUMPDEST SWAP2 POP POP SWAP3 POP SWAP3 SWAP1 POP JUMP JUMPDEST PUSH2 0x36A DUP2 PUSH2 0x2F0 JUMP JUMPDEST DUP3 MSTORE POP POP JUMP JUMPDEST PUSH0 PUSH1 0x20 DUP3 ADD SWAP1 POP PUSH2 0x383 PUSH0 DUP4 ADD DUP5 PUSH2 0x361 JUMP JUMPDEST SWAP3 SWAP2 POP POP JUMP JUMPDEST PUSH32 0x4E487B7100000000000000000000000000000000000000000000000000000000 PUSH0 MSTORE PUSH1 0x11 PUSH1 0x4 MSTORE PUSH1 0x24 PUSH0 REVERT JUMPDEST PUSH0 PUSH2 0x3C0 DUP3 PUSH2 0x2F0 JUMP JUMPDEST SWAP2 POP PUSH2 0x3CB DUP4 PUSH2 0x2F0 JUMP JUMPDEST SWAP3 POP DUP3 DUP3 ADD SWAP1 POP DUP1 DUP3 GT ISZERO PUSH2 0x3E3 JUMPI PUSH2 0x3E2 PUSH2 0x389 JUMP JUMPDEST JUMPDEST SWAP3 SWAP2 POP POP JUMP JUMPDEST PUSH32 0x4E487B7100000000000000000000000000000000000000000000000000000000 PUSH0 MSTORE PUSH1 0x32 PUSH1 0x4 MSTORE PUSH1 0x24 PUSH0 REVERT JUMPDEST PUSH0 PUSH2 0x420 DUP3 PUSH2 0x2F0 JUMP JUMPDEST SWAP2 POP PUSH32 0xFFFFFFFFFFFFFFFFFFFFFFFFFFFFFFFFFFFFFFFFFFFFFFFFFFFFFFFFFFFFFFFF DUP3 SUB PUSH2 0x452 JUMPI PUSH2 0x451 PUSH2 0x389 JUMP JUMPDEST JUMPDEST PUSH1 0x1 DUP3 ADD SWAP1 POP SWAP2 SWAP1 POP JUMP INVALID LOG2 PUSH5 0x6970667358 0x22 SLT KECCAK256 0xDF PUSH30 0xFE6B3876F1F2EF9CB2C2F098A608875C355B124470A03EA92D027B9A5A PUSH5 0x736F6C6343 STOP ADDMOD SHR STOP CALLER "
				},
				"gasEstimates": {
					"creation": {
						"codeDepositCost": "234200",
						"executionCost": "273",
						"totalCost": "234473"
					},
					"external": {
						"insert(uint256,uint256)": "infinite",
						"sum()": "infinite"
					}
				},
				"methodIdentifiers": {
					"insert(uint256,uint256)": "1d834a1b",
					"sum()": "853255cc"
				}
			},
			"storageLayout": {
				"storage": [
					{
						"astId": 303,
						"contract": "test/test.sol:User",
						"label": "data",
						"offset": 0,
						"slot": "0",
						"type": "t_struct(itmap)23_storage"
					}
				],
				"types": {
					"t_array(t_struct(KeyFlag)11_storage)dyn_storage": {
						"base": "t_struct(KeyFlag)11_storage",
						"encoding": "dynamic_array",
						"label": "struct KeyFlag[]",
						"numberOfBytes": "32"
					},
					"t_bool": {
						"encoding": "inplace",
						"label": "bool",
						"numberOfBytes": "1"
					},
					"t_mapping(t_uint256,t_struct(IndexValue)6_storage)": {
						"encoding": "mapping",
						"key": "t_uint256",
						"label": "mapping(uint256 => struct IndexValue)",
						"numberOfBytes": "32",
						"value": "t_struct(IndexValue)6_storage"
					},
					"t_struct(IndexValue)6_storage": {
						"encoding": "inplace",
						"label": "struct IndexValue",
						"members": [
							{
								"astId": 3,
								"contract": "test/test.sol:User",
								"label": "keyIndex",
								"offset": 0,
								"slot": "0",
								"type": "t_uint256"
							},
							{
								"astId": 5,
								"contract": "test/test.sol:User",
								"label": "value",
								"offset": 0,
								"slot": "1",
								"type": "t_uint256"
							}
						],
						"numberOfBytes": "64"
					},
					"t_struct(KeyFlag)11_storage": {
						"encoding": "inplace",
						"label": "struct KeyFlag",
						"members": [
							{
								"astId": 8,
								"contract": "test/test.sol:User",
								"label": "key",
								"offset": 0,
								"slot": "0",
								"type": "t_uint256"
							},
							{
								"astId": 10,
								"contract": "test/test.sol:User",
								"label": "deleted",
								"offset": 0,
								"slot": "1",
								"type": "t_bool"
							}
						],
						"numberOfBytes": "64"
					},
					"t_struct(itmap)23_storage": {
						"encoding": "inplace",
						"label": "struct itmap",
						"members": [
							{
								"astId": 16,
								"contract": "test/test.sol:User",
								"label": "data",
								"offset": 0,
								"slot": "0",
								"type": "t_mapping(t_uint256,t_struct(IndexValue)6_storage)"
							},
							{
								"astId": 20,
								"contract": "test/test.sol:User",
								"label": "keys",
								"offset": 0,
								"slot": "1",
								"type": "t_array(t_struct(KeyFlag)11_storage)dyn_storage"
							},
							{
								"astId": 22,
								"contract": "test/test.sol:User",
								"label": "size",
								"offset": 0,
								"slot": "2",
								"type": "t_uint256"
							}
						],
						"numberOfBytes": "96"
					},
					"t_uint256": {
						"encoding": "inplace",
						"label": "uint256",
						"numberOfBytes": "32"
					}
				}
			},
			"userdoc": {
				"kind": "user",
				"methods": {},
				"version": 1
			}
		}
	}
}