{
	"test/test3.sol": {
		"C": {
			"abi": [
				{
					"inputs": [],
					"name": "f",
					"outputs": [],
					"stateMutability": "pure",
					"type": "function"
				}
			],
			"devdoc": {
				"kind": "dev",
				"methods": {},
				"version": 1
			},
			"evm": {
				"assembly": "    /* \"test/test3.sol\":1468:1728  contract C {... */\n  mstore(0x40, 0x80)\n  callvalue\n  dup1\n  iszero\n  tag_1\n  jumpi\n  revert(0x00, 0x00)\ntag_1:\n  pop\n  dataSize(sub_0)\n  dup1\n  dataOffset(sub_0)\n  0x00\n  codecopy\n  0x00\n  return\nstop\n\nsub_0: assembly {\n        /* \"test/test3.sol\":1468:1728  contract C {... */\n      mstore(0x40, 0x80)\n      callvalue\n      dup1\n      iszero\n      tag_1\n      jumpi\n      revert(0x00, 0x00)\n    tag_1:\n      pop\n      jumpi(tag_2, lt(calldatasize, 0x04))\n      shr(0xe0, calldataload(0x00))\n      dup1\n      0x26121ff0\n      eq\n      tag_3\n      jumpi\n    tag_2:\n      revert(0x00, 0x00)\n        /* \"test/test3.sol\":1516:1725  function f() public pure {... */\n    tag_3:\n      tag_4\n      tag_5\n      jump\t// in\n    tag_4:\n      stop\n    tag_5:\n        /* \"test/test3.sol\":1552:1567  bigint memory x */\n      0x00\n        /* \"test/test3.sol\":1570:1588  BigInt.fromUint(7) */\n      tag_7\n        /* \"test/test3.sol\":1586:1587  7 */\n      0x07\n        /* \"test/test3.sol\":1570:1585  BigInt.fromUint */\n      tag_8\n        /* \"test/test3.sol\":1570:1588  BigInt.fromUint(7) */\n      jump\t// in\n    tag_7:\n        /* \"test/test3.sol\":1552:1588  bigint memory x = BigInt.fromUint(7) */\n      swap1\n      pop\n        /* \"test/test3.sol\":1599:1614  bigint memory y */\n      0x00\n        /* \"test/test3.sol\":1617:1648  BigInt.fromUint(type(uint).max) */\n      tag_9\n        /* \"test/test3.sol\":1633:1647  type(uint).max */\n      0xffffffffffffffffffffffffffffffffffffffffffffffffffffffffffffffff\n        /* \"test/test3.sol\":1617:1632  BigInt.fromUint */\n      tag_8\n        /* \"test/test3.sol\":1617:1648  BigInt.fromUint(type(uint).max) */\n      jump\t// in\n    tag_9:\n        /* \"test/test3.sol\":1599:1648  bigint memory y = BigInt.fromUint(type(uint).max) */\n      swap1\n      pop\n        /* \"test/test3.sol\":1659:1674  bigint memory z */\n      0x00\n        /* \"test/test3.sol\":1677:1685  x.add(y) */\n      tag_10\n        /* \"test/test3.sol\":1683:1684  y */\n      dup3\n        /* \"test/test3.sol\":1677:1678  x */\n      dup5\n        /* \"test/test3.sol\":1677:1682  x.add */\n      tag_11\n      swap1\n        /* \"test/test3.sol\":1677:1685  x.add(y) */\n      swap2\n      swap1\n      0xffffffff\n      and\n      jump\t// in\n    tag_10:\n        /* \"test/test3.sol\":1659:1685  bigint memory z = x.add(y) */\n      swap1\n      pop\n        /* \"test/test3.sol\":1715:1716  0 */\n      0x00\n        /* \"test/test3.sol\":1703:1712  z.limb(1) */\n      tag_12\n        /* \"test/test3.sol\":1710:1711  1 */\n      0x01\n        /* \"test/test3.sol\":1703:1704  z */\n      dup4\n        /* \"test/test3.sol\":1703:1709  z.limb */\n      tag_13\n      swap1\n        /* \"test/test3.sol\":1703:1712  z.limb(1) */\n      swap2\n      swap1\n      0xffffffff\n      and\n      jump\t// in\n    tag_12:\n        /* \"test/test3.sol\":1703:1716  z.limb(1) > 0 */\n      gt\n        /* \"test/test3.sol\":1696:1717  assert(z.limb(1) > 0) */\n      tag_14\n      jumpi\n      tag_15\n      tag_16\n      jump\t// in\n    tag_15:\n    tag_14:\n        /* \"test/test3.sol\":1541:1725  {... */\n      pop\n      pop\n      pop\n        /* \"test/test3.sol\":1516:1725  function f() public pure {... */\n      jump\t// out\n        /* \"test/test3.sol\":125:257  function fromUint(uint x) internal pure returns (bigint memory r){... */\n    tag_8:\n        /* \"test/test3.sol\":174:189  bigint memory r */\n      tag_17\n      tag_18\n      jump\t// in\n    tag_17:\n        /* \"test/test3.sol\":222:223  1 */\n      0x01\n        /* \"test/test3.sol\":211:224  new uint[](1) */\n      0xffffffffffffffff\n      dup2\n      gt\n      iszero\n      tag_20\n      jumpi\n      tag_21\n      tag_22\n      jump\t// in\n    tag_21:\n    tag_20:\n      mload(0x40)\n      swap1\n      dup1\n      dup3\n      mstore\n      dup1\n      0x20\n      mul\n      0x20\n      add\n      dup3\n      add\n      0x40\n      mstore\n      dup1\n      iszero\n      tag_23\n      jumpi\n      dup2\n      0x20\n      add\n      0x20\n      dup3\n      mul\n      dup1\n      calldatasize\n      dup4\n      calldatacopy\n      dup1\n      dup3\n      add\n      swap2\n      pop\n      pop\n      swap1\n      pop\n    tag_23:\n      pop\n        /* \"test/test3.sol\":201:202  r */\n      dup2\n        /* \"test/test3.sol\":201:208  r.limbs */\n      0x00\n      add\n        /* \"test/test3.sol\":201:224  r.limbs = new uint[](1) */\n      dup2\n      swap1\n      mstore\n      pop\n        /* \"test/test3.sol\":248:249  x */\n      dup2\n        /* \"test/test3.sol\":235:236  r */\n      dup2\n        /* \"test/test3.sol\":235:242  r.limbs */\n      0x00\n      add\n      mload\n        /* \"test/test3.sol\":243:244  0 */\n      0x00\n        /* \"test/test3.sol\":235:245  r.limbs[0] */\n      dup2\n      mload\n      dup2\n      lt\n      tag_24\n      jumpi\n      tag_25\n      tag_26\n      jump\t// in\n    tag_25:\n    tag_24:\n      0x20\n      mul\n      0x20\n      add\n      add\n        /* \"test/test3.sol\":235:249  r.limbs[0] = x */\n      dup2\n      dup2\n      mstore\n      pop\n      pop\n        /* \"test/test3.sol\":125:257  function fromUint(uint x) internal pure returns (bigint memory r){... */\n      swap2\n      swap1\n      pop\n      jump\t// out\n        /* \"test/test3.sol\":266:1203  function add(bigint memory a, bigint memory b) internal pure returns(bigint memory r) {... */\n    tag_11:\n        /* \"test/test3.sol\":335:350  bigint memory r */\n      tag_27\n      tag_18\n      jump\t// in\n    tag_27:\n        /* \"test/test3.sol\":385:419  max(a.limbs.length,b.limbs.length) */\n      tag_29\n        /* \"test/test3.sol\":389:390  a */\n      dup4\n        /* \"test/test3.sol\":389:396  a.limbs */\n      0x00\n      add\n      mload\n        /* \"test/test3.sol\":389:403  a.limbs.length */\n      mload\n        /* \"test/test3.sol\":404:405  b */\n      dup4\n        /* \"test/test3.sol\":404:411  b.limbs */\n      0x00\n      add\n      mload\n        /* \"test/test3.sol\":404:418  b.limbs.length */\n      mload\n        /* \"test/test3.sol\":385:388  max */\n      tag_30\n        /* \"test/test3.sol\":385:419  max(a.limbs.length,b.limbs.length) */\n      jump\t// in\n    tag_29:\n        /* \"test/test3.sol\":374:420  new uint[](max(a.limbs.length,b.limbs.length)) */\n      0xffffffffffffffff\n      dup2\n      gt\n      iszero\n      tag_31\n      jumpi\n      tag_32\n      tag_22\n      jump\t// in\n    tag_32:\n    tag_31:\n      mload(0x40)\n      swap1\n      dup1\n      dup3\n      mstore\n      dup1\n      0x20\n      mul\n      0x20\n      add\n      dup3\n      add\n      0x40\n      mstore\n      dup1\n      iszero\n      tag_33\n      jumpi\n      dup2\n      0x20\n      add\n      0x20\n      dup3\n      mul\n      dup1\n      calldatasize\n      dup4\n      calldatacopy\n      dup1\n      dup3\n      add\n      swap2\n      pop\n      pop\n      swap1\n      pop\n    tag_33:\n      pop\n        /* \"test/test3.sol\":364:365  r */\n      dup2\n        /* \"test/test3.sol\":364:371  r.limbs */\n      0x00\n      add\n        /* \"test/test3.sol\":364:420  r.limbs = new uint[](max(a.limbs.length,b.limbs.length)) */\n      dup2\n      swap1\n      mstore\n      pop\n        /* \"test/test3.sol\":432:442  uint carry */\n      0x00\n        /* \"test/test3.sol\":445:446  0 */\n      0x00\n        /* \"test/test3.sol\":432:446  uint carry = 0 */\n      swap1\n      pop\n        /* \"test/test3.sol\":462:468  uint i */\n      0x00\n        /* \"test/test3.sol\":469:470  0 */\n      0x00\n        /* \"test/test3.sol\":462:470  uint i=0 */\n      swap1\n      pop\n        /* \"test/test3.sol\":458:877  for(uint i=0; i < r.limbs.length; ++i){... */\n    tag_34:\n        /* \"test/test3.sol\":476:477  r */\n      dup3\n        /* \"test/test3.sol\":476:483  r.limbs */\n      0x00\n      add\n      mload\n        /* \"test/test3.sol\":476:490  r.limbs.length */\n      mload\n        /* \"test/test3.sol\":472:473  i */\n      dup2\n        /* \"test/test3.sol\":472:490  i < r.limbs.length */\n      lt\n        /* \"test/test3.sol\":458:877  for(uint i=0; i < r.limbs.length; ++i){... */\n      iszero\n      tag_35\n      jumpi\n        /* \"test/test3.sol\":511:521  uint limbA */\n      0x00\n        /* \"test/test3.sol\":524:533  limb(a,i) */\n      tag_37\n        /* \"test/test3.sol\":529:530  a */\n      dup7\n        /* \"test/test3.sol\":531:532  i */\n      dup4\n        /* \"test/test3.sol\":524:528  limb */\n      tag_13\n        /* \"test/test3.sol\":524:533  limb(a,i) */\n      jump\t// in\n    tag_37:\n        /* \"test/test3.sol\":511:533  uint limbA = limb(a,i) */\n      swap1\n      pop\n        /* \"test/test3.sol\":548:558  uint limbB */\n      0x00\n        /* \"test/test3.sol\":561:570  limb(b,i) */\n      tag_38\n        /* \"test/test3.sol\":566:567  b */\n      dup7\n        /* \"test/test3.sol\":568:569  i */\n      dup5\n        /* \"test/test3.sol\":561:565  limb */\n      tag_13\n        /* \"test/test3.sol\":561:570  limb(b,i) */\n      jump\t// in\n    tag_38:\n        /* \"test/test3.sol\":548:570  uint limbB = limb(b,i) */\n      swap1\n      pop\n        /* \"test/test3.sol\":644:649  carry */\n      dup4\n        /* \"test/test3.sol\":636:641  limbB */\n      dup2\n        /* \"test/test3.sol\":628:633  limbA */\n      dup4\n        /* \"test/test3.sol\":628:641  limbA + limbB */\n      add\n        /* \"test/test3.sol\":628:649  limbA + limbB + carry */\n      add\n        /* \"test/test3.sol\":615:616  r */\n      dup6\n        /* \"test/test3.sol\":615:622  r.limbs */\n      0x00\n      add\n      mload\n        /* \"test/test3.sol\":623:624  i */\n      dup5\n        /* \"test/test3.sol\":615:625  r.limbs[i] */\n      dup2\n      mload\n      dup2\n      lt\n      tag_39\n      jumpi\n      tag_40\n      tag_26\n      jump\t// in\n    tag_40:\n    tag_39:\n      0x20\n      mul\n      0x20\n      add\n      add\n        /* \"test/test3.sol\":615:649  r.limbs[i] = limbA + limbB + carry */\n      dup2\n      dup2\n      mstore\n      pop\n      pop\n        /* \"test/test3.sol\":687:692  limbA */\n      dup2\n        /* \"test/test3.sol\":679:684  limbB */\n      dup2\n        /* \"test/test3.sol\":671:676  limbA */\n      dup4\n        /* \"test/test3.sol\":671:684  limbA + limbB */\n      add\n        /* \"test/test3.sol\":671:692  limbA + limbB < limbA */\n      lt\n        /* \"test/test3.sol\":671:741  limbA + limbB < limbA || (limbA + limbB == type(uint).max && carry >0) */\n      dup1\n      tag_41\n      jumpi\n      pop\n        /* \"test/test3.sol\":714:728  type(uint).max */\n      0xffffffffffffffffffffffffffffffffffffffffffffffffffffffffffffffff\n        /* \"test/test3.sol\":705:710  limbB */\n      dup2\n        /* \"test/test3.sol\":697:702  limbA */\n      dup4\n        /* \"test/test3.sol\":697:710  limbA + limbB */\n      add\n        /* \"test/test3.sol\":697:728  limbA + limbB == type(uint).max */\n      eq\n        /* \"test/test3.sol\":697:740  limbA + limbB == type(uint).max && carry >0 */\n      dup1\n      iszero\n      tag_42\n      jumpi\n      pop\n        /* \"test/test3.sol\":739:740  0 */\n      0x00\n        /* \"test/test3.sol\":732:737  carry */\n      dup5\n        /* \"test/test3.sol\":732:740  carry >0 */\n      gt\n        /* \"test/test3.sol\":697:740  limbA + limbB == type(uint).max && carry >0 */\n    tag_42:\n        /* \"test/test3.sol\":671:741  limbA + limbB < limbA || (limbA + limbB == type(uint).max && carry >0) */\n    tag_41:\n        /* \"test/test3.sol\":668:850  if(limbA + limbB < limbA || (limbA + limbB == type(uint).max && carry >0)){... */\n      iszero\n      tag_43\n      jumpi\n        /* \"test/test3.sol\":773:774  1 */\n      0x01\n        /* \"test/test3.sol\":765:774  carry = 1 */\n      swap4\n      pop\n        /* \"test/test3.sol\":668:850  if(limbA + limbB < limbA || (limbA + limbB == type(uint).max && carry >0)){... */\n      jump(tag_44)\n    tag_43:\n        /* \"test/test3.sol\":829:830  0 */\n      0x00\n        /* \"test/test3.sol\":821:830  carry = 0 */\n      swap4\n      pop\n        /* \"test/test3.sol\":668:850  if(limbA + limbB < limbA || (limbA + limbB == type(uint).max && carry >0)){... */\n    tag_44:\n        /* \"test/test3.sol\":496:877  {... */\n      pop\n      pop\n        /* \"test/test3.sol\":492:495  ++i */\n      dup1\n      0x01\n      add\n      swap1\n      pop\n        /* \"test/test3.sol\":458:877  for(uint i=0; i < r.limbs.length; ++i){... */\n      jump(tag_34)\n    tag_35:\n      pop\n        /* \"test/test3.sol\":899:900  0 */\n      0x00\n        /* \"test/test3.sol\":891:896  carry */\n      dup2\n        /* \"test/test3.sol\":891:900  carry > 0 */\n      gt\n        /* \"test/test3.sol\":888:1196  if(carry > 0){... */\n      iszero\n      tag_45\n      jumpi\n        /* \"test/test3.sol\":916:938  uint[] memory newLimbs */\n      0x00\n        /* \"test/test3.sol\":969:970  1 */\n      0x01\n        /* \"test/test3.sol\":952:953  r */\n      dup4\n        /* \"test/test3.sol\":952:959  r.limbs */\n      0x00\n      add\n      mload\n        /* \"test/test3.sol\":952:966  r.limbs.length */\n      mload\n        /* \"test/test3.sol\":952:970  r.limbs.length + 1 */\n      tag_46\n      swap2\n      swap1\n      tag_47\n      jump\t// in\n    tag_46:\n        /* \"test/test3.sol\":941:971  new uint[](r.limbs.length + 1) */\n      0xffffffffffffffff\n      dup2\n      gt\n      iszero\n      tag_48\n      jumpi\n      tag_49\n      tag_22\n      jump\t// in\n    tag_49:\n    tag_48:\n      mload(0x40)\n      swap1\n      dup1\n      dup3\n      mstore\n      dup1\n      0x20\n      mul\n      0x20\n      add\n      dup3\n      add\n      0x40\n      mstore\n      dup1\n      iszero\n      tag_50\n      jumpi\n      dup2\n      0x20\n      add\n      0x20\n      dup3\n      mul\n      dup1\n      calldatasize\n      dup4\n      calldatacopy\n      dup1\n      dup3\n      add\n      swap2\n      pop\n      pop\n      swap1\n      pop\n    tag_50:\n      pop\n        /* \"test/test3.sol\":916:971  uint[] memory newLimbs = new uint[](r.limbs.length + 1) */\n      swap1\n      pop\n        /* \"test/test3.sol\":986:992  uint i */\n      0x00\n        /* \"test/test3.sol\":1014:1015  0 */\n      0x00\n        /* \"test/test3.sol\":1012:1015  i=0 */\n      swap1\n      pop\n        /* \"test/test3.sol\":1007:1117  for (i=0; i < r.limbs.length; ++i) ... */\n    tag_51:\n        /* \"test/test3.sol\":1021:1022  r */\n      dup4\n        /* \"test/test3.sol\":1021:1028  r.limbs */\n      0x00\n      add\n      mload\n        /* \"test/test3.sol\":1021:1035  r.limbs.length */\n      mload\n        /* \"test/test3.sol\":1017:1018  i */\n      dup2\n        /* \"test/test3.sol\":1017:1035  i < r.limbs.length */\n      lt\n        /* \"test/test3.sol\":1007:1117  for (i=0; i < r.limbs.length; ++i) ... */\n      iszero\n      tag_52\n      jumpi\n        /* \"test/test3.sol\":1088:1089  r */\n      dup4\n        /* \"test/test3.sol\":1088:1095  r.limbs */\n      0x00\n      add\n      mload\n        /* \"test/test3.sol\":1096:1097  i */\n      dup2\n        /* \"test/test3.sol\":1088:1098  r.limbs[i] */\n      dup2\n      mload\n      dup2\n      lt\n      tag_54\n      jumpi\n      tag_55\n      tag_26\n      jump\t// in\n    tag_55:\n    tag_54:\n      0x20\n      mul\n      0x20\n      add\n      add\n      mload\n        /* \"test/test3.sol\":1074:1082  newLimbs */\n      dup3\n        /* \"test/test3.sol\":1083:1084  i */\n      dup3\n        /* \"test/test3.sol\":1074:1085  newLimbs[i] */\n      dup2\n      mload\n      dup2\n      lt\n      tag_56\n      jumpi\n      tag_57\n      tag_26\n      jump\t// in\n    tag_57:\n    tag_56:\n      0x20\n      mul\n      0x20\n      add\n      add\n        /* \"test/test3.sol\":1074:1098  newLimbs[i] = r.limbs[i] */\n      dup2\n      dup2\n      mstore\n      pop\n      pop\n        /* \"test/test3.sol\":1037:1040  ++i */\n      dup1\n      0x01\n      add\n      swap1\n      pop\n        /* \"test/test3.sol\":1007:1117  for (i=0; i < r.limbs.length; ++i) ... */\n      jump(tag_51)\n    tag_52:\n        /* \"test/test3.sol\":1145:1150  carry */\n      dup3\n        /* \"test/test3.sol\":1131:1139  newLimbs */\n      dup3\n        /* \"test/test3.sol\":1140:1141  i */\n      dup3\n        /* \"test/test3.sol\":1131:1142  newLimbs[i] */\n      dup2\n      mload\n      dup2\n      lt\n      tag_58\n      jumpi\n      tag_59\n      tag_26\n      jump\t// in\n    tag_59:\n    tag_58:\n      0x20\n      mul\n      0x20\n      add\n      add\n        /* \"test/test3.sol\":1131:1150  newLimbs[i] = carry */\n      dup2\n      dup2\n      mstore\n      pop\n      pop\n        /* \"test/test3.sol\":1175:1183  newLimbs */\n      dup2\n        /* \"test/test3.sol\":1165:1166  r */\n      dup5\n        /* \"test/test3.sol\":1165:1172  r.limbs */\n      0x00\n      add\n        /* \"test/test3.sol\":1165:1183  r.limbs = newLimbs */\n      dup2\n      swap1\n      mstore\n      pop\n        /* \"test/test3.sol\":901:1196  {... */\n      pop\n      pop\n        /* \"test/test3.sol\":888:1196  if(carry > 0){... */\n    tag_45:\n        /* \"test/test3.sol\":352:1203  {... */\n      pop\n        /* \"test/test3.sol\":266:1203  function add(bigint memory a, bigint memory b) internal pure returns(bigint memory r) {... */\n      swap3\n      swap2\n      pop\n      pop\n      jump\t// out\n        /* \"test/test3.sol\":1213:1354  function limb(bigint memory a, uint index) internal pure returns (uint) {... */\n    tag_13:\n        /* \"test/test3.sol\":1279:1283  uint */\n      0x00\n        /* \"test/test3.sol\":1311:1312  a */\n      dup3\n        /* \"test/test3.sol\":1311:1318  a.limbs */\n      0x00\n      add\n      mload\n        /* \"test/test3.sol\":1311:1325  a.limbs.length */\n      mload\n        /* \"test/test3.sol\":1303:1308  index */\n      dup3\n        /* \"test/test3.sol\":1303:1325  index < a.limbs.length */\n      lt\n        /* \"test/test3.sol\":1303:1346  index < a.limbs.length ? a.limbs[index] : 0 */\n      tag_61\n      jumpi\n        /* \"test/test3.sol\":1345:1346  0 */\n      0x00\n        /* \"test/test3.sol\":1303:1346  index < a.limbs.length ? a.limbs[index] : 0 */\n      jump(tag_62)\n    tag_61:\n        /* \"test/test3.sol\":1328:1329  a */\n      dup3\n        /* \"test/test3.sol\":1328:1335  a.limbs */\n      0x00\n      add\n      mload\n        /* \"test/test3.sol\":1336:1341  index */\n      dup3\n        /* \"test/test3.sol\":1328:1342  a.limbs[index] */\n      dup2\n      mload\n      dup2\n      lt\n      tag_63\n      jumpi\n      tag_64\n      tag_26\n      jump\t// in\n    tag_64:\n    tag_63:\n      0x20\n      mul\n      0x20\n      add\n      add\n      mload\n        /* \"test/test3.sol\":1303:1346  index < a.limbs.length ? a.limbs[index] : 0 */\n    tag_62:\n        /* \"test/test3.sol\":1296:1346  return index < a.limbs.length ? a.limbs[index] : 0 */\n      swap1\n      pop\n        /* \"test/test3.sol\":1213:1354  function limb(bigint memory a, uint index) internal pure returns (uint) {... */\n      swap3\n      swap2\n      pop\n      pop\n      jump\t// out\n        /* \"test/test3.sol\":1364:1459  function max(uint a, uint b) private pure returns(uint) {... */\n    tag_30:\n        /* \"test/test3.sol\":1414:1418  uint */\n      0x00\n        /* \"test/test3.sol\":1442:1443  b */\n      dup2\n        /* \"test/test3.sol\":1438:1439  a */\n      dup4\n        /* \"test/test3.sol\":1438:1443  a > b */\n      gt\n        /* \"test/test3.sol\":1438:1451  a > b ? a : b */\n      tag_66\n      jumpi\n        /* \"test/test3.sol\":1450:1451  b */\n      dup2\n        /* \"test/test3.sol\":1438:1451  a > b ? a : b */\n      jump(tag_67)\n    tag_66:\n        /* \"test/test3.sol\":1446:1447  a */\n      dup3\n        /* \"test/test3.sol\":1438:1451  a > b ? a : b */\n    tag_67:\n        /* \"test/test3.sol\":1431:1451  return a > b ? a : b */\n      swap1\n      pop\n        /* \"test/test3.sol\":1364:1459  function max(uint a, uint b) private pure returns(uint) {... */\n      swap3\n      swap2\n      pop\n      pop\n      jump\t// out\n    tag_18:\n      mload(0x40)\n      dup1\n      0x20\n      add\n      0x40\n      mstore\n      dup1\n      0x60\n      dup2\n      mstore\n      pop\n      swap1\n      jump\t// out\n        /* \"#utility.yul\":7:187   */\n    tag_16:\n        /* \"#utility.yul\":55:132   */\n      0x4e487b7100000000000000000000000000000000000000000000000000000000\n        /* \"#utility.yul\":52:53   */\n      0x00\n        /* \"#utility.yul\":45:133   */\n      mstore\n        /* \"#utility.yul\":152:156   */\n      0x01\n        /* \"#utility.yul\":149:150   */\n      0x04\n        /* \"#utility.yul\":142:157   */\n      mstore\n        /* \"#utility.yul\":176:180   */\n      0x24\n        /* \"#utility.yul\":173:174   */\n      0x00\n        /* \"#utility.yul\":166:181   */\n      revert\n        /* \"#utility.yul\":193:373   */\n    tag_22:\n        /* \"#utility.yul\":241:318   */\n      0x4e487b7100000000000000000000000000000000000000000000000000000000\n        /* \"#utility.yul\":238:239   */\n      0x00\n        /* \"#utility.yul\":231:319   */\n      mstore\n        /* \"#utility.yul\":338:342   */\n      0x41\n        /* \"#utility.yul\":335:336   */\n      0x04\n        /* \"#utility.yul\":328:343   */\n      mstore\n        /* \"#utility.yul\":362:366   */\n      0x24\n        /* \"#utility.yul\":359:360   */\n      0x00\n        /* \"#utility.yul\":352:367   */\n      revert\n        /* \"#utility.yul\":379:559   */\n    tag_26:\n        /* \"#utility.yul\":427:504   */\n      0x4e487b7100000000000000000000000000000000000000000000000000000000\n        /* \"#utility.yul\":424:425   */\n      0x00\n        /* \"#utility.yul\":417:505   */\n      mstore\n        /* \"#utility.yul\":524:528   */\n      0x32\n        /* \"#utility.yul\":521:522   */\n      0x04\n        /* \"#utility.yul\":514:529   */\n      mstore\n        /* \"#utility.yul\":548:552   */\n      0x24\n        /* \"#utility.yul\":545:546   */\n      0x00\n        /* \"#utility.yul\":538:553   */\n      revert\n        /* \"#utility.yul\":565:642   */\n    tag_68:\n        /* \"#utility.yul\":602:609   */\n      0x00\n        /* \"#utility.yul\":631:636   */\n      dup2\n        /* \"#utility.yul\":620:636   */\n      swap1\n      pop\n        /* \"#utility.yul\":565:642   */\n      swap2\n      swap1\n      pop\n      jump\t// out\n        /* \"#utility.yul\":648:828   */\n    tag_69:\n        /* \"#utility.yul\":696:773   */\n      0x4e487b7100000000000000000000000000000000000000000000000000000000\n        /* \"#utility.yul\":693:694   */\n      0x00\n        /* \"#utility.yul\":686:774   */\n      mstore\n        /* \"#utility.yul\":793:797   */\n      0x11\n        /* \"#utility.yul\":790:791   */\n      0x04\n        /* \"#utility.yul\":783:798   */\n      mstore\n        /* \"#utility.yul\":817:821   */\n      0x24\n        /* \"#utility.yul\":814:815   */\n      0x00\n        /* \"#utility.yul\":807:822   */\n      revert\n        /* \"#utility.yul\":834:1025   */\n    tag_47:\n        /* \"#utility.yul\":874:877   */\n      0x00\n        /* \"#utility.yul\":893:913   */\n      tag_77\n        /* \"#utility.yul\":911:912   */\n      dup3\n        /* \"#utility.yul\":893:913   */\n      tag_68\n      jump\t// in\n    tag_77:\n        /* \"#utility.yul\":888:913   */\n      swap2\n      pop\n        /* \"#utility.yul\":927:947   */\n      tag_78\n        /* \"#utility.yul\":945:946   */\n      dup4\n        /* \"#utility.yul\":927:947   */\n      tag_68\n      jump\t// in\n    tag_78:\n        /* \"#utility.yul\":922:947   */\n      swap3\n      pop\n        /* \"#utility.yul\":970:971   */\n      dup3\n        /* \"#utility.yul\":967:968   */\n      dup3\n        /* \"#utility.yul\":963:972   */\n      add\n        /* \"#utility.yul\":956:972   */\n      swap1\n      pop\n        /* \"#utility.yul\":991:994   */\n      dup1\n        /* \"#utility.yul\":988:989   */\n      dup3\n        /* \"#utility.yul\":985:995   */\n      gt\n        /* \"#utility.yul\":982:1018   */\n      iszero\n      tag_79\n      jumpi\n        /* \"#utility.yul\":998:1016   */\n      tag_80\n      tag_69\n      jump\t// in\n    tag_80:\n        /* \"#utility.yul\":982:1018   */\n    tag_79:\n        /* \"#utility.yul\":834:1025   */\n      swap3\n      swap2\n      pop\n      pop\n      jump\t// out\n\n    auxdata: 0xa26469706673582212206fbc3958f6d6afec99827d33fbc71e22374372837ed43daf27952b48315c3afa64736f6c634300081c0033\n}\n",
				"bytecode": {
					"linkReferences": {},
					"object": "6080604052348015600e575f5ffd5b506104c38061001c5f395ff3fe608060405234801561000f575f5ffd5b5060043610610029575f3560e01c806326121ff01461002d575b5f5ffd5b610035610037565b005b5f61004260076100ae565b90505f61006e7fffffffffffffffffffffffffffffffffffffffffffffffffffffffffffffffff6100ae565b90505f610084828461012f90919063ffffffff16565b90505f61009b60018361033990919063ffffffff16565b116100a9576100a861039d565b5b505050565b6100b661038a565b600167ffffffffffffffff8111156100d1576100d06103ca565b5b6040519080825280602002602001820160405280156100ff5781602001602082028036833780820191505090505b50815f018190525081815f01515f8151811061011e5761011d6103f7565b5b602002602001018181525050919050565b61013761038a565b610149835f015151835f015151610372565b67ffffffffffffffff811115610162576101616103ca565b5b6040519080825280602002602001820160405280156101905781602001602082028036833780820191505090505b50815f01819052505f5f90505f5f90505b825f015151811015610249575f6101b88683610339565b90505f6101c58684610339565b90508381830101855f015184815181106101e2576101e16103f7565b5b60200260200101818152505081818301108061022a57507fffffffffffffffffffffffffffffffffffffffffffffffffffffffffffffffff81830114801561022957505f84115b5b15610238576001935061023c565b5f93505b50508060010190506101a1565b505f811115610332575f6001835f015151610264919061045a565b67ffffffffffffffff81111561027d5761027c6103ca565b5b6040519080825280602002602001820160405280156102ab5781602001602082028036833780820191505090505b5090505f5f90505b835f01515181101561030757835f015181815181106102d5576102d46103f7565b5b60200260200101518282815181106102f0576102ef6103f7565b5b6020026020010181815250508060010190506102b3565b8282828151811061031b5761031a6103f7565b5b60200260200101818152505081845f018190525050505b5092915050565b5f825f015151821061034b575f61036a565b825f01518281518110610361576103606103f7565b5b60200260200101515b905092915050565b5f8183116103805781610382565b825b905092915050565b6040518060200160405280606081525090565b7f4e487b71000000000000000000000000000000000000000000000000000000005f52600160045260245ffd5b7f4e487b71000000000000000000000000000000000000000000000000000000005f52604160045260245ffd5b7f4e487b71000000000000000000000000000000000000000000000000000000005f52603260045260245ffd5b5f819050919050565b7f4e487b71000000000000000000000000000000000000000000000000000000005f52601160045260245ffd5b5f61046482610424565b915061046f83610424565b92508282019050808211156104875761048661042d565b5b9291505056fea26469706673582212206fbc3958f6d6afec99827d33fbc71e22374372837ed43daf27952b48315c3afa64736f6c634300081c0033",
					"opcodes": "PUSH1 0x80 PUSH1 0x40 MSTORE CALLVALUE DUP1 ISZERO PUSH1 0xE JUMPI PUSH0 PUSH0 REVERT JUMPDEST POP PUSH2 0x4C3 DUP1 PUSH2 0x1C PUSH0 CODECOPY PUSH0 RETURN INVALID PUSH1 0x80 PUSH1 0x40 MSTORE CALLVALUE DUP1 ISZERO PUSH2 0xF JUMPI PUSH0 PUSH0 REVERT JUMPDEST POP PUSH1 0x4 CALLDATASIZE LT PUSH2 0x29 JUMPI PUSH0 CALLDATALOAD PUSH1 0xE0 SHR DUP1 PUSH4 0x26121FF0 EQ PUSH2 0x2D JUMPI JUMPDEST PUSH0 PUSH0 REVERT JUMPDEST PUSH2 0x35 PUSH2 0x37 JUMP JUMPDEST STOP JUMPDEST PUSH0 PUSH2 0x42 PUSH1 0x7 PUSH2 0xAE JUMP JUMPDEST SWAP1 POP PUSH0 PUSH2 0x6E PUSH32 0xFFFFFFFFFFFFFFFFFFFFFFFFFFFFFFFFFFFFFFFFFFFFFFFFFFFFFFFFFFFFFFFF PUSH2 0xAE JUMP JUMPDEST SWAP1 POP PUSH0 PUSH2 0x84 DUP3 DUP5 PUSH2 0x12F SWAP1 SWAP2 SWAP1 PUSH4 0xFFFFFFFF AND JUMP JUMPDEST SWAP1 POP PUSH0 PUSH2 0x9B PUSH1 0x1 DUP4 PUSH2 0x339 SWAP1 SWAP2 SWAP1 PUSH4 0xFFFFFFFF AND JUMP JUMPDEST GT PUSH2 0xA9 JUMPI PUSH2 0xA8 PUSH2 0x39D JUMP JUMPDEST JUMPDEST POP POP POP JUMP JUMPDEST PUSH2 0xB6 PUSH2 0x38A JUMP JUMPDEST PUSH1 0x1 PUSH8 0xFFFFFFFFFFFFFFFF DUP2 GT ISZERO PUSH2 0xD1 JUMPI PUSH2 0xD0 PUSH2 0x3CA JUMP JUMPDEST JUMPDEST PUSH1 0x40 MLOAD SWAP1 DUP1 DUP3 MSTORE DUP1 PUSH1 0x20 MUL PUSH1 0x20 ADD DUP3 ADD PUSH1 0x40 MSTORE DUP1 ISZERO PUSH2 0xFF JUMPI DUP2 PUSH1 0x20 ADD PUSH1 0x20 DUP3 MUL DUP1 CALLDATASIZE DUP4 CALLDATACOPY DUP1 DUP3 ADD SWAP2 POP POP SWAP1 POP JUMPDEST POP DUP2 PUSH0 ADD DUP2 SWAP1 MSTORE POP DUP2 DUP2 PUSH0 ADD MLOAD PUSH0 DUP2 MLOAD DUP2 LT PUSH2 0x11E JUMPI PUSH2 0x11D PUSH2 0x3F7 JUMP JUMPDEST JUMPDEST PUSH1 0x20 MUL PUSH1 0x20 ADD ADD DUP2 DUP2 MSTORE POP POP SWAP2 SWAP1 POP JUMP JUMPDEST PUSH2 0x137 PUSH2 0x38A JUMP JUMPDEST PUSH2 0x149 DUP4 PUSH0 ADD MLOAD MLOAD DUP4 PUSH0 ADD MLOAD MLOAD PUSH2 0x372 JUMP JUMPDEST PUSH8 0xFFFFFFFFFFFFFFFF DUP2 GT ISZERO PUSH2 0x162 JUMPI PUSH2 0x161 PUSH2 0x3CA JUMP JUMPDEST JUMPDEST PUSH1 0x40 MLOAD SWAP1 DUP1 DUP3 MSTORE DUP1 PUSH1 0x20 MUL PUSH1 0x20 ADD DUP3 ADD PUSH1 0x40 MSTORE DUP1 ISZERO PUSH2 0x190 JUMPI DUP2 PUSH1 0x20 ADD PUSH1 0x20 DUP3 MUL DUP1 CALLDATASIZE DUP4 CALLDATACOPY DUP1 DUP3 ADD SWAP2 POP POP SWAP1 POP JUMPDEST POP DUP2 PUSH0 ADD DUP2 SWAP1 MSTORE POP PUSH0 PUSH0 SWAP1 POP PUSH0 PUSH0 SWAP1 POP JUMPDEST DUP3 PUSH0 ADD MLOAD MLOAD DUP2 LT ISZERO PUSH2 0x249 JUMPI PUSH0 PUSH2 0x1B8 DUP7 DUP4 PUSH2 0x339 JUMP JUMPDEST SWAP1 POP PUSH0 PUSH2 0x1C5 DUP7 DUP5 PUSH2 0x339 JUMP JUMPDEST SWAP1 POP DUP4 DUP2 DUP4 ADD ADD DUP6 PUSH0 ADD MLOAD DUP5 DUP2 MLOAD DUP2 LT PUSH2 0x1E2 JUMPI PUSH2 0x1E1 PUSH2 0x3F7 JUMP JUMPDEST JUMPDEST PUSH1 0x20 MUL PUSH1 0x20 ADD ADD DUP2 DUP2 MSTORE POP POP DUP2 DUP2 DUP4 ADD LT DUP1 PUSH2 0x22A JUMPI POP PUSH32 0xFFFFFFFFFFFFFFFFFFFFFFFFFFFFFFFFFFFFFFFFFFFFFFFFFFFFFFFFFFFFFFFF DUP2 DUP4 ADD EQ DUP1 ISZERO PUSH2 0x229 JUMPI POP PUSH0 DUP5 GT JUMPDEST JUMPDEST ISZERO PUSH2 0x238 JUMPI PUSH1 0x1 SWAP4 POP PUSH2 0x23C JUMP JUMPDEST PUSH0 SWAP4 POP JUMPDEST POP POP DUP1 PUSH1 0x1 ADD SWAP1 POP PUSH2 0x1A1 JUMP JUMPDEST POP PUSH0 DUP2 GT ISZERO PUSH2 0x332 JUMPI PUSH0 PUSH1 0x1 DUP4 PUSH0 ADD MLOAD MLOAD PUSH2 0x264 SWAP2 SWAP1 PUSH2 0x45A JUMP JUMPDEST PUSH8 0xFFFFFFFFFFFFFFFF DUP2 GT ISZERO PUSH2 0x27D JUMPI PUSH2 0x27C PUSH2 0x3CA JUMP JUMPDEST JUMPDEST PUSH1 0x40 MLOAD SWAP1 DUP1 DUP3 MSTORE DUP1 PUSH1 0x20 MUL PUSH1 0x20 ADD DUP3 ADD PUSH1 0x40 MSTORE DUP1 ISZERO PUSH2 0x2AB JUMPI DUP2 PUSH1 0x20 ADD PUSH1 0x20 DUP3 MUL DUP1 CALLDATASIZE DUP4 CALLDATACOPY DUP1 DUP3 ADD SWAP2 POP POP SWAP1 POP JUMPDEST POP SWAP1 POP PUSH0 PUSH0 SWAP1 POP JUMPDEST DUP4 PUSH0 ADD MLOAD MLOAD DUP2 LT ISZERO PUSH2 0x307 JUMPI DUP4 PUSH0 ADD MLOAD DUP2 DUP2 MLOAD DUP2 LT PUSH2 0x2D5 JUMPI PUSH2 0x2D4 PUSH2 0x3F7 JUMP JUMPDEST JUMPDEST PUSH1 0x20 MUL PUSH1 0x20 ADD ADD MLOAD DUP3 DUP3 DUP2 MLOAD DUP2 LT PUSH2 0x2F0 JUMPI PUSH2 0x2EF PUSH2 0x3F7 JUMP JUMPDEST JUMPDEST PUSH1 0x20 MUL PUSH1 0x20 ADD ADD DUP2 DUP2 MSTORE POP POP DUP1 PUSH1 0x1 ADD SWAP1 POP PUSH2 0x2B3 JUMP JUMPDEST DUP3 DUP3 DUP3 DUP2 MLOAD DUP2 LT PUSH2 0x31B JUMPI PUSH2 0x31A PUSH2 0x3F7 JUMP JUMPDEST JUMPDEST PUSH1 0x20 MUL PUSH1 0x20 ADD ADD DUP2 DUP2 MSTORE POP POP DUP2 DUP5 PUSH0 ADD DUP2 SWAP1 MSTORE POP POP POP JUMPDEST POP SWAP3 SWAP2 POP POP JUMP JUMPDEST PUSH0 DUP3 PUSH0 ADD MLOAD MLOAD DUP3 LT PUSH2 0x34B JUMPI PUSH0 PUSH2 0x36A JUMP JUMPDEST DUP3 PUSH0 ADD MLOAD DUP3 DUP2 MLOAD DUP2 LT PUSH2 0x361 JUMPI PUSH2 0x360 PUSH2 0x3F7 JUMP JUMPDEST JUMPDEST PUSH1 0x20 MUL PUSH1 0x20 ADD ADD MLOAD JUMPDEST SWAP1 POP SWAP3 SWAP2 POP POP JUMP JUMPDEST PUSH0 DUP2 DUP4 GT PUSH2 0x380 JUMPI DUP2 PUSH2 0x382 JUMP JUMPDEST DUP3 JUMPDEST SWAP1 POP SWAP3 SWAP2 POP POP JUMP JUMPDEST PUSH1 0x40 MLOAD DUP1 PUSH1 0x20 ADD PUSH1 0x40 MSTORE DUP1 PUSH1 0x60 DUP2 MSTORE POP SWAP1 JUMP JUMPDEST PUSH32 0x4E487B7100000000000000000000000000000000000000000000000000000000 PUSH0 MSTORE PUSH1 0x1 PUSH1 0x4 MSTORE PUSH1 0x24 PUSH0 REVERT JUMPDEST PUSH32 0x4E487B7100000000000000000000000000000000000000000000000000000000 PUSH0 MSTORE PUSH1 0x41 PUSH1 0x4 MSTORE PUSH1 0x24 PUSH0 REVERT JUMPDEST PUSH32 0x4E487B7100000000000000000000000000000000000000000000000000000000 PUSH0 MSTORE PUSH1 0x32 PUSH1 0x4 MSTORE PUSH1 0x24 PUSH0 REVERT JUMPDEST PUSH0 DUP2 SWAP1 POP SWAP2 SWAP1 POP JUMP JUMPDEST PUSH32 0x4E487B7100000000000000000000000000000000000000000000000000000000 PUSH0 MSTORE PUSH1 0x11 PUSH1 0x4 MSTORE PUSH1 0x24 PUSH0 REVERT JUMPDEST PUSH0 PUSH2 0x464 DUP3 PUSH2 0x424 JUMP JUMPDEST SWAP2 POP PUSH2 0x46F DUP4 PUSH2 0x424 JUMP JUMPDEST SWAP3 POP DUP3 DUP3 ADD SWAP1 POP DUP1 DUP3 GT ISZERO PUSH2 0x487 JUMPI PUSH2 0x486 PUSH2 0x42D JUMP JUMPDEST JUMPDEST SWAP3 SWAP2 POP POP JUMP INVALID LOG2 PUSH5 0x6970667358 0x22 SLT KECCAK256 PUSH16 0xBC3958F6D6AFEC99827D33FBC71E2237 NUMBER PUSH19 0x837ED43DAF27952B48315C3AFA64736F6C6343 STOP ADDMOD SHR STOP CALLER "
				},
				"gasEstimates": {
					"creation": {
						"codeDepositCost": "243800",
						"executionCost": "285",
						"totalCost": "244085"
					},
					"external": {
						"f()": "infinite"
					}
				},
				"methodIdentifiers": {
					"f()": "26121ff0"
				}
			},
			"storageLayout": {
				"storage": [],
				"types": null
			},
			"userdoc": {
				"kind": "user",
				"methods": {},
				"version": 1
			}
		}
	}
}