{
	"test/test2.sol": {
		"C": {
			"abi": [
				{
					"inputs": [
						{
							"internalType": "uint256",
							"name": "value",
							"type": "uint256"
						}
					],
					"name": "register",
					"outputs": [],
					"stateMutability": "nonpayable",
					"type": "function"
				}
			],
			"devdoc": {
				"kind": "dev",
				"methods": {},
				"version": 1
			},
			"evm": {
				"assembly": "    /* \"test/test2.sol\":2126:2266  contract C {... */\n  mstore(0x40, 0x80)\n  callvalue\n  dup1\n  iszero\n  tag_1\n  jumpi\n  revert(0x00, 0x00)\ntag_1:\n  pop\n  dataSize(sub_0)\n  dup1\n  dataOffset(sub_0)\n  0x00\n  codecopy\n  0x00\n  return\nstop\n\nsub_0: assembly {\n        /* \"test/test2.sol\":2126:2266  contract C {... */\n      mstore(0x40, 0x80)\n      callvalue\n      dup1\n      iszero\n      tag_1\n      jumpi\n      revert(0x00, 0x00)\n    tag_1:\n      pop\n      jumpi(tag_2, lt(calldatasize, 0x04))\n      shr(0xe0, calldataload(0x00))\n      dup1\n      0xf207564e\n      eq\n      tag_3\n      jumpi\n    tag_2:\n      revert(0x00, 0x00)\n        /* \"test/test2.sol\":2169:2263  function register(uint value) public {... */\n    tag_3:\n      tag_4\n      0x04\n      dup1\n      calldatasize\n      sub\n      dup2\n      add\n      swap1\n      tag_5\n      swap2\n      swap1\n      tag_6\n      jump\t// in\n    tag_5:\n      tag_7\n      jump\t// in\n    tag_4:\n      stop\n    tag_7:\n        /* \"test/test2.sol\":2225:2228  Set */\n      linkerSymbol(\"c917ecc4f7be5200fa73a8eb7912e663fa3186201c2e0f12c784d72b1fefa6cd\")\n        /* \"test/test2.sol\":2225:2235  Set.insert */\n      0x3ab90ad8\n        /* \"test/test2.sol\":2236:2247  knownValues */\n      0x00\n        /* \"test/test2.sol\":2248:2253  value */\n      dup4\n        /* \"test/test2.sol\":2225:2254  Set.insert(knownValues,value) */\n      mload(0x40)\n      dup4\n      0xffffffff\n      and\n      0xe0\n      shl\n      dup2\n      mstore\n      0x04\n      add\n      tag_9\n      swap3\n      swap2\n      swap1\n      tag_10\n      jump\t// in\n    tag_9:\n      0x20\n      mload(0x40)\n      dup1\n      dup4\n      sub\n      dup2\n      dup7\n      gas\n      delegatecall\n      iszero\n      dup1\n      iszero\n      tag_12\n      jumpi\n      returndatacopy(0x00, 0x00, returndatasize)\n      revert(0x00, returndatasize)\n    tag_12:\n      pop\n      pop\n      pop\n      pop\n      mload(0x40)\n      returndatasize\n      not(0x1f)\n      0x1f\n      dup3\n      add\n      and\n      dup3\n      add\n      dup1\n      0x40\n      mstore\n      pop\n      dup2\n      add\n      swap1\n      tag_13\n      swap2\n      swap1\n      tag_14\n      jump\t// in\n    tag_13:\n        /* \"test/test2.sol\":2217:2255  require(Set.insert(knownValues,value)) */\n      tag_15\n      jumpi\n      revert(0x00, 0x00)\n    tag_15:\n        /* \"test/test2.sol\":2169:2263  function register(uint value) public {... */\n      pop\n      jump\t// out\n        /* \"#utility.yul\":88:205   */\n    tag_17:\n        /* \"#utility.yul\":197:198   */\n      0x00\n        /* \"#utility.yul\":194:195   */\n      0x00\n        /* \"#utility.yul\":187:199   */\n      revert\n        /* \"#utility.yul\":334:411   */\n    tag_19:\n        /* \"#utility.yul\":371:378   */\n      0x00\n        /* \"#utility.yul\":400:405   */\n      dup2\n        /* \"#utility.yul\":389:405   */\n      swap1\n      pop\n        /* \"#utility.yul\":334:411   */\n      swap2\n      swap1\n      pop\n      jump\t// out\n        /* \"#utility.yul\":417:539   */\n    tag_20:\n        /* \"#utility.yul\":490:514   */\n      tag_33\n        /* \"#utility.yul\":508:513   */\n      dup2\n        /* \"#utility.yul\":490:514   */\n      tag_19\n      jump\t// in\n    tag_33:\n        /* \"#utility.yul\":483:488   */\n      dup2\n        /* \"#utility.yul\":480:515   */\n      eq\n        /* \"#utility.yul\":470:533   */\n      tag_34\n      jumpi\n        /* \"#utility.yul\":529:530   */\n      0x00\n        /* \"#utility.yul\":526:527   */\n      0x00\n        /* \"#utility.yul\":519:531   */\n      revert\n        /* \"#utility.yul\":470:533   */\n    tag_34:\n        /* \"#utility.yul\":417:539   */\n      pop\n      jump\t// out\n        /* \"#utility.yul\":545:684   */\n    tag_21:\n        /* \"#utility.yul\":591:596   */\n      0x00\n        /* \"#utility.yul\":629:635   */\n      dup2\n        /* \"#utility.yul\":616:636   */\n      calldataload\n        /* \"#utility.yul\":607:636   */\n      swap1\n      pop\n        /* \"#utility.yul\":645:678   */\n      tag_36\n        /* \"#utility.yul\":672:677   */\n      dup2\n        /* \"#utility.yul\":645:678   */\n      tag_20\n      jump\t// in\n    tag_36:\n        /* \"#utility.yul\":545:684   */\n      swap3\n      swap2\n      pop\n      pop\n      jump\t// out\n        /* \"#utility.yul\":690:1019   */\n    tag_6:\n        /* \"#utility.yul\":749:755   */\n      0x00\n        /* \"#utility.yul\":798:800   */\n      0x20\n        /* \"#utility.yul\":786:795   */\n      dup3\n        /* \"#utility.yul\":777:784   */\n      dup5\n        /* \"#utility.yul\":773:796   */\n      sub\n        /* \"#utility.yul\":769:801   */\n      slt\n        /* \"#utility.yul\":766:885   */\n      iszero\n      tag_38\n      jumpi\n        /* \"#utility.yul\":804:883   */\n      tag_39\n      tag_17\n      jump\t// in\n    tag_39:\n        /* \"#utility.yul\":766:885   */\n    tag_38:\n        /* \"#utility.yul\":924:925   */\n      0x00\n        /* \"#utility.yul\":949:1002   */\n      tag_40\n        /* \"#utility.yul\":994:1001   */\n      dup5\n        /* \"#utility.yul\":985:991   */\n      dup3\n        /* \"#utility.yul\":974:983   */\n      dup6\n        /* \"#utility.yul\":970:992   */\n      add\n        /* \"#utility.yul\":949:1002   */\n      tag_21\n      jump\t// in\n    tag_40:\n        /* \"#utility.yul\":939:1002   */\n      swap2\n      pop\n        /* \"#utility.yul\":895:1012   */\n      pop\n        /* \"#utility.yul\":690:1019   */\n      swap3\n      swap2\n      pop\n      pop\n      jump\t// out\n        /* \"#utility.yul\":1025:1148   */\n    tag_22:\n        /* \"#utility.yul\":1136:1141   */\n      dup1\n        /* \"#utility.yul\":1131:1134   */\n      dup3\n        /* \"#utility.yul\":1124:1142   */\n      mstore\n        /* \"#utility.yul\":1025:1148   */\n      pop\n      pop\n      jump\t// out\n        /* \"#utility.yul\":1154:1280   */\n    tag_23:\n        /* \"#utility.yul\":1249:1273   */\n      tag_43\n        /* \"#utility.yul\":1267:1272   */\n      dup2\n        /* \"#utility.yul\":1249:1273   */\n      tag_19\n      jump\t// in\n    tag_43:\n        /* \"#utility.yul\":1244:1247   */\n      dup3\n        /* \"#utility.yul\":1237:1274   */\n      mstore\n        /* \"#utility.yul\":1154:1280   */\n      pop\n      pop\n      jump\t// out\n        /* \"#utility.yul\":1286:1674   */\n    tag_10:\n        /* \"#utility.yul\":1431:1435   */\n      0x00\n        /* \"#utility.yul\":1469:1471   */\n      0x40\n        /* \"#utility.yul\":1458:1467   */\n      dup3\n        /* \"#utility.yul\":1454:1472   */\n      add\n        /* \"#utility.yul\":1446:1472   */\n      swap1\n      pop\n        /* \"#utility.yul\":1482:1577   */\n      tag_45\n        /* \"#utility.yul\":1574:1575   */\n      0x00\n        /* \"#utility.yul\":1563:1572   */\n      dup4\n        /* \"#utility.yul\":1559:1576   */\n      add\n        /* \"#utility.yul\":1550:1556   */\n      dup6\n        /* \"#utility.yul\":1482:1577   */\n      tag_22\n      jump\t// in\n    tag_45:\n        /* \"#utility.yul\":1587:1667   */\n      tag_46\n        /* \"#utility.yul\":1663:1665   */\n      0x20\n        /* \"#utility.yul\":1652:1661   */\n      dup4\n        /* \"#utility.yul\":1648:1666   */\n      add\n        /* \"#utility.yul\":1639:1645   */\n      dup5\n        /* \"#utility.yul\":1587:1667   */\n      tag_23\n      jump\t// in\n    tag_46:\n        /* \"#utility.yul\":1286:1674   */\n      swap4\n      swap3\n      pop\n      pop\n      pop\n      jump\t// out\n        /* \"#utility.yul\":1680:1770   */\n    tag_24:\n        /* \"#utility.yul\":1714:1721   */\n      0x00\n        /* \"#utility.yul\":1757:1762   */\n      dup2\n        /* \"#utility.yul\":1750:1763   */\n      iszero\n        /* \"#utility.yul\":1743:1764   */\n      iszero\n        /* \"#utility.yul\":1732:1764   */\n      swap1\n      pop\n        /* \"#utility.yul\":1680:1770   */\n      swap2\n      swap1\n      pop\n      jump\t// out\n        /* \"#utility.yul\":1776:1892   */\n    tag_25:\n        /* \"#utility.yul\":1846:1867   */\n      tag_49\n        /* \"#utility.yul\":1861:1866   */\n      dup2\n        /* \"#utility.yul\":1846:1867   */\n      tag_24\n      jump\t// in\n    tag_49:\n        /* \"#utility.yul\":1839:1844   */\n      dup2\n        /* \"#utility.yul\":1836:1868   */\n      eq\n        /* \"#utility.yul\":1826:1886   */\n      tag_50\n      jumpi\n        /* \"#utility.yul\":1882:1883   */\n      0x00\n        /* \"#utility.yul\":1879:1880   */\n      0x00\n        /* \"#utility.yul\":1872:1884   */\n      revert\n        /* \"#utility.yul\":1826:1886   */\n    tag_50:\n        /* \"#utility.yul\":1776:1892   */\n      pop\n      jump\t// out\n        /* \"#utility.yul\":1898:2035   */\n    tag_26:\n        /* \"#utility.yul\":1952:1957   */\n      0x00\n        /* \"#utility.yul\":1983:1989   */\n      dup2\n        /* \"#utility.yul\":1977:1990   */\n      mload\n        /* \"#utility.yul\":1968:1990   */\n      swap1\n      pop\n        /* \"#utility.yul\":1999:2029   */\n      tag_52\n        /* \"#utility.yul\":2023:2028   */\n      dup2\n        /* \"#utility.yul\":1999:2029   */\n      tag_25\n      jump\t// in\n    tag_52:\n        /* \"#utility.yul\":1898:2035   */\n      swap3\n      swap2\n      pop\n      pop\n      jump\t// out\n        /* \"#utility.yul\":2041:2386   */\n    tag_14:\n        /* \"#utility.yul\":2108:2114   */\n      0x00\n        /* \"#utility.yul\":2157:2159   */\n      0x20\n        /* \"#utility.yul\":2145:2154   */\n      dup3\n        /* \"#utility.yul\":2136:2143   */\n      dup5\n        /* \"#utility.yul\":2132:2155   */\n      sub\n        /* \"#utility.yul\":2128:2160   */\n      slt\n        /* \"#utility.yul\":2125:2244   */\n      iszero\n      tag_54\n      jumpi\n        /* \"#utility.yul\":2163:2242   */\n      tag_55\n      tag_17\n      jump\t// in\n    tag_55:\n        /* \"#utility.yul\":2125:2244   */\n    tag_54:\n        /* \"#utility.yul\":2283:2284   */\n      0x00\n        /* \"#utility.yul\":2308:2369   */\n      tag_56\n        /* \"#utility.yul\":2361:2368   */\n      dup5\n        /* \"#utility.yul\":2352:2358   */\n      dup3\n        /* \"#utility.yul\":2341:2350   */\n      dup6\n        /* \"#utility.yul\":2337:2359   */\n      add\n        /* \"#utility.yul\":2308:2369   */\n      tag_26\n      jump\t// in\n    tag_56:\n        /* \"#utility.yul\":2298:2369   */\n      swap2\n      pop\n        /* \"#utility.yul\":2254:2379   */\n      pop\n        /* \"#utility.yul\":2041:2386   */\n      swap3\n      swap2\n      pop\n      pop\n      jump\t// out\n\n    auxdata: 0xa26469706673582212207ed60986843bd0d3eb0eeceddfaeed49ed20798fdb01451511f8b7d70c6acf9564736f6c634300081c0033\n}\n",
				"bytecode": {
					"linkReferences": {
						"test/test2.sol": {
							"Set": [
								{
									"length": 20,
									"start": 103
								}
							]
						}
					},
					"object": "6080604052348015600e575f5ffd5b506102018061001c5f395ff3fe608060405234801561000f575f5ffd5b5060043610610029575f3560e01c8063f207564e1461002d575b5f5ffd5b61004760048036038101906100429190610103565b610049565b005b73__$c917ecc4f7be5200fa73a8eb7912e663fa$__633ab90ad85f836040518363ffffffff1660e01b8152600401610082929190610144565b602060405180830381865af415801561009d573d5f5f3e3d5ffd5b505050506040513d601f19601f820116820180604052508101906100c191906101a0565b6100c9575f5ffd5b50565b5f5ffd5b5f819050919050565b6100e2816100d0565b81146100ec575f5ffd5b50565b5f813590506100fd816100d9565b92915050565b5f60208284031215610118576101176100cc565b5b5f610125848285016100ef565b91505092915050565b8082525050565b61013e816100d0565b82525050565b5f6040820190506101575f83018561012e565b6101646020830184610135565b9392505050565b5f8115159050919050565b61017f8161016b565b8114610189575f5ffd5b50565b5f8151905061019a81610176565b92915050565b5f602082840312156101b5576101b46100cc565b5b5f6101c28482850161018c565b9150509291505056fea26469706673582212207ed60986843bd0d3eb0eeceddfaeed49ed20798fdb01451511f8b7d70c6acf9564736f6c634300081c0033",
					"opcodes": "PUSH1 0x80 PUSH1 0x40 MSTORE CALLVALUE DUP1 ISZERO PUSH1 0xE JUMPI PUSH0 PUSH0 REVERT JUMPDEST POP PUSH2 0x201 DUP1 PUSH2 0x1C PUSH0 CODECOPY PUSH0 RETURN INVALID PUSH1 0x80 PUSH1 0x40 MSTORE CALLVALUE DUP1 ISZERO PUSH2 0xF JUMPI PUSH0 PUSH0 REVERT JUMPDEST POP PUSH1 0x4 CALLDATASIZE LT PUSH2 0x29 JUMPI PUSH0 CALLDATALOAD PUSH1 0xE0 SHR DUP1 PUSH4 0xF207564E EQ PUSH2 0x2D JUMPI JUMPDEST PUSH0 PUSH0 REVERT JUMPDEST PUSH2 0x47 PUSH1 0x4 DUP1 CALLDATASIZE SUB DUP2 ADD SWAP1 PUSH2 0x42 SWAP2 SWAP1 PUSH2 0x103 JUMP JUMPDEST PUSH2 0x49 JUMP JUMPDEST STOP JUMPDEST PUSH20 0x0 PUSH4 0x3AB90AD8 PUSH0 DUP4 PUSH1 0x40 MLOAD DUP4 PUSH4 0xFFFFFFFF AND PUSH1 0xE0 SHL DUP2 MSTORE PUSH1 0x4 ADD PUSH2 0x82 SWAP3 SWAP2 SWAP1 PUSH2 0x144 JUMP JUMPDEST PUSH1 0x20 PUSH1 0x40 MLOAD DUP1 DUP4 SUB DUP2 DUP7 GAS DELEGATECALL ISZERO DUP1 ISZERO PUSH2 0x9D JUMPI RETURNDATASIZE PUSH0 PUSH0 RETURNDATACOPY RETURNDATASIZE PUSH0 REVERT JUMPDEST POP POP POP POP PUSH1 0x40 MLOAD RETURNDATASIZE PUSH1 0x1F NOT PUSH1 0x1F DUP3 ADD AND DUP3 ADD DUP1 PUSH1 0x40 MSTORE POP DUP2 ADD SWAP1 PUSH2 0xC1 SWAP2 SWAP1 PUSH2 0x1A0 JUMP JUMPDEST PUSH2 0xC9 JUMPI PUSH0 PUSH0 REVERT JUMPDEST POP JUMP JUMPDEST PUSH0 PUSH0 REVERT JUMPDEST PUSH0 DUP2 SWAP1 POP SWAP2 SWAP1 POP JUMP JUMPDEST PUSH2 0xE2 DUP2 PUSH2 0xD0 JUMP JUMPDEST DUP2 EQ PUSH2 0xEC JUMPI PUSH0 PUSH0 REVERT JUMPDEST POP JUMP JUMPDEST PUSH0 DUP2 CALLDATALOAD SWAP1 POP PUSH2 0xFD DUP2 PUSH2 0xD9 JUMP JUMPDEST SWAP3 SWAP2 POP POP JUMP JUMPDEST PUSH0 PUSH1 0x20 DUP3 DUP5 SUB SLT ISZERO PUSH2 0x118 JUMPI PUSH2 0x117 PUSH2 0xCC JUMP JUMPDEST JUMPDEST PUSH0 PUSH2 0x125 DUP5 DUP3 DUP6 ADD PUSH2 0xEF JUMP JUMPDEST SWAP2 POP POP SWAP3 SWAP2 POP POP JUMP JUMPDEST DUP1 DUP3 MSTORE POP POP JUMP JUMPDEST PUSH2 0x13E DUP2 PUSH2 0xD0 JUMP JUMPDEST DUP3 MSTORE POP POP JUMP JUMPDEST PUSH0 PUSH1 0x40 DUP3 ADD SWAP1 POP PUSH2 0x157 PUSH0 DUP4 ADD DUP6 PUSH2 0x12E JUMP JUMPDEST PUSH2 0x164 PUSH1 0x20 DUP4 ADD DUP5 PUSH2 0x135 JUMP JUMPDEST SWAP4 SWAP3 POP POP POP JUMP JUMPDEST PUSH0 DUP2 ISZERO ISZERO SWAP1 POP SWAP2 SWAP1 POP JUMP JUMPDEST PUSH2 0x17F DUP2 PUSH2 0x16B JUMP JUMPDEST DUP2 EQ PUSH2 0x189 JUMPI PUSH0 PUSH0 REVERT JUMPDEST POP JUMP JUMPDEST PUSH0 DUP2 MLOAD SWAP1 POP PUSH2 0x19A DUP2 PUSH2 0x176 JUMP JUMPDEST SWAP3 SWAP2 POP POP JUMP JUMPDEST PUSH0 PUSH1 0x20 DUP3 DUP5 SUB SLT ISZERO PUSH2 0x1B5 JUMPI PUSH2 0x1B4 PUSH2 0xCC JUMP JUMPDEST JUMPDEST PUSH0 PUSH2 0x1C2 DUP5 DUP3 DUP6 ADD PUSH2 0x18C JUMP JUMPDEST SWAP2 POP POP SWAP3 SWAP2 POP POP JUMP INVALID LOG2 PUSH5 0x6970667358 0x22 SLT KECCAK256 PUSH31 0xD60986843BD0D3EB0EECEDDFAEED49ED20798FDB01451511F8B7D70C6ACF95 PUSH5 0x736F6C6343 STOP ADDMOD SHR STOP CALLER "
				},
				"gasEstimates": {
					"creation": {
						"codeDepositCost": "102600",
						"executionCost": "151",
						"totalCost": "102751"
					},
					"external": {
						"register(uint256)": "infinite"
					}
				},
				"methodIdentifiers": {
					"register(uint256)": "f207564e"
				}
			},
			"storageLayout": {
				"storage": [
					{
						"astId": 85,
						"contract": "test/test2.sol:C",
						"label": "knownValues",
						"offset": 0,
						"slot": "0",
						"type": "t_struct(Data)6_storage"
					}
				],
				"types": {
					"t_bool": {
						"encoding": "inplace",
						"label": "bool",
						"numberOfBytes": "1"
					},
					"t_mapping(t_uint256,t_bool)": {
						"encoding": "mapping",
						"key": "t_uint256",
						"label": "mapping(uint256 => bool)",
						"numberOfBytes": "32",
						"value": "t_bool"
					},
					"t_struct(Data)6_storage": {
						"encoding": "inplace",
						"label": "struct Data",
						"members": [
							{
								"astId": 5,
								"contract": "test/test2.sol:C",
								"label": "flags",
								"offset": 0,
								"slot": "0",
								"type": "t_mapping(t_uint256,t_bool)"
							}
						],
						"numberOfBytes": "32"
					},
					"t_uint256": {
						"encoding": "inplace",
						"label": "uint256",
						"numberOfBytes": "32"
					}
				}
			},
			"userdoc": {
				"kind": "user",
				"methods": {},
				"version": 1
			}
		}
	}
}